{
	"hotel.sol": {
		"Hotel": {
			"abi": [
				{
					"constant": true,
					"inputs": [
						{
							"internalType": "uint256",
							"name": "",
							"type": "uint256"
						}
					],
					"name": "Rent_by_No",
					"outputs": [
						{
							"internalType": "uint256",
							"name": "rentno",
							"type": "uint256"
						},
						{
							"internalType": "uint256",
							"name": "roomid",
							"type": "uint256"
						},
						{
							"internalType": "uint256",
							"name": "agreementid",
							"type": "uint256"
						},
						{
							"internalType": "string",
							"name": "Roomname",
							"type": "string"
						},
						{
							"internalType": "string",
							"name": "RoomAddress",
							"type": "string"
						},
						{
							"internalType": "uint256",
							"name": "rent_per_month",
							"type": "uint256"
						},
						{
							"internalType": "uint256",
							"name": "timestamp",
							"type": "uint256"
						},
						{
							"internalType": "address payable",
							"name": "tenantAddress",
							"type": "address"
						},
						{
							"internalType": "address payable",
							"name": "landlordAddress",
							"type": "address"
						}
					],
					"payable": false,
					"stateMutability": "view",
					"type": "function"
				},
				{
					"constant": true,
					"inputs": [
						{
							"internalType": "uint256",
							"name": "",
							"type": "uint256"
						}
					],
					"name": "RoomAgreement_by_No",
					"outputs": [
						{
							"internalType": "uint256",
							"name": "roomid",
							"type": "uint256"
						},
						{
							"internalType": "uint256",
							"name": "agreementid",
							"type": "uint256"
						},
						{
							"internalType": "string",
							"name": "Roomname",
							"type": "string"
						},
						{
							"internalType": "string",
							"name": "Roomaddress",
							"type": "string"
						},
						{
							"internalType": "uint256",
							"name": "rent_per_month",
							"type": "uint256"
						},
						{
							"internalType": "uint256",
							"name": "securityDeposit",
							"type": "uint256"
						},
						{
							"internalType": "uint256",
							"name": "lockInPeriod",
							"type": "uint256"
						},
						{
							"internalType": "uint256",
							"name": "timestamp",
							"type": "uint256"
						},
						{
							"internalType": "address payable",
							"name": "tenantdAddress",
							"type": "address"
						},
						{
							"internalType": "address payable",
							"name": "landlordAddress",
							"type": "address"
						}
					],
					"payable": false,
					"stateMutability": "view",
					"type": "function"
				},
				{
					"constant": true,
					"inputs": [
						{
							"internalType": "uint256",
							"name": "",
							"type": "uint256"
						}
					],
					"name": "Room_by_No",
					"outputs": [
						{
							"internalType": "uint256",
							"name": "roomid",
							"type": "uint256"
						},
						{
							"internalType": "uint256",
							"name": "agreementid",
							"type": "uint256"
						},
						{
							"internalType": "string",
							"name": "roomname",
							"type": "string"
						},
						{
							"internalType": "string",
							"name": "roomaddress",
							"type": "string"
						},
						{
							"internalType": "uint256",
							"name": "rent_per_month",
							"type": "uint256"
						},
						{
							"internalType": "uint256",
							"name": "securityDeposit",
							"type": "uint256"
						},
						{
							"internalType": "uint256",
							"name": "timestamp",
							"type": "uint256"
						},
						{
							"internalType": "bool",
							"name": "vacant",
							"type": "bool"
						},
						{
							"internalType": "address payable",
							"name": "landlord",
							"type": "address"
						},
						{
							"internalType": "address payable",
							"name": "currentTenant",
							"type": "address"
						}
					],
					"payable": false,
					"stateMutability": "view",
					"type": "function"
				},
				{
					"constant": false,
					"inputs": [
						{
							"internalType": "string",
							"name": "_roomname",
							"type": "string"
						},
						{
							"internalType": "string",
							"name": "_roomaddress",
							"type": "string"
						},
						{
							"internalType": "uint256",
							"name": "_rentcost",
							"type": "uint256"
						},
						{
							"internalType": "uint256",
							"name": "_securitydeposit",
							"type": "uint256"
						}
					],
					"name": "addRoom",
					"outputs": [],
					"payable": false,
					"stateMutability": "nonpayable",
					"type": "function"
				},
				{
					"constant": false,
					"inputs": [
						{
							"internalType": "uint256",
							"name": "_index",
							"type": "uint256"
						}
					],
					"name": "agreementCompleted",
					"outputs": [],
					"payable": true,
					"stateMutability": "payable",
					"type": "function"
				},
				{
					"constant": false,
					"inputs": [
						{
							"internalType": "uint256",
							"name": "_index",
							"type": "uint256"
						}
					],
					"name": "agreementTerminated",
					"outputs": [],
					"payable": false,
					"stateMutability": "nonpayable",
					"type": "function"
				},
				{
					"constant": true,
					"inputs": [],
					"name": "no_of_agreement",
					"outputs": [
						{
							"internalType": "uint256",
							"name": "",
							"type": "uint256"
						}
					],
					"payable": false,
					"stateMutability": "view",
					"type": "function"
				},
				{
					"constant": true,
					"inputs": [],
					"name": "no_of_rent",
					"outputs": [
						{
							"internalType": "uint256",
							"name": "",
							"type": "uint256"
						}
					],
					"payable": false,
					"stateMutability": "view",
					"type": "function"
				},
				{
					"constant": true,
					"inputs": [],
					"name": "no_of_rooms",
					"outputs": [
						{
							"internalType": "uint256",
							"name": "",
							"type": "uint256"
						}
					],
					"payable": false,
					"stateMutability": "view",
					"type": "function"
				},
				{
					"constant": false,
					"inputs": [
						{
							"internalType": "uint256",
							"name": "_index",
							"type": "uint256"
						}
					],
					"name": "payRent",
					"outputs": [],
					"payable": true,
					"stateMutability": "payable",
					"type": "function"
				},
				{
					"constant": false,
					"inputs": [
						{
							"internalType": "uint256",
							"name": "_index",
							"type": "uint256"
						}
					],
					"name": "signAgreement",
					"outputs": [],
					"payable": true,
					"stateMutability": "payable",
					"type": "function"
				}
			],
			"devdoc": {
				"methods": {}
			},
			"evm": {
				"assembly": "    /* \"hotel.sol\":28:5929  contract Hotel{\r... */\n  mstore(0x40, 0x80)\n    /* \"hotel.sol\":139:140  0 */\n  0x00\n    /* \"hotel.sol\":113:140  uint public no_of_rooms = 0 */\n  0x02\n  sstore\n    /* \"hotel.sol\":177:178  0 */\n  0x00\n    /* \"hotel.sol\":147:178  uint public no_of_agreement = 0 */\n  0x03\n  sstore\n    /* \"hotel.sol\":210:211  0 */\n  0x00\n    /* \"hotel.sol\":185:211  uint public no_of_rent = 0 */\n  0x04\n  sstore\n    /* \"hotel.sol\":28:5929  contract Hotel{\r... */\n  callvalue\n    /* \"--CODEGEN--\":8:17   */\n  dup1\n    /* \"--CODEGEN--\":5:7   */\n  iszero\n  tag_1\n  jumpi\n    /* \"--CODEGEN--\":30:31   */\n  0x00\n    /* \"--CODEGEN--\":27:28   */\n  dup1\n    /* \"--CODEGEN--\":20:32   */\n  revert\n    /* \"--CODEGEN--\":5:7   */\ntag_1:\n    /* \"hotel.sol\":28:5929  contract Hotel{\r... */\n  pop\n  dataSize(sub_0)\n  dup1\n  dataOffset(sub_0)\n  0x00\n  codecopy\n  0x00\n  return\nstop\n\nsub_0: assembly {\n        /* \"hotel.sol\":28:5929  contract Hotel{\r... */\n      mstore(0x40, 0x80)\n      jumpi(tag_1, lt(calldatasize, 0x04))\n      shr(0xe0, calldataload(0x00))\n      dup1\n      0x4f5e4428\n      gt\n      tag_13\n      jumpi\n      dup1\n      0x4f5e4428\n      eq\n      tag_7\n      jumpi\n      dup1\n      0x59e2cbec\n      eq\n      tag_8\n      jumpi\n      dup1\n      0x63e475bd\n      eq\n      tag_9\n      jumpi\n      dup1\n      0x75eb9ef6\n      eq\n      tag_10\n      jumpi\n      dup1\n      0xd0d205b7\n      eq\n      tag_11\n      jumpi\n      dup1\n      0xd9e8843f\n      eq\n      tag_12\n      jumpi\n      jump(tag_1)\n    tag_13:\n      dup1\n      0x02bb2725\n      eq\n      tag_2\n      jumpi\n      dup1\n      0x03742de0\n      eq\n      tag_3\n      jumpi\n      dup1\n      0x0ff2a806\n      eq\n      tag_4\n      jumpi\n      dup1\n      0x16abb8a1\n      eq\n      tag_5\n      jumpi\n      dup1\n      0x46959587\n      eq\n      tag_6\n      jumpi\n    tag_1:\n      0x00\n      dup1\n      revert\n        /* \"hotel.sol\":919:976  mapping(uint => RoomAgreement) public RoomAgreement_by_No */\n    tag_2:\n      callvalue\n        /* \"--CODEGEN--\":8:17   */\n      dup1\n        /* \"--CODEGEN--\":5:7   */\n      iszero\n      tag_14\n      jumpi\n        /* \"--CODEGEN--\":30:31   */\n      0x00\n        /* \"--CODEGEN--\":27:28   */\n      dup1\n        /* \"--CODEGEN--\":20:32   */\n      revert\n        /* \"--CODEGEN--\":5:7   */\n    tag_14:\n        /* \"hotel.sol\":919:976  mapping(uint => RoomAgreement) public RoomAgreement_by_No */\n      pop\n      tag_15\n      0x04\n      dup1\n      calldatasize\n      sub\n        /* \"--CODEGEN--\":13:15   */\n      0x20\n        /* \"--CODEGEN--\":8:11   */\n      dup2\n        /* \"--CODEGEN--\":5:16   */\n      lt\n        /* \"--CODEGEN--\":2:4   */\n      iszero\n      tag_16\n      jumpi\n        /* \"--CODEGEN--\":29:30   */\n      0x00\n        /* \"--CODEGEN--\":26:27   */\n      dup1\n        /* \"--CODEGEN--\":19:31   */\n      revert\n        /* \"--CODEGEN--\":2:4   */\n    tag_16:\n      pop\n        /* \"hotel.sol\":919:976  mapping(uint => RoomAgreement) public RoomAgreement_by_No */\n      calldataload\n      tag_17\n      jump\t// in\n    tag_15:\n      mload(0x40)\n      dup1\n      dup12\n      dup2\n      mstore\n      0x20\n      add\n      dup11\n      dup2\n      mstore\n      0x20\n      add\n      dup1\n      0x20\n      add\n      dup1\n      0x20\n      add\n      dup10\n      dup2\n      mstore\n      0x20\n      add\n      dup9\n      dup2\n      mstore\n      0x20\n      add\n      dup8\n      dup2\n      mstore\n      0x20\n      add\n      dup7\n      dup2\n      mstore\n      0x20\n      add\n      dup6\n      sub(shl(0xa0, 0x01), 0x01)\n      and\n      sub(shl(0xa0, 0x01), 0x01)\n      and\n      dup2\n      mstore\n      0x20\n      add\n      dup5\n      sub(shl(0xa0, 0x01), 0x01)\n      and\n      sub(shl(0xa0, 0x01), 0x01)\n      and\n      dup2\n      mstore\n      0x20\n      add\n      dup4\n      dup2\n      sub\n      dup4\n      mstore\n      dup12\n      dup2\n      dup2\n      mload\n      dup2\n      mstore\n      0x20\n      add\n      swap2\n      pop\n      dup1\n      mload\n      swap1\n      0x20\n      add\n      swap1\n      dup1\n      dup4\n      dup4\n        /* \"--CODEGEN--\":23:24   */\n      0x00\n        /* \"--CODEGEN--\":8:108   */\n    tag_18:\n        /* \"--CODEGEN--\":33:36   */\n      dup4\n        /* \"--CODEGEN--\":30:31   */\n      dup2\n        /* \"--CODEGEN--\":27:37   */\n      lt\n        /* \"--CODEGEN--\":8:108   */\n      iszero\n      tag_20\n      jumpi\n        /* \"--CODEGEN--\":90:101   */\n      dup2\n      dup2\n      add\n        /* \"--CODEGEN--\":84:102   */\n      mload\n        /* \"--CODEGEN--\":71:82   */\n      dup4\n      dup3\n      add\n        /* \"--CODEGEN--\":64:103   */\n      mstore\n        /* \"--CODEGEN--\":52:54   */\n      0x20\n        /* \"--CODEGEN--\":45:55   */\n      add\n        /* \"--CODEGEN--\":8:108   */\n      jump(tag_18)\n    tag_20:\n        /* \"--CODEGEN--\":12:26   */\n      pop\n        /* \"hotel.sol\":919:976  mapping(uint => RoomAgreement) public RoomAgreement_by_No */\n      pop\n      pop\n      pop\n      swap1\n      pop\n      swap1\n      dup2\n      add\n      swap1\n      0x1f\n      and\n      dup1\n      iszero\n      tag_21\n      jumpi\n      dup1\n      dup3\n      sub\n      dup1\n      mload\n      0x01\n      dup4\n      0x20\n      sub\n      0x0100\n      exp\n      sub\n      not\n      and\n      dup2\n      mstore\n      0x20\n      add\n      swap2\n      pop\n    tag_21:\n      pop\n      dup4\n      dup2\n      sub\n      dup3\n      mstore\n      dup11\n      mload\n      dup2\n      mstore\n      dup11\n      mload\n      0x20\n      swap2\n      dup3\n      add\n      swap2\n      dup13\n      add\n      swap1\n      dup1\n      dup4\n      dup4\n        /* \"--CODEGEN--\":23:24   */\n      0x00\n        /* \"--CODEGEN--\":8:108   */\n    tag_22:\n        /* \"--CODEGEN--\":33:36   */\n      dup4\n        /* \"--CODEGEN--\":30:31   */\n      dup2\n        /* \"--CODEGEN--\":27:37   */\n      lt\n        /* \"--CODEGEN--\":8:108   */\n      iszero\n      tag_24\n      jumpi\n        /* \"--CODEGEN--\":90:101   */\n      dup2\n      dup2\n      add\n        /* \"--CODEGEN--\":84:102   */\n      mload\n        /* \"--CODEGEN--\":71:82   */\n      dup4\n      dup3\n      add\n        /* \"--CODEGEN--\":64:103   */\n      mstore\n        /* \"--CODEGEN--\":52:54   */\n      0x20\n        /* \"--CODEGEN--\":45:55   */\n      add\n        /* \"--CODEGEN--\":8:108   */\n      jump(tag_22)\n    tag_24:\n        /* \"--CODEGEN--\":12:26   */\n      pop\n        /* \"hotel.sol\":919:976  mapping(uint => RoomAgreement) public RoomAgreement_by_No */\n      pop\n      pop\n      pop\n      swap1\n      pop\n      swap1\n      dup2\n      add\n      swap1\n      0x1f\n      and\n      dup1\n      iszero\n      tag_25\n      jumpi\n      dup1\n      dup3\n      sub\n      dup1\n      mload\n      0x01\n      dup4\n      0x20\n      sub\n      0x0100\n      exp\n      sub\n      not\n      and\n      dup2\n      mstore\n      0x20\n      add\n      swap2\n      pop\n    tag_25:\n      pop\n      swap13\n      pop\n      pop\n      pop\n      pop\n      pop\n      pop\n      pop\n      pop\n      pop\n      pop\n      pop\n      pop\n      pop\n      mload(0x40)\n      dup1\n      swap2\n      sub\n      swap1\n      return\n        /* \"hotel.sol\":3541:4636  function signAgreement(uint _index) public payable notLandLord(_index) enoughAgreementfee(_index) OnlyWhileVacant(_index) {\r... */\n    tag_3:\n      tag_26\n      0x04\n      dup1\n      calldatasize\n      sub\n        /* \"--CODEGEN--\":13:15   */\n      0x20\n        /* \"--CODEGEN--\":8:11   */\n      dup2\n        /* \"--CODEGEN--\":5:16   */\n      lt\n        /* \"--CODEGEN--\":2:4   */\n      iszero\n      tag_27\n      jumpi\n        /* \"--CODEGEN--\":29:30   */\n      0x00\n        /* \"--CODEGEN--\":26:27   */\n      dup1\n        /* \"--CODEGEN--\":19:31   */\n      revert\n        /* \"--CODEGEN--\":2:4   */\n    tag_27:\n      pop\n        /* \"hotel.sol\":3541:4636  function signAgreement(uint _index) public payable notLandLord(_index) enoughAgreementfee(_index) OnlyWhileVacant(_index) {\r... */\n      calldataload\n      tag_28\n      jump\t// in\n    tag_26:\n      stop\n        /* \"hotel.sol\":147:178  uint public no_of_agreement = 0 */\n    tag_4:\n      callvalue\n        /* \"--CODEGEN--\":8:17   */\n      dup1\n        /* \"--CODEGEN--\":5:7   */\n      iszero\n      tag_29\n      jumpi\n        /* \"--CODEGEN--\":30:31   */\n      0x00\n        /* \"--CODEGEN--\":27:28   */\n      dup1\n        /* \"--CODEGEN--\":20:32   */\n      revert\n        /* \"--CODEGEN--\":5:7   */\n    tag_29:\n        /* \"hotel.sol\":147:178  uint public no_of_agreement = 0 */\n      pop\n      tag_30\n      tag_31\n      jump\t// in\n    tag_30:\n      0x40\n      dup1\n      mload\n      swap2\n      dup3\n      mstore\n      mload\n      swap1\n      dup2\n      swap1\n      sub\n      0x20\n      add\n      swap1\n      return\n        /* \"hotel.sol\":5287:5727  function agreementCompleted(uint _index) public payable onlyLandlord(_index) AgreementTimesUp(_index){\r... */\n    tag_5:\n      tag_26\n      0x04\n      dup1\n      calldatasize\n      sub\n        /* \"--CODEGEN--\":13:15   */\n      0x20\n        /* \"--CODEGEN--\":8:11   */\n      dup2\n        /* \"--CODEGEN--\":5:16   */\n      lt\n        /* \"--CODEGEN--\":2:4   */\n      iszero\n      tag_33\n      jumpi\n        /* \"--CODEGEN--\":29:30   */\n      0x00\n        /* \"--CODEGEN--\":26:27   */\n      dup1\n        /* \"--CODEGEN--\":19:31   */\n      revert\n        /* \"--CODEGEN--\":2:4   */\n    tag_33:\n      pop\n        /* \"hotel.sol\":5287:5727  function agreementCompleted(uint _index) public payable onlyLandlord(_index) AgreementTimesUp(_index){\r... */\n      calldataload\n      tag_34\n      jump\t// in\n        /* \"hotel.sol\":534:573  mapping(uint => Room) public Room_by_No */\n    tag_6:\n      callvalue\n        /* \"--CODEGEN--\":8:17   */\n      dup1\n        /* \"--CODEGEN--\":5:7   */\n      iszero\n      tag_35\n      jumpi\n        /* \"--CODEGEN--\":30:31   */\n      0x00\n        /* \"--CODEGEN--\":27:28   */\n      dup1\n        /* \"--CODEGEN--\":20:32   */\n      revert\n        /* \"--CODEGEN--\":5:7   */\n    tag_35:\n        /* \"hotel.sol\":534:573  mapping(uint => Room) public Room_by_No */\n      pop\n      tag_36\n      0x04\n      dup1\n      calldatasize\n      sub\n        /* \"--CODEGEN--\":13:15   */\n      0x20\n        /* \"--CODEGEN--\":8:11   */\n      dup2\n        /* \"--CODEGEN--\":5:16   */\n      lt\n        /* \"--CODEGEN--\":2:4   */\n      iszero\n      tag_37\n      jumpi\n        /* \"--CODEGEN--\":29:30   */\n      0x00\n        /* \"--CODEGEN--\":26:27   */\n      dup1\n        /* \"--CODEGEN--\":19:31   */\n      revert\n        /* \"--CODEGEN--\":2:4   */\n    tag_37:\n      pop\n        /* \"hotel.sol\":534:573  mapping(uint => Room) public Room_by_No */\n      calldataload\n      tag_38\n      jump\t// in\n    tag_36:\n      mload(0x40)\n      dup1\n      dup12\n      dup2\n      mstore\n      0x20\n      add\n      dup11\n      dup2\n      mstore\n      0x20\n      add\n      dup1\n      0x20\n      add\n      dup1\n      0x20\n      add\n      dup10\n      dup2\n      mstore\n      0x20\n      add\n      dup9\n      dup2\n      mstore\n      0x20\n      add\n      dup8\n      dup2\n      mstore\n      0x20\n      add\n      dup7\n      iszero\n      iszero\n      iszero\n      iszero\n      dup2\n      mstore\n      0x20\n      add\n      dup6\n      sub(shl(0xa0, 0x01), 0x01)\n      and\n      sub(shl(0xa0, 0x01), 0x01)\n      and\n      dup2\n      mstore\n      0x20\n      add\n      dup5\n      sub(shl(0xa0, 0x01), 0x01)\n      and\n      sub(shl(0xa0, 0x01), 0x01)\n      and\n      dup2\n      mstore\n      0x20\n      add\n      dup4\n      dup2\n      sub\n      dup4\n      mstore\n      dup12\n      dup2\n      dup2\n      mload\n      dup2\n      mstore\n      0x20\n      add\n      swap2\n      pop\n      dup1\n      mload\n      swap1\n      0x20\n      add\n      swap1\n      dup1\n      dup4\n      dup4\n        /* \"--CODEGEN--\":23:24   */\n      0x00\n        /* \"--CODEGEN--\":33:36   */\n      dup4\n        /* \"--CODEGEN--\":30:31   */\n      dup2\n        /* \"--CODEGEN--\":27:37   */\n      lt\n        /* \"--CODEGEN--\":8:108   */\n      iszero\n      tag_20\n      jumpi\n        /* \"--CODEGEN--\":90:101   */\n      dup2\n      dup2\n      add\n        /* \"--CODEGEN--\":84:102   */\n      mload\n        /* \"--CODEGEN--\":71:82   */\n      dup4\n      dup3\n      add\n        /* \"--CODEGEN--\":64:103   */\n      mstore\n        /* \"--CODEGEN--\":52:54   */\n      0x20\n        /* \"--CODEGEN--\":45:55   */\n      add\n        /* \"--CODEGEN--\":8:108   */\n      jump(tag_18)\n        /* \"hotel.sol\":5735:5926  function agreementTerminated(uint _index) public onlyLandlord(_index) AgreementTimesLeft(_index){\r... */\n    tag_7:\n      callvalue\n        /* \"--CODEGEN--\":8:17   */\n      dup1\n        /* \"--CODEGEN--\":5:7   */\n      iszero\n      tag_47\n      jumpi\n        /* \"--CODEGEN--\":30:31   */\n      0x00\n        /* \"--CODEGEN--\":27:28   */\n      dup1\n        /* \"--CODEGEN--\":20:32   */\n      revert\n        /* \"--CODEGEN--\":5:7   */\n    tag_47:\n        /* \"hotel.sol\":5735:5926  function agreementTerminated(uint _index) public onlyLandlord(_index) AgreementTimesLeft(_index){\r... */\n      pop\n      tag_26\n      0x04\n      dup1\n      calldatasize\n      sub\n        /* \"--CODEGEN--\":13:15   */\n      0x20\n        /* \"--CODEGEN--\":8:11   */\n      dup2\n        /* \"--CODEGEN--\":5:16   */\n      lt\n        /* \"--CODEGEN--\":2:4   */\n      iszero\n      tag_49\n      jumpi\n        /* \"--CODEGEN--\":29:30   */\n      0x00\n        /* \"--CODEGEN--\":26:27   */\n      dup1\n        /* \"--CODEGEN--\":19:31   */\n      revert\n        /* \"--CODEGEN--\":2:4   */\n    tag_49:\n      pop\n        /* \"hotel.sol\":5735:5926  function agreementTerminated(uint _index) public onlyLandlord(_index) AgreementTimesLeft(_index){\r... */\n      calldataload\n      tag_50\n      jump\t// in\n        /* \"hotel.sol\":113:140  uint public no_of_rooms = 0 */\n    tag_8:\n      callvalue\n        /* \"--CODEGEN--\":8:17   */\n      dup1\n        /* \"--CODEGEN--\":5:7   */\n      iszero\n      tag_51\n      jumpi\n        /* \"--CODEGEN--\":30:31   */\n      0x00\n        /* \"--CODEGEN--\":27:28   */\n      dup1\n        /* \"--CODEGEN--\":20:32   */\n      revert\n        /* \"--CODEGEN--\":5:7   */\n    tag_51:\n        /* \"hotel.sol\":113:140  uint public no_of_rooms = 0 */\n      pop\n      tag_30\n      tag_53\n      jump\t// in\n        /* \"hotel.sol\":3155:3533  function addRoom(string memory _roomname, string memory _roomaddress, uint _rentcost, uint  _securitydeposit) public {\r... */\n    tag_9:\n      callvalue\n        /* \"--CODEGEN--\":8:17   */\n      dup1\n        /* \"--CODEGEN--\":5:7   */\n      iszero\n      tag_54\n      jumpi\n        /* \"--CODEGEN--\":30:31   */\n      0x00\n        /* \"--CODEGEN--\":27:28   */\n      dup1\n        /* \"--CODEGEN--\":20:32   */\n      revert\n        /* \"--CODEGEN--\":5:7   */\n    tag_54:\n        /* \"hotel.sol\":3155:3533  function addRoom(string memory _roomname, string memory _roomaddress, uint _rentcost, uint  _securitydeposit) public {\r... */\n      pop\n      tag_26\n      0x04\n      dup1\n      calldatasize\n      sub\n        /* \"--CODEGEN--\":13:16   */\n      0x80\n        /* \"--CODEGEN--\":8:11   */\n      dup2\n        /* \"--CODEGEN--\":5:17   */\n      lt\n        /* \"--CODEGEN--\":2:4   */\n      iszero\n      tag_56\n      jumpi\n        /* \"--CODEGEN--\":30:31   */\n      0x00\n        /* \"--CODEGEN--\":27:28   */\n      dup1\n        /* \"--CODEGEN--\":20:32   */\n      revert\n        /* \"--CODEGEN--\":2:4   */\n    tag_56:\n        /* \"hotel.sol\":3155:3533  function addRoom(string memory _roomname, string memory _roomaddress, uint _rentcost, uint  _securitydeposit) public {\r... */\n      dup2\n      add\n      swap1\n      0x20\n      dup2\n      add\n      dup2\n      calldataload\n        /* \"--CODEGEN--\":21:32   */\n      0x0100000000\n        /* \"--CODEGEN--\":5:33   */\n      dup2\n      gt\n        /* \"--CODEGEN--\":2:4   */\n      iszero\n      tag_57\n      jumpi\n        /* \"--CODEGEN--\":46:47   */\n      0x00\n        /* \"--CODEGEN--\":43:44   */\n      dup1\n        /* \"--CODEGEN--\":36:48   */\n      revert\n        /* \"--CODEGEN--\":2:4   */\n    tag_57:\n        /* \"hotel.sol\":3155:3533  function addRoom(string memory _roomname, string memory _roomaddress, uint _rentcost, uint  _securitydeposit) public {\r... */\n      dup3\n      add\n        /* \"--CODEGEN--\":35:44   */\n      dup4\n        /* \"--CODEGEN--\":28:32   */\n      0x20\n        /* \"--CODEGEN--\":12:26   */\n      dup3\n        /* \"--CODEGEN--\":8:33   */\n      add\n        /* \"--CODEGEN--\":5:45   */\n      gt\n        /* \"--CODEGEN--\":2:4   */\n      iszero\n      tag_58\n      jumpi\n        /* \"--CODEGEN--\":58:59   */\n      0x00\n        /* \"--CODEGEN--\":55:56   */\n      dup1\n        /* \"--CODEGEN--\":48:60   */\n      revert\n        /* \"--CODEGEN--\":2:4   */\n    tag_58:\n        /* \"hotel.sol\":3155:3533  function addRoom(string memory _roomname, string memory _roomaddress, uint _rentcost, uint  _securitydeposit) public {\r... */\n      dup1\n      calldataload\n      swap1\n      0x20\n      add\n      swap2\n        /* \"--CODEGEN--\":100:109   */\n      dup5\n        /* \"--CODEGEN--\":95:96   */\n      0x01\n        /* \"--CODEGEN--\":81:93   */\n      dup4\n        /* \"--CODEGEN--\":77:97   */\n      mul\n        /* \"--CODEGEN--\":67:75   */\n      dup5\n        /* \"--CODEGEN--\":63:98   */\n      add\n        /* \"--CODEGEN--\":60:110   */\n      gt\n        /* \"--CODEGEN--\":39:50   */\n      0x0100000000\n        /* \"--CODEGEN--\":25:37   */\n      dup4\n        /* \"--CODEGEN--\":22:51   */\n      gt\n        /* \"--CODEGEN--\":11:118   */\n      or\n        /* \"--CODEGEN--\":8:10   */\n      iszero\n      tag_59\n      jumpi\n        /* \"--CODEGEN--\":131:132   */\n      0x00\n        /* \"--CODEGEN--\":128:129   */\n      dup1\n        /* \"--CODEGEN--\":121:133   */\n      revert\n        /* \"--CODEGEN--\":8:10   */\n    tag_59:\n        /* \"hotel.sol\":3155:3533  function addRoom(string memory _roomname, string memory _roomaddress, uint _rentcost, uint  _securitydeposit) public {\r... */\n      swap2\n      swap1\n      dup1\n      dup1\n      0x1f\n      add\n      0x20\n      dup1\n      swap2\n      div\n      mul\n      0x20\n      add\n      mload(0x40)\n      swap1\n      dup2\n      add\n      0x40\n      mstore\n      dup1\n      swap4\n      swap3\n      swap2\n      swap1\n      dup2\n      dup2\n      mstore\n      0x20\n      add\n      dup4\n      dup4\n        /* \"--CODEGEN--\":30:33   */\n      dup1\n        /* \"--CODEGEN--\":22:28   */\n      dup3\n        /* \"--CODEGEN--\":14:20   */\n      dup5\n        /* \"--CODEGEN--\":1:34   */\n      calldatacopy\n        /* \"--CODEGEN--\":99:100   */\n      0x00\n        /* \"--CODEGEN--\":81:97   */\n      swap3\n      add\n        /* \"--CODEGEN--\":74:101   */\n      swap2\n      swap1\n      swap2\n      mstore\n      pop\n        /* \"hotel.sol\":3155:3533  function addRoom(string memory _roomname, string memory _roomaddress, uint _rentcost, uint  _securitydeposit) public {\r... */\n      swap3\n      swap6\n      swap5\n      swap4\n      0x20\n      dup2\n      add\n      swap4\n      pop\n      calldataload\n      swap2\n      pop\n      pop\n        /* \"--CODEGEN--\":21:32   */\n      0x0100000000\n        /* \"--CODEGEN--\":5:33   */\n      dup2\n      gt\n        /* \"--CODEGEN--\":2:4   */\n      iszero\n      tag_60\n      jumpi\n        /* \"--CODEGEN--\":46:47   */\n      0x00\n        /* \"--CODEGEN--\":43:44   */\n      dup1\n        /* \"--CODEGEN--\":36:48   */\n      revert\n        /* \"--CODEGEN--\":2:4   */\n    tag_60:\n        /* \"hotel.sol\":3155:3533  function addRoom(string memory _roomname, string memory _roomaddress, uint _rentcost, uint  _securitydeposit) public {\r... */\n      dup3\n      add\n        /* \"--CODEGEN--\":35:44   */\n      dup4\n        /* \"--CODEGEN--\":28:32   */\n      0x20\n        /* \"--CODEGEN--\":12:26   */\n      dup3\n        /* \"--CODEGEN--\":8:33   */\n      add\n        /* \"--CODEGEN--\":5:45   */\n      gt\n        /* \"--CODEGEN--\":2:4   */\n      iszero\n      tag_61\n      jumpi\n        /* \"--CODEGEN--\":58:59   */\n      0x00\n        /* \"--CODEGEN--\":55:56   */\n      dup1\n        /* \"--CODEGEN--\":48:60   */\n      revert\n        /* \"--CODEGEN--\":2:4   */\n    tag_61:\n        /* \"hotel.sol\":3155:3533  function addRoom(string memory _roomname, string memory _roomaddress, uint _rentcost, uint  _securitydeposit) public {\r... */\n      dup1\n      calldataload\n      swap1\n      0x20\n      add\n      swap2\n        /* \"--CODEGEN--\":100:109   */\n      dup5\n        /* \"--CODEGEN--\":95:96   */\n      0x01\n        /* \"--CODEGEN--\":81:93   */\n      dup4\n        /* \"--CODEGEN--\":77:97   */\n      mul\n        /* \"--CODEGEN--\":67:75   */\n      dup5\n        /* \"--CODEGEN--\":63:98   */\n      add\n        /* \"--CODEGEN--\":60:110   */\n      gt\n        /* \"--CODEGEN--\":39:50   */\n      0x0100000000\n        /* \"--CODEGEN--\":25:37   */\n      dup4\n        /* \"--CODEGEN--\":22:51   */\n      gt\n        /* \"--CODEGEN--\":11:118   */\n      or\n        /* \"--CODEGEN--\":8:10   */\n      iszero\n      tag_62\n      jumpi\n        /* \"--CODEGEN--\":131:132   */\n      0x00\n        /* \"--CODEGEN--\":128:129   */\n      dup1\n        /* \"--CODEGEN--\":121:133   */\n      revert\n        /* \"--CODEGEN--\":8:10   */\n    tag_62:\n        /* \"hotel.sol\":3155:3533  function addRoom(string memory _roomname, string memory _roomaddress, uint _rentcost, uint  _securitydeposit) public {\r... */\n      swap2\n      swap1\n      dup1\n      dup1\n      0x1f\n      add\n      0x20\n      dup1\n      swap2\n      div\n      mul\n      0x20\n      add\n      mload(0x40)\n      swap1\n      dup2\n      add\n      0x40\n      mstore\n      dup1\n      swap4\n      swap3\n      swap2\n      swap1\n      dup2\n      dup2\n      mstore\n      0x20\n      add\n      dup4\n      dup4\n        /* \"--CODEGEN--\":30:33   */\n      dup1\n        /* \"--CODEGEN--\":22:28   */\n      dup3\n        /* \"--CODEGEN--\":14:20   */\n      dup5\n        /* \"--CODEGEN--\":1:34   */\n      calldatacopy\n        /* \"--CODEGEN--\":99:100   */\n      0x00\n        /* \"--CODEGEN--\":81:97   */\n      swap3\n      add\n        /* \"--CODEGEN--\":74:101   */\n      swap2\n      swap1\n      swap2\n      mstore\n      pop\n        /* \"hotel.sol\":3155:3533  function addRoom(string memory _roomname, string memory _roomaddress, uint _rentcost, uint  _securitydeposit) public {\r... */\n      swap3\n      swap6\n      pop\n      pop\n      dup3\n      calldataload\n      swap4\n      pop\n      pop\n      pop\n      0x20\n      add\n      calldataload\n      tag_63\n      jump\t// in\n        /* \"hotel.sol\":185:211  uint public no_of_rent = 0 */\n    tag_10:\n      callvalue\n        /* \"--CODEGEN--\":8:17   */\n      dup1\n        /* \"--CODEGEN--\":5:7   */\n      iszero\n      tag_64\n      jumpi\n        /* \"--CODEGEN--\":30:31   */\n      0x00\n        /* \"--CODEGEN--\":27:28   */\n      dup1\n        /* \"--CODEGEN--\":20:32   */\n      revert\n        /* \"--CODEGEN--\":5:7   */\n    tag_64:\n        /* \"hotel.sol\":185:211  uint public no_of_rent = 0 */\n      pop\n      tag_30\n      tag_66\n      jump\t// in\n        /* \"hotel.sol\":1275:1314  mapping(uint => Rent) public Rent_by_No */\n    tag_11:\n      callvalue\n        /* \"--CODEGEN--\":8:17   */\n      dup1\n        /* \"--CODEGEN--\":5:7   */\n      iszero\n      tag_67\n      jumpi\n        /* \"--CODEGEN--\":30:31   */\n      0x00\n        /* \"--CODEGEN--\":27:28   */\n      dup1\n        /* \"--CODEGEN--\":20:32   */\n      revert\n        /* \"--CODEGEN--\":5:7   */\n    tag_67:\n        /* \"hotel.sol\":1275:1314  mapping(uint => Rent) public Rent_by_No */\n      pop\n      tag_68\n      0x04\n      dup1\n      calldatasize\n      sub\n        /* \"--CODEGEN--\":13:15   */\n      0x20\n        /* \"--CODEGEN--\":8:11   */\n      dup2\n        /* \"--CODEGEN--\":5:16   */\n      lt\n        /* \"--CODEGEN--\":2:4   */\n      iszero\n      tag_69\n      jumpi\n        /* \"--CODEGEN--\":29:30   */\n      0x00\n        /* \"--CODEGEN--\":26:27   */\n      dup1\n        /* \"--CODEGEN--\":19:31   */\n      revert\n        /* \"--CODEGEN--\":2:4   */\n    tag_69:\n      pop\n        /* \"hotel.sol\":1275:1314  mapping(uint => Rent) public Rent_by_No */\n      calldataload\n      tag_70\n      jump\t// in\n    tag_68:\n      mload(0x40)\n      dup1\n      dup11\n      dup2\n      mstore\n      0x20\n      add\n      dup10\n      dup2\n      mstore\n      0x20\n      add\n      dup9\n      dup2\n      mstore\n      0x20\n      add\n      dup1\n      0x20\n      add\n      dup1\n      0x20\n      add\n      dup8\n      dup2\n      mstore\n      0x20\n      add\n      dup7\n      dup2\n      mstore\n      0x20\n      add\n      dup6\n      sub(shl(0xa0, 0x01), 0x01)\n      and\n      sub(shl(0xa0, 0x01), 0x01)\n      and\n      dup2\n      mstore\n      0x20\n      add\n      dup5\n      sub(shl(0xa0, 0x01), 0x01)\n      and\n      sub(shl(0xa0, 0x01), 0x01)\n      and\n      dup2\n      mstore\n      0x20\n      add\n      dup4\n      dup2\n      sub\n      dup4\n      mstore\n      dup10\n      dup2\n      dup2\n      mload\n      dup2\n      mstore\n      0x20\n      add\n      swap2\n      pop\n      dup1\n      mload\n      swap1\n      0x20\n      add\n      swap1\n      dup1\n      dup4\n      dup4\n        /* \"--CODEGEN--\":23:24   */\n      0x00\n        /* \"--CODEGEN--\":8:108   */\n    tag_71:\n        /* \"--CODEGEN--\":33:36   */\n      dup4\n        /* \"--CODEGEN--\":30:31   */\n      dup2\n        /* \"--CODEGEN--\":27:37   */\n      lt\n        /* \"--CODEGEN--\":8:108   */\n      iszero\n      tag_73\n      jumpi\n        /* \"--CODEGEN--\":90:101   */\n      dup2\n      dup2\n      add\n        /* \"--CODEGEN--\":84:102   */\n      mload\n        /* \"--CODEGEN--\":71:82   */\n      dup4\n      dup3\n      add\n        /* \"--CODEGEN--\":64:103   */\n      mstore\n        /* \"--CODEGEN--\":52:54   */\n      0x20\n        /* \"--CODEGEN--\":45:55   */\n      add\n        /* \"--CODEGEN--\":8:108   */\n      jump(tag_71)\n    tag_73:\n        /* \"--CODEGEN--\":12:26   */\n      pop\n        /* \"hotel.sol\":1275:1314  mapping(uint => Rent) public Rent_by_No */\n      pop\n      pop\n      pop\n      swap1\n      pop\n      swap1\n      dup2\n      add\n      swap1\n      0x1f\n      and\n      dup1\n      iszero\n      tag_74\n      jumpi\n      dup1\n      dup3\n      sub\n      dup1\n      mload\n      0x01\n      dup4\n      0x20\n      sub\n      0x0100\n      exp\n      sub\n      not\n      and\n      dup2\n      mstore\n      0x20\n      add\n      swap2\n      pop\n    tag_74:\n      pop\n      dup4\n      dup2\n      sub\n      dup3\n      mstore\n      dup9\n      mload\n      dup2\n      mstore\n      dup9\n      mload\n      0x20\n      swap2\n      dup3\n      add\n      swap2\n      dup11\n      add\n      swap1\n      dup1\n      dup4\n      dup4\n        /* \"--CODEGEN--\":23:24   */\n      0x00\n        /* \"--CODEGEN--\":8:108   */\n    tag_75:\n        /* \"--CODEGEN--\":33:36   */\n      dup4\n        /* \"--CODEGEN--\":30:31   */\n      dup2\n        /* \"--CODEGEN--\":27:37   */\n      lt\n        /* \"--CODEGEN--\":8:108   */\n      iszero\n      tag_77\n      jumpi\n        /* \"--CODEGEN--\":90:101   */\n      dup2\n      dup2\n      add\n        /* \"--CODEGEN--\":84:102   */\n      mload\n        /* \"--CODEGEN--\":71:82   */\n      dup4\n      dup3\n      add\n        /* \"--CODEGEN--\":64:103   */\n      mstore\n        /* \"--CODEGEN--\":52:54   */\n      0x20\n        /* \"--CODEGEN--\":45:55   */\n      add\n        /* \"--CODEGEN--\":8:108   */\n      jump(tag_75)\n    tag_77:\n        /* \"--CODEGEN--\":12:26   */\n      pop\n        /* \"hotel.sol\":1275:1314  mapping(uint => Rent) public Rent_by_No */\n      pop\n      pop\n      pop\n      swap1\n      pop\n      swap1\n      dup2\n      add\n      swap1\n      0x1f\n      and\n      dup1\n      iszero\n      tag_78\n      jumpi\n      dup1\n      dup3\n      sub\n      dup1\n      mload\n      0x01\n      dup4\n      0x20\n      sub\n      0x0100\n      exp\n      sub\n      not\n      and\n      dup2\n      mstore\n      0x20\n      add\n      swap2\n      pop\n    tag_78:\n      pop\n      swap12\n      pop\n      pop\n      pop\n      pop\n      pop\n      pop\n      pop\n      pop\n      pop\n      pop\n      pop\n      pop\n      mload(0x40)\n      dup1\n      swap2\n      sub\n      swap1\n      return\n        /* \"hotel.sol\":4645:5279  function payRent(uint _index) public payable sameTenant(_index) RentTimesUp(_index) enoughRent(_index){\r... */\n    tag_12:\n      tag_26\n      0x04\n      dup1\n      calldatasize\n      sub\n        /* \"--CODEGEN--\":13:15   */\n      0x20\n        /* \"--CODEGEN--\":8:11   */\n      dup2\n        /* \"--CODEGEN--\":5:16   */\n      lt\n        /* \"--CODEGEN--\":2:4   */\n      iszero\n      tag_80\n      jumpi\n        /* \"--CODEGEN--\":29:30   */\n      0x00\n        /* \"--CODEGEN--\":26:27   */\n      dup1\n        /* \"--CODEGEN--\":19:31   */\n      revert\n        /* \"--CODEGEN--\":2:4   */\n    tag_80:\n      pop\n        /* \"hotel.sol\":4645:5279  function payRent(uint _index) public payable sameTenant(_index) RentTimesUp(_index) enoughRent(_index){\r... */\n      calldataload\n      tag_81\n      jump\t// in\n        /* \"hotel.sol\":919:976  mapping(uint => RoomAgreement) public RoomAgreement_by_No */\n    tag_17:\n      0x06\n      0x20\n      swap1\n      dup2\n      mstore\n      0x00\n      swap2\n      dup3\n      mstore\n      0x40\n      swap2\n      dup3\n      swap1\n      keccak256\n      dup1\n      sload\n      0x01\n      dup1\n      dup4\n      add\n      sload\n      0x02\n      dup1\n      dup6\n      add\n      dup1\n      sload\n      dup9\n      mload\n      swap5\n      dup2\n      and\n      iszero\n      0x0100\n      mul\n      not(0x00)\n      add\n      and\n      swap2\n      swap1\n      swap2\n      div\n      0x1f\n      dup2\n      add\n      dup8\n      swap1\n      div\n      dup8\n      mul\n      dup5\n      add\n      dup8\n      add\n      swap1\n      swap8\n      mstore\n      dup7\n      dup4\n      mstore\n      swap3\n      swap6\n      swap1\n      swap5\n      swap2\n      swap3\n      swap2\n      dup4\n      add\n      dup3\n      dup3\n      dup1\n      iszero\n      tag_82\n      jumpi\n      dup1\n      0x1f\n      lt\n      tag_83\n      jumpi\n      0x0100\n      dup1\n      dup4\n      sload\n      div\n      mul\n      dup4\n      mstore\n      swap2\n      0x20\n      add\n      swap2\n      jump(tag_82)\n    tag_83:\n      dup3\n      add\n      swap2\n      swap1\n      0x00\n      mstore\n      keccak256(0x00, 0x20)\n      swap1\n    tag_84:\n      dup2\n      sload\n      dup2\n      mstore\n      swap1\n      0x01\n      add\n      swap1\n      0x20\n      add\n      dup1\n      dup4\n      gt\n      tag_84\n      jumpi\n      dup3\n      swap1\n      sub\n      0x1f\n      and\n      dup3\n      add\n      swap2\n    tag_82:\n      pop\n      pop\n      pop\n      pop\n      0x03\n      dup4\n      add\n      dup1\n      sload\n      0x40\n      dup1\n      mload\n      0x20\n      0x02\n      0x01\n      dup6\n      and\n      iszero\n      0x0100\n      mul\n      not(0x00)\n      add\n      swap1\n      swap5\n      and\n      swap4\n      swap1\n      swap4\n      div\n      0x1f\n      dup2\n      add\n      dup5\n      swap1\n      div\n      dup5\n      mul\n      dup3\n      add\n      dup5\n      add\n      swap1\n      swap3\n      mstore\n      dup2\n      dup2\n      mstore\n      swap5\n      swap6\n      swap5\n      swap4\n      pop\n      swap1\n      dup4\n      add\n      dup3\n      dup3\n      dup1\n      iszero\n      tag_85\n      jumpi\n      dup1\n      0x1f\n      lt\n      tag_86\n      jumpi\n      0x0100\n      dup1\n      dup4\n      sload\n      div\n      mul\n      dup4\n      mstore\n      swap2\n      0x20\n      add\n      swap2\n      jump(tag_85)\n    tag_86:\n      dup3\n      add\n      swap2\n      swap1\n      0x00\n      mstore\n      keccak256(0x00, 0x20)\n      swap1\n    tag_87:\n      dup2\n      sload\n      dup2\n      mstore\n      swap1\n      0x01\n      add\n      swap1\n      0x20\n      add\n      dup1\n      dup4\n      gt\n      tag_87\n      jumpi\n      dup3\n      swap1\n      sub\n      0x1f\n      and\n      dup3\n      add\n      swap2\n    tag_85:\n      pop\n      pop\n      pop\n      0x04\n      dup5\n      add\n      sload\n      0x05\n      dup6\n      add\n      sload\n      0x06\n      dup7\n      add\n      sload\n      0x07\n      dup8\n      add\n      sload\n      0x08\n      dup9\n      add\n      sload\n      0x09\n      swap1\n      swap9\n      add\n      sload\n      swap7\n      swap8\n      swap4\n      swap7\n      swap3\n      swap6\n      pop\n      swap1\n      swap4\n      pop\n      swap2\n      sub(shl(0xa0, 0x01), 0x01)\n      swap1\n      dup2\n      and\n      swap2\n      and\n      dup11\n      jump\t// out\n        /* \"hotel.sol\":3541:4636  function signAgreement(uint _index) public payable notLandLord(_index) enoughAgreementfee(_index) OnlyWhileVacant(_index) {\r... */\n    tag_28:\n        /* \"hotel.sol\":1548:1566  Room_by_No[_index] */\n      0x00\n      dup2\n      dup2\n      mstore\n        /* \"hotel.sol\":1548:1558  Room_by_No */\n      0x05\n        /* \"hotel.sol\":1548:1566  Room_by_No[_index] */\n      0x20\n      mstore\n      0x40\n      swap1\n      keccak256\n        /* \"hotel.sol\":1548:1575  Room_by_No[_index].landlord */\n      0x07\n      add\n      sload\n        /* \"hotel.sol\":1548:1566  Room_by_No[_index] */\n      dup2\n      swap1\n        /* \"hotel.sol\":1548:1575  Room_by_No[_index].landlord */\n      0x0100\n      swap1\n      div\n      sub(shl(0xa0, 0x01), 0x01)\n      and\n        /* \"hotel.sol\":1534:1544  msg.sender */\n      caller\n        /* \"hotel.sol\":1534:1575  msg.sender != Room_by_No[_index].landlord */\n      eq\n      iszero\n        /* \"hotel.sol\":1526:1609  require(msg.sender != Room_by_No[_index].landlord, \"Only landlord can access this\") */\n      tag_89\n      jumpi\n      0x40\n      dup1\n      mload\n      shl(0xe5, 0x461bcd)\n      dup2\n      mstore\n      0x20\n      0x04\n      dup3\n      add\n      mstore\n      0x1d\n      0x24\n      dup3\n      add\n      mstore\n      0x4f6e6c79206c616e646c6f72642063616e206163636573732074686973000000\n      0x44\n      dup3\n      add\n      mstore\n      swap1\n      mload\n      swap1\n      dup2\n      swap1\n      sub\n      0x64\n      add\n      swap1\n      revert\n    tag_89:\n        /* \"hotel.sol\":2095:2113  Room_by_No[_index] */\n      0x00\n      dup3\n      dup2\n      mstore\n        /* \"hotel.sol\":2095:2105  Room_by_No */\n      0x05\n        /* \"hotel.sol\":2095:2113  Room_by_No[_index] */\n      0x20\n      dup2\n      swap1\n      mstore\n      0x40\n      swap1\n      swap2\n      keccak256\n        /* \"hotel.sol\":2095:2129  Room_by_No[_index].securityDeposit */\n      swap1\n      dup2\n      add\n      sload\n        /* \"hotel.sol\":2053:2086  Room_by_No[_index].rent_per_month */\n      0x04\n      swap1\n      swap2\n      add\n      sload\n        /* \"hotel.sol\":3631:3637  _index */\n      dup4\n      swap2\n        /* \"hotel.sol\":2048:2130  uint(Room_by_No[_index].rent_per_month) + uint(Room_by_No[_index].securityDeposit) */\n      add\n        /* \"hotel.sol\":2030:2039  msg.value */\n      callvalue\n        /* \"hotel.sol\":2030:2131  msg.value >= uint(uint(Room_by_No[_index].rent_per_month) + uint(Room_by_No[_index].securityDeposit)) */\n      lt\n      iszero\n        /* \"hotel.sol\":2022:2167  require(msg.value >= uint(uint(Room_by_No[_index].rent_per_month) + uint(Room_by_No[_index].securityDeposit)), \"Not enough Ether in your wallet\") */\n      tag_91\n      jumpi\n      0x40\n      dup1\n      mload\n      shl(0xe5, 0x461bcd)\n      dup2\n      mstore\n      0x20\n      0x04\n      dup3\n      add\n      mstore\n      0x1f\n      0x24\n      dup3\n      add\n      mstore\n      0x4e6f7420656e6f75676820457468657220696e20796f75722077616c6c657400\n      0x44\n      dup3\n      add\n      mstore\n      swap1\n      mload\n      swap1\n      dup2\n      swap1\n      sub\n      0x64\n      add\n      swap1\n      revert\n    tag_91:\n        /* \"hotel.sol\":1705:1723  Room_by_No[_index] */\n      0x00\n      dup4\n      dup2\n      mstore\n        /* \"hotel.sol\":1705:1715  Room_by_No */\n      0x05\n        /* \"hotel.sol\":1705:1723  Room_by_No[_index] */\n      0x20\n      mstore\n      0x40\n      swap1\n      keccak256\n        /* \"hotel.sol\":1705:1730  Room_by_No[_index].vacant */\n      0x07\n      add\n      sload\n        /* \"hotel.sol\":3655:3661  _index */\n      dup4\n      swap1\n        /* \"hotel.sol\":1705:1730  Room_by_No[_index].vacant */\n      0xff\n      and\n        /* \"hotel.sol\":1705:1738  Room_by_No[_index].vacant == true */\n      iszero\n      iszero\n        /* \"hotel.sol\":1705:1730  Room_by_No[_index].vacant */\n      0x01\n        /* \"hotel.sol\":1705:1738  Room_by_No[_index].vacant == true */\n      eq\n        /* \"hotel.sol\":1697:1770  require(Room_by_No[_index].vacant == true, \"Room is currently Occupied.\") */\n      tag_93\n      jumpi\n      0x40\n      dup1\n      mload\n      shl(0xe5, 0x461bcd)\n      dup2\n      mstore\n      0x20\n      0x04\n      dup3\n      add\n      mstore\n      0x1b\n      0x24\n      dup3\n      add\n      mstore\n      0x526f6f6d2069732063757272656e746c79204f636375706965642e0000000000\n      0x44\n      dup3\n      add\n      mstore\n      swap1\n      mload\n      swap1\n      dup2\n      swap1\n      sub\n      0x64\n      add\n      swap1\n      revert\n    tag_93:\n        /* \"hotel.sol\":3682:3692  msg.sender */\n      caller\n        /* \"hotel.sol\":3674:3707  require(msg.sender != address(0)) */\n      tag_95\n      jumpi\n      0x00\n      dup1\n      revert\n    tag_95:\n        /* \"hotel.sol\":3718:3743  address payable _landlord */\n      0x00\n        /* \"hotel.sol\":3746:3764  Room_by_No[_index] */\n      dup5\n      dup2\n      mstore\n        /* \"hotel.sol\":3746:3756  Room_by_No */\n      0x05\n        /* \"hotel.sol\":3746:3764  Room_by_No[_index] */\n      0x20\n      dup2\n      swap1\n      mstore\n      0x40\n      dup1\n      dup4\n      keccak256\n        /* \"hotel.sol\":3746:3773  Room_by_No[_index].landlord */\n      0x07\n      dup2\n      add\n      sload\n        /* \"hotel.sol\":3836:3870  Room_by_No[_index].securityDeposit */\n      swap3\n      dup2\n      add\n      sload\n        /* \"hotel.sol\":3800:3833  Room_by_No[_index].rent_per_month */\n      0x04\n      swap1\n      swap2\n      add\n      sload\n        /* \"hotel.sol\":3881:3909  _landlord.transfer(totalfee) */\n      swap2\n      mload\n        /* \"hotel.sol\":3746:3773  Room_by_No[_index].landlord */\n      0x0100\n      swap1\n      swap4\n      div\n      sub(shl(0xa0, 0x01), 0x01)\n      and\n      swap4\n        /* \"hotel.sol\":3800:3870  Room_by_No[_index].rent_per_month + Room_by_No[_index].securityDeposit */\n      swap2\n      add\n      swap2\n        /* \"hotel.sol\":3746:3773  Room_by_No[_index].landlord */\n      dup4\n      swap2\n        /* \"hotel.sol\":3881:3909  _landlord.transfer(totalfee) */\n      0x08fc\n      dup5\n      iszero\n      mul\n      swap2\n        /* \"hotel.sol\":3800:3870  Room_by_No[_index].rent_per_month + Room_by_No[_index].securityDeposit */\n      dup5\n      swap2\n        /* \"hotel.sol\":3881:3909  _landlord.transfer(totalfee) */\n      dup2\n        /* \"hotel.sol\":3718:3743  address payable _landlord */\n      dup2\n        /* \"hotel.sol\":3881:3909  _landlord.transfer(totalfee) */\n      dup2\n        /* \"hotel.sol\":3800:3870  Room_by_No[_index].rent_per_month + Room_by_No[_index].securityDeposit */\n      dup6\n        /* \"hotel.sol\":3746:3773  Room_by_No[_index].landlord */\n      dup9\n        /* \"hotel.sol\":3881:3909  _landlord.transfer(totalfee) */\n      dup9\n      call\n      swap4\n      pop\n      pop\n      pop\n      pop\n      iszero\n        /* \"--CODEGEN--\":8:17   */\n      dup1\n        /* \"--CODEGEN--\":5:7   */\n      iszero\n      tag_96\n      jumpi\n        /* \"--CODEGEN--\":45:61   */\n      returndatasize\n        /* \"--CODEGEN--\":42:43   */\n      0x00\n        /* \"--CODEGEN--\":39:40   */\n      dup1\n        /* \"--CODEGEN--\":24:62   */\n      returndatacopy\n        /* \"--CODEGEN--\":77:93   */\n      returndatasize\n        /* \"--CODEGEN--\":74:75   */\n      0x00\n        /* \"--CODEGEN--\":67:94   */\n      revert\n        /* \"--CODEGEN--\":5:7   */\n    tag_96:\n      pop\n        /* \"hotel.sol\":3920:3935  no_of_agreement */\n      0x03\n        /* \"hotel.sol\":3920:3937  no_of_agreement++ */\n      dup1\n      sload\n      0x01\n      swap1\n      dup2\n      add\n      dup3\n      sstore\n        /* \"hotel.sol\":3920:3935  no_of_agreement */\n      0x00\n        /* \"hotel.sol\":3948:3966  Room_by_No[_index] */\n      dup9\n      dup2\n      mstore\n        /* \"hotel.sol\":3948:3958  Room_by_No */\n      0x05\n        /* \"hotel.sol\":3948:3966  Room_by_No[_index] */\n      0x20\n      dup2\n      dup2\n      mstore\n      0x40\n      dup1\n      dup5\n      keccak256\n        /* \"hotel.sol\":3948:3980  Room_by_No[_index].currentTenant */\n      0x08\n      dup2\n      add\n        /* \"hotel.sol\":3948:3993  Room_by_No[_index].currentTenant = msg.sender */\n      dup1\n      sload\n      not(sub(shl(0xa0, 0x01), 0x01))\n      and\n        /* \"hotel.sol\":3983:3993  msg.sender */\n      caller\n        /* \"hotel.sol\":3948:3993  Room_by_No[_index].currentTenant = msg.sender */\n      or\n      swap1\n      sstore\n        /* \"hotel.sol\":4004:4029  Room_by_No[_index].vacant */\n      0x07\n      dup2\n      add\n        /* \"hotel.sol\":4004:4037  Room_by_No[_index].vacant = false */\n      dup1\n      sload\n      not(0xff)\n      and\n      swap1\n      sstore\n        /* \"hotel.sol\":4079:4094  block.timestamp */\n      timestamp\n        /* \"hotel.sol\":4048:4076  Room_by_No[_index].timestamp */\n      0x06\n      dup3\n      add\n        /* \"hotel.sol\":4048:4094  Room_by_No[_index].timestamp = block.timestamp */\n      sstore\n        /* \"hotel.sol\":4138:4153  no_of_agreement */\n      swap6\n      sload\n        /* \"hotel.sol\":4105:4135  Room_by_No[_index].agreementid */\n      dup7\n      dup7\n      add\n        /* \"hotel.sol\":4105:4153  Room_by_No[_index].agreementid = no_of_agreement */\n      dup2\n      swap1\n      sstore\n        /* \"hotel.sol\":4201:4412  RoomAgreement(_index,no_of_agreement,Room_by_No[_index].roomname,Room_by_No[_index].roomaddress,Room_by_No[_index].rent_per_month,Room_by_No[_index].securityDeposit,365 days,block.timestamp,msg.sender,_landlord) */\n      dup2\n      mload\n      0x0140\n      dup2\n      add\n      dup4\n      mstore\n      dup14\n      dup2\n      mstore\n      dup1\n      dup5\n      add\n      swap2\n      swap1\n      swap2\n      mstore\n        /* \"hotel.sol\":4238:4256  Room_by_No[_index] */\n      swap4\n      dup13\n      swap1\n      mstore\n      swap2\n      dup2\n      mstore\n      0x02\n        /* \"hotel.sol\":4238:4265  Room_by_No[_index].roomname */\n      swap5\n      dup6\n      add\n        /* \"hotel.sol\":4201:4412  RoomAgreement(_index,no_of_agreement,Room_by_No[_index].roomname,Room_by_No[_index].roomaddress,Room_by_No[_index].rent_per_month,Room_by_No[_index].securityDeposit,365 days,block.timestamp,msg.sender,_landlord) */\n      dup1\n      sload\n      dup4\n      mload\n      0x1f\n      swap7\n      dup3\n      and\n      iszero\n        /* \"hotel.sol\":3948:3993  Room_by_No[_index].currentTenant = msg.sender */\n      0x0100\n        /* \"hotel.sol\":4201:4412  RoomAgreement(_index,no_of_agreement,Room_by_No[_index].roomname,Room_by_No[_index].roomaddress,Room_by_No[_index].rent_per_month,Room_by_No[_index].securityDeposit,365 days,block.timestamp,msg.sender,_landlord) */\n      mul\n      not(0x00)\n      add\n      swap1\n      swap2\n      and\n      swap7\n      swap1\n      swap7\n      div\n      swap5\n      dup6\n      add\n      dup3\n      swap1\n      div\n      dup3\n      mul\n      dup7\n      add\n      dup3\n      add\n      dup4\n      mstore\n      dup5\n      dup7\n      mstore\n      swap3\n      swap5\n      swap2\n      dup6\n      add\n      swap4\n      swap2\n      swap3\n        /* \"hotel.sol\":4238:4265  Room_by_No[_index].roomname */\n      swap2\n        /* \"hotel.sol\":4201:4412  RoomAgreement(_index,no_of_agreement,Room_by_No[_index].roomname,Room_by_No[_index].roomaddress,Room_by_No[_index].rent_per_month,Room_by_No[_index].securityDeposit,365 days,block.timestamp,msg.sender,_landlord) */\n      swap1\n      dup4\n      add\n        /* \"hotel.sol\":4238:4265  Room_by_No[_index].roomname */\n      dup3\n        /* \"hotel.sol\":4201:4412  RoomAgreement(_index,no_of_agreement,Room_by_No[_index].roomname,Room_by_No[_index].roomaddress,Room_by_No[_index].rent_per_month,Room_by_No[_index].securityDeposit,365 days,block.timestamp,msg.sender,_landlord) */\n      dup3\n      dup1\n      iszero\n      tag_97\n      jumpi\n      dup1\n      0x1f\n      lt\n      tag_98\n      jumpi\n      0x0100\n      dup1\n      dup4\n      sload\n      div\n      mul\n      dup4\n      mstore\n      swap2\n      0x20\n      add\n      swap2\n      jump(tag_97)\n    tag_98:\n      dup3\n      add\n      swap2\n      swap1\n      0x00\n      mstore\n      keccak256(0x00, 0x20)\n      swap1\n    tag_99:\n      dup2\n      sload\n      dup2\n      mstore\n      swap1\n      0x01\n      add\n      swap1\n      0x20\n      add\n      dup1\n      dup4\n      gt\n      tag_99\n      jumpi\n      dup3\n      swap1\n      sub\n      0x1f\n      and\n      dup3\n      add\n      swap2\n    tag_97:\n      pop\n      pop\n      pop\n      swap2\n      dup4\n      mstore\n      pop\n      pop\n        /* \"hotel.sol\":4266:4284  Room_by_No[_index] */\n      0x00\n      dup9\n      dup2\n      mstore\n        /* \"hotel.sol\":4266:4276  Room_by_No */\n      0x05\n        /* \"hotel.sol\":4201:4412  RoomAgreement(_index,no_of_agreement,Room_by_No[_index].roomname,Room_by_No[_index].roomaddress,Room_by_No[_index].rent_per_month,Room_by_No[_index].securityDeposit,365 days,block.timestamp,msg.sender,_landlord) */\n      0x20\n        /* \"hotel.sol\":4266:4284  Room_by_No[_index] */\n      swap1\n      dup2\n      mstore\n      0x40\n      swap2\n      dup3\n      swap1\n      keccak256\n        /* \"hotel.sol\":4266:4296  Room_by_No[_index].roomaddress */\n      0x03\n      add\n        /* \"hotel.sol\":4201:4412  RoomAgreement(_index,no_of_agreement,Room_by_No[_index].roomname,Room_by_No[_index].roomaddress,Room_by_No[_index].rent_per_month,Room_by_No[_index].securityDeposit,365 days,block.timestamp,msg.sender,_landlord) */\n      dup1\n      sload\n      dup4\n      mload\n      0x1f\n      0x02\n      not(0x00)\n      0x0100\n      0x01\n      dup7\n      and\n      iszero\n      mul\n      add\n      swap1\n      swap4\n      and\n      swap3\n      swap1\n      swap3\n      div\n      swap2\n      dup3\n      add\n      dup5\n      swap1\n      div\n      dup5\n      mul\n      dup2\n      add\n      dup5\n      add\n      swap1\n      swap5\n      mstore\n      dup1\n      dup5\n      mstore\n      swap4\n      dup3\n      add\n      swap4\n        /* \"hotel.sol\":4266:4296  Room_by_No[_index].roomaddress */\n      swap1\n      swap2\n        /* \"hotel.sol\":4201:4412  RoomAgreement(_index,no_of_agreement,Room_by_No[_index].roomname,Room_by_No[_index].roomaddress,Room_by_No[_index].rent_per_month,Room_by_No[_index].securityDeposit,365 days,block.timestamp,msg.sender,_landlord) */\n      dup4\n      add\n        /* \"hotel.sol\":4266:4296  Room_by_No[_index].roomaddress */\n      dup3\n        /* \"hotel.sol\":4201:4412  RoomAgreement(_index,no_of_agreement,Room_by_No[_index].roomname,Room_by_No[_index].roomaddress,Room_by_No[_index].rent_per_month,Room_by_No[_index].securityDeposit,365 days,block.timestamp,msg.sender,_landlord) */\n      dup3\n      dup1\n      iszero\n      tag_100\n      jumpi\n      dup1\n      0x1f\n      lt\n      tag_101\n      jumpi\n      0x0100\n      dup1\n      dup4\n      sload\n      div\n      mul\n      dup4\n      mstore\n      swap2\n      0x20\n      add\n      swap2\n      jump(tag_100)\n    tag_101:\n      dup3\n      add\n      swap2\n      swap1\n      0x00\n      mstore\n      keccak256(0x00, 0x20)\n      swap1\n    tag_102:\n      dup2\n      sload\n      dup2\n      mstore\n      swap1\n      0x01\n      add\n      swap1\n      0x20\n      add\n      dup1\n      dup4\n      gt\n      tag_102\n      jumpi\n      dup3\n      swap1\n      sub\n      0x1f\n      and\n      dup3\n      add\n      swap2\n    tag_100:\n      pop\n      pop\n      pop\n      swap2\n      dup4\n      mstore\n      pop\n      pop\n        /* \"hotel.sol\":4297:4315  Room_by_No[_index] */\n      0x00\n      dup9\n      dup2\n      mstore\n        /* \"hotel.sol\":4297:4307  Room_by_No */\n      0x05\n        /* \"hotel.sol\":4201:4412  RoomAgreement(_index,no_of_agreement,Room_by_No[_index].roomname,Room_by_No[_index].roomaddress,Room_by_No[_index].rent_per_month,Room_by_No[_index].securityDeposit,365 days,block.timestamp,msg.sender,_landlord) */\n      0x20\n        /* \"hotel.sol\":4297:4315  Room_by_No[_index] */\n      dup2\n      dup2\n      mstore\n      0x40\n      dup1\n      dup5\n      keccak256\n        /* \"hotel.sol\":4297:4330  Room_by_No[_index].rent_per_month */\n      0x04\n      dup2\n      add\n      sload\n        /* \"hotel.sol\":4201:4412  RoomAgreement(_index,no_of_agreement,Room_by_No[_index].roomname,Room_by_No[_index].roomaddress,Room_by_No[_index].rent_per_month,Room_by_No[_index].securityDeposit,365 days,block.timestamp,msg.sender,_landlord) */\n      dup4\n      dup8\n      add\n      mstore\n        /* \"hotel.sol\":4331:4365  Room_by_No[_index].securityDeposit */\n      swap1\n      swap3\n      add\n      sload\n        /* \"hotel.sol\":4201:4412  RoomAgreement(_index,no_of_agreement,Room_by_No[_index].roomname,Room_by_No[_index].roomaddress,Room_by_No[_index].rent_per_month,Room_by_No[_index].securityDeposit,365 days,block.timestamp,msg.sender,_landlord) */\n      dup3\n      dup6\n      add\n      mstore\n        /* \"hotel.sol\":4366:4374  365 days */\n      0x01e13380\n        /* \"hotel.sol\":4201:4412  RoomAgreement(_index,no_of_agreement,Room_by_No[_index].roomname,Room_by_No[_index].roomaddress,Room_by_No[_index].rent_per_month,Room_by_No[_index].securityDeposit,365 days,block.timestamp,msg.sender,_landlord) */\n      0x60\n      dup6\n      add\n      mstore\n        /* \"hotel.sol\":4375:4390  block.timestamp */\n      timestamp\n        /* \"hotel.sol\":4201:4412  RoomAgreement(_index,no_of_agreement,Room_by_No[_index].roomname,Room_by_No[_index].roomaddress,Room_by_No[_index].rent_per_month,Room_by_No[_index].securityDeposit,365 days,block.timestamp,msg.sender,_landlord) */\n      0x80\n      dup6\n      add\n      mstore\n        /* \"hotel.sol\":4391:4401  msg.sender */\n      caller\n        /* \"hotel.sol\":4201:4412  RoomAgreement(_index,no_of_agreement,Room_by_No[_index].roomname,Room_by_No[_index].roomaddress,Room_by_No[_index].rent_per_month,Room_by_No[_index].securityDeposit,365 days,block.timestamp,msg.sender,_landlord) */\n      0xa0\n      dup6\n      add\n      mstore\n      sub(shl(0xa0, 0x01), 0x01)\n      dup8\n      and\n      0xc0\n      swap1\n      swap5\n      add\n      swap4\n      swap1\n      swap4\n      mstore\n        /* \"hotel.sol\":4184:4199  no_of_agreement */\n      sload(0x03)\n        /* \"hotel.sol\":4164:4200  RoomAgreement_by_No[no_of_agreement] */\n      dup3\n      mstore\n        /* \"hotel.sol\":4164:4183  RoomAgreement_by_No */\n      0x06\n        /* \"hotel.sol\":4164:4200  RoomAgreement_by_No[no_of_agreement] */\n      dup4\n      mstore\n      swap1\n      dup2\n      swap1\n      keccak256\n        /* \"hotel.sol\":4164:4412  RoomAgreement_by_No[no_of_agreement]=RoomAgreement(_index,no_of_agreement,Room_by_No[_index].roomname,Room_by_No[_index].roomaddress,Room_by_No[_index].rent_per_month,Room_by_No[_index].securityDeposit,365 days,block.timestamp,msg.sender,_landlord) */\n      dup4\n      mload\n      dup2\n      sstore\n      dup4\n      dup4\n      add\n      mload\n      0x01\n      dup3\n      add\n      sstore\n      swap1\n      dup4\n      add\n      mload\n      dup1\n      mload\n        /* \"hotel.sol\":4164:4200  RoomAgreement_by_No[no_of_agreement] */\n      swap2\n      swap3\n        /* \"hotel.sol\":4164:4412  RoomAgreement_by_No[no_of_agreement]=RoomAgreement(_index,no_of_agreement,Room_by_No[_index].roomname,Room_by_No[_index].roomaddress,Room_by_No[_index].rent_per_month,Room_by_No[_index].securityDeposit,365 days,block.timestamp,msg.sender,_landlord) */\n      tag_103\n      swap3\n      0x02\n      dup6\n      add\n      swap3\n      swap1\n      swap2\n      add\n      swap1\n      tag_104\n      jump\t// in\n    tag_103:\n      pop\n      0x60\n      dup3\n      add\n      mload\n      dup1\n      mload\n      tag_105\n      swap2\n      0x03\n      dup5\n      add\n      swap2\n      0x20\n      swap1\n      swap2\n      add\n      swap1\n      tag_104\n      jump\t// in\n    tag_105:\n      pop\n      0x80\n      dup3\n      add\n      mload\n      0x04\n      dup1\n      dup4\n      add\n      swap2\n      swap1\n      swap2\n      sstore\n      0xa0\n      dup4\n      add\n      mload\n      0x05\n      dup1\n      dup5\n      add\n      swap2\n      swap1\n      swap2\n      sstore\n      0xc0\n      dup5\n      add\n      mload\n      0x06\n      dup5\n      add\n      sstore\n      0xe0\n      dup5\n      add\n      mload\n      0x07\n      dup5\n      add\n      sstore\n      0x0100\n      dup1\n      dup6\n      add\n      mload\n      0x08\n      dup6\n      add\n      dup1\n      sload\n      sub(shl(0xa0, 0x01), 0x01)\n      swap3\n      dup4\n      and\n      not(sub(shl(0xa0, 0x01), 0x01))\n      swap2\n      dup3\n      and\n      or\n      swap1\n      swap2\n      sstore\n      0x0120\n      swap7\n      dup8\n      add\n      mload\n      0x09\n      swap1\n      swap7\n      add\n      dup1\n      sload\n      swap7\n      swap1\n      swap3\n      and\n      swap6\n      and\n      swap5\n      swap1\n      swap5\n      or\n      swap1\n      swap4\n      sstore\n        /* \"hotel.sol\":4423:4435  no_of_rent++ */\n      dup2\n      sload\n        /* \"hotel.sol\":4164:4412  RoomAgreement_by_No[no_of_agreement]=RoomAgreement(_index,no_of_agreement,Room_by_No[_index].roomname,Room_by_No[_index].roomaddress,Room_by_No[_index].rent_per_month,Room_by_No[_index].securityDeposit,365 days,block.timestamp,msg.sender,_landlord) */\n      0x01\n        /* \"hotel.sol\":4423:4435  no_of_rent++ */\n      swap1\n      dup2\n      add\n      swap3\n      dup4\n      swap1\n      sstore\n        /* \"hotel.sol\":4471:4628  Rent(no_of_rent,_index,no_of_agreement,Room_by_No[_index].roomname,Room_by_No[_index].roomaddress,Room_by_No[_index].rent_per_month,now,msg.sender,_landlord) */\n      0x40\n      dup1\n      mload\n      swap6\n      dup7\n      add\n      dup2\n      mstore\n      swap3\n      dup6\n      mstore\n      0x20\n      dup1\n      dup7\n      add\n      dup13\n      swap1\n      mstore\n      0x03\n        /* \"hotel.sol\":4494:4509  no_of_agreement */\n      sload\n        /* \"hotel.sol\":4471:4628  Rent(no_of_rent,_index,no_of_agreement,Room_by_No[_index].roomname,Room_by_No[_index].roomaddress,Room_by_No[_index].rent_per_month,now,msg.sender,_landlord) */\n      dup7\n      dup6\n      add\n      mstore\n      0x00\n        /* \"hotel.sol\":4510:4528  Room_by_No[_index] */\n      dup13\n      dup2\n      mstore\n      swap3\n      dup2\n      mstore\n      swap2\n      dup4\n      swap1\n      keccak256\n      0x02\n        /* \"hotel.sol\":4510:4537  Room_by_No[_index].roomname */\n      swap1\n      dup2\n      add\n        /* \"hotel.sol\":4471:4628  Rent(no_of_rent,_index,no_of_agreement,Room_by_No[_index].roomname,Room_by_No[_index].roomaddress,Room_by_No[_index].rent_per_month,now,msg.sender,_landlord) */\n      dup1\n      sload\n      dup6\n      mload\n      0x1f\n      swap5\n      dup3\n      and\n      iszero\n      swap1\n      swap8\n      mul\n      not(0x00)\n      add\n      and\n      swap2\n      swap1\n      swap2\n      div\n      swap2\n      dup3\n      add\n      dup4\n      swap1\n      div\n      dup4\n      mul\n      dup6\n      add\n      dup4\n      add\n      swap1\n      swap4\n      mstore\n      dup1\n      dup5\n      mstore\n      0x60\n      dup6\n      add\n      swap4\n      swap3\n        /* \"hotel.sol\":4510:4537  Room_by_No[_index].roomname */\n      swap2\n        /* \"hotel.sol\":4471:4628  Rent(no_of_rent,_index,no_of_agreement,Room_by_No[_index].roomname,Room_by_No[_index].roomaddress,Room_by_No[_index].rent_per_month,now,msg.sender,_landlord) */\n      dup4\n      add\n        /* \"hotel.sol\":4510:4537  Room_by_No[_index].roomname */\n      dup3\n        /* \"hotel.sol\":4471:4628  Rent(no_of_rent,_index,no_of_agreement,Room_by_No[_index].roomname,Room_by_No[_index].roomaddress,Room_by_No[_index].rent_per_month,now,msg.sender,_landlord) */\n      dup3\n      dup1\n      iszero\n      tag_106\n      jumpi\n      dup1\n      0x1f\n      lt\n      tag_107\n      jumpi\n      0x0100\n      dup1\n      dup4\n      sload\n      div\n      mul\n      dup4\n      mstore\n      swap2\n      0x20\n      add\n      swap2\n      jump(tag_106)\n    tag_107:\n      dup3\n      add\n      swap2\n      swap1\n      0x00\n      mstore\n      keccak256(0x00, 0x20)\n      swap1\n    tag_108:\n      dup2\n      sload\n      dup2\n      mstore\n      swap1\n      0x01\n      add\n      swap1\n      0x20\n      add\n      dup1\n      dup4\n      gt\n      tag_108\n      jumpi\n      dup3\n      swap1\n      sub\n      0x1f\n      and\n      dup3\n      add\n      swap2\n    tag_106:\n      pop\n      pop\n      pop\n      swap2\n      dup4\n      mstore\n      pop\n      pop\n        /* \"hotel.sol\":4538:4556  Room_by_No[_index] */\n      0x00\n      dup9\n      dup2\n      mstore\n        /* \"hotel.sol\":4538:4548  Room_by_No */\n      0x05\n        /* \"hotel.sol\":4471:4628  Rent(no_of_rent,_index,no_of_agreement,Room_by_No[_index].roomname,Room_by_No[_index].roomaddress,Room_by_No[_index].rent_per_month,now,msg.sender,_landlord) */\n      0x20\n        /* \"hotel.sol\":4538:4556  Room_by_No[_index] */\n      swap1\n      dup2\n      mstore\n      0x40\n      swap2\n      dup3\n      swap1\n      keccak256\n        /* \"hotel.sol\":4538:4568  Room_by_No[_index].roomaddress */\n      0x03\n      add\n        /* \"hotel.sol\":4471:4628  Rent(no_of_rent,_index,no_of_agreement,Room_by_No[_index].roomname,Room_by_No[_index].roomaddress,Room_by_No[_index].rent_per_month,now,msg.sender,_landlord) */\n      dup1\n      sload\n      dup4\n      mload\n      0x1f\n      0x02\n      not(0x00)\n      0x0100\n      0x01\n      dup7\n      and\n      iszero\n      mul\n      add\n      swap1\n      swap4\n      and\n      swap3\n      swap1\n      swap3\n      div\n      swap2\n      dup3\n      add\n      dup5\n      swap1\n      div\n      dup5\n      mul\n      dup2\n      add\n      dup5\n      add\n      swap1\n      swap5\n      mstore\n      dup1\n      dup5\n      mstore\n      swap4\n      dup3\n      add\n      swap4\n        /* \"hotel.sol\":4538:4568  Room_by_No[_index].roomaddress */\n      swap1\n      swap2\n        /* \"hotel.sol\":4471:4628  Rent(no_of_rent,_index,no_of_agreement,Room_by_No[_index].roomname,Room_by_No[_index].roomaddress,Room_by_No[_index].rent_per_month,now,msg.sender,_landlord) */\n      dup4\n      add\n        /* \"hotel.sol\":4538:4568  Room_by_No[_index].roomaddress */\n      dup3\n        /* \"hotel.sol\":4471:4628  Rent(no_of_rent,_index,no_of_agreement,Room_by_No[_index].roomname,Room_by_No[_index].roomaddress,Room_by_No[_index].rent_per_month,now,msg.sender,_landlord) */\n      dup3\n      dup1\n      iszero\n      tag_109\n      jumpi\n      dup1\n      0x1f\n      lt\n      tag_110\n      jumpi\n      0x0100\n      dup1\n      dup4\n      sload\n      div\n      mul\n      dup4\n      mstore\n      swap2\n      0x20\n      add\n      swap2\n      jump(tag_109)\n    tag_110:\n      dup3\n      add\n      swap2\n      swap1\n      0x00\n      mstore\n      keccak256(0x00, 0x20)\n      swap1\n    tag_111:\n      dup2\n      sload\n      dup2\n      mstore\n      swap1\n      0x01\n      add\n      swap1\n      0x20\n      add\n      dup1\n      dup4\n      gt\n      tag_111\n      jumpi\n      dup3\n      swap1\n      sub\n      0x1f\n      and\n      dup3\n      add\n      swap2\n    tag_109:\n      pop\n      pop\n      pop\n      swap2\n      dup4\n      mstore\n      pop\n      pop\n        /* \"hotel.sol\":4569:4587  Room_by_No[_index] */\n      0x00\n      dup9\n      dup2\n      mstore\n        /* \"hotel.sol\":4569:4579  Room_by_No */\n      0x05\n        /* \"hotel.sol\":4471:4628  Rent(no_of_rent,_index,no_of_agreement,Room_by_No[_index].roomname,Room_by_No[_index].roomaddress,Room_by_No[_index].rent_per_month,now,msg.sender,_landlord) */\n      0x20\n        /* \"hotel.sol\":4569:4587  Room_by_No[_index] */\n      swap1\n      dup2\n      mstore\n      0x40\n      dup1\n      dup4\n      keccak256\n        /* \"hotel.sol\":4569:4602  Room_by_No[_index].rent_per_month */\n      0x04\n      swap1\n      dup2\n      add\n      sload\n        /* \"hotel.sol\":4471:4628  Rent(no_of_rent,_index,no_of_agreement,Room_by_No[_index].roomname,Room_by_No[_index].roomaddress,Room_by_No[_index].rent_per_month,now,msg.sender,_landlord) */\n      dup4\n      dup7\n      add\n      mstore\n        /* \"hotel.sol\":4603:4606  now */\n      timestamp\n        /* \"hotel.sol\":4471:4628  Rent(no_of_rent,_index,no_of_agreement,Room_by_No[_index].roomname,Room_by_No[_index].roomaddress,Room_by_No[_index].rent_per_month,now,msg.sender,_landlord) */\n      dup3\n      dup7\n      add\n      mstore\n        /* \"hotel.sol\":4607:4617  msg.sender */\n      caller\n        /* \"hotel.sol\":4471:4628  Rent(no_of_rent,_index,no_of_agreement,Room_by_No[_index].roomname,Room_by_No[_index].roomaddress,Room_by_No[_index].rent_per_month,now,msg.sender,_landlord) */\n      0x60\n      dup1\n      dup8\n      add\n      swap2\n      swap1\n      swap2\n      mstore\n      sub(shl(0xa0, 0x01), 0x01)\n      dup10\n      and\n      0x80\n      swap1\n      swap7\n      add\n      swap6\n      swap1\n      swap6\n      mstore\n        /* \"hotel.sol\":4457:4467  no_of_rent */\n      sload\n        /* \"hotel.sol\":4446:4468  Rent_by_No[no_of_rent] */\n      dup4\n      mstore\n        /* \"hotel.sol\":4446:4456  Rent_by_No */\n      0x07\n        /* \"hotel.sol\":4446:4468  Rent_by_No[no_of_rent] */\n      dup3\n      mstore\n      swap2\n      dup3\n      swap1\n      keccak256\n        /* \"hotel.sol\":4446:4628  Rent_by_No[no_of_rent] = Rent(no_of_rent,_index,no_of_agreement,Room_by_No[_index].roomname,Room_by_No[_index].roomaddress,Room_by_No[_index].rent_per_month,now,msg.sender,_landlord) */\n      dup5\n      mload\n      dup2\n      sstore\n      dup5\n      dup3\n      add\n      mload\n      0x01\n      dup3\n      add\n      sstore\n      swap2\n      dup5\n      add\n      mload\n      0x02\n      dup4\n      add\n      sstore\n      swap2\n      dup4\n      add\n      mload\n      dup1\n      mload\n        /* \"hotel.sol\":4446:4468  Rent_by_No[no_of_rent] */\n      swap2\n      swap3\n        /* \"hotel.sol\":4446:4628  Rent_by_No[no_of_rent] = Rent(no_of_rent,_index,no_of_agreement,Room_by_No[_index].roomname,Room_by_No[_index].roomaddress,Room_by_No[_index].rent_per_month,now,msg.sender,_landlord) */\n      tag_112\n      swap3\n      0x03\n      dup6\n      add\n      swap3\n      swap1\n      swap2\n      add\n      swap1\n      tag_104\n      jump\t// in\n    tag_112:\n      pop\n      0x80\n      dup3\n      add\n      mload\n      dup1\n      mload\n      tag_113\n      swap2\n      0x04\n      dup5\n      add\n      swap2\n      0x20\n      swap1\n      swap2\n      add\n      swap1\n      tag_104\n      jump\t// in\n    tag_113:\n      pop\n      0xa0\n      dup3\n      add\n      mload\n      0x05\n      dup3\n      add\n      sstore\n      0xc0\n      dup3\n      add\n      mload\n      0x06\n      dup3\n      add\n      sstore\n      0xe0\n      dup3\n      add\n      mload\n      0x07\n      dup3\n      add\n      dup1\n      sload\n      not(sub(shl(0xa0, 0x01), 0x01))\n      swap1\n      dup2\n      and\n      sub(shl(0xa0, 0x01), 0x01)\n      swap4\n      dup5\n      and\n      or\n      swap1\n      swap2\n      sstore\n      0x0100\n      swap1\n      swap4\n      add\n      mload\n      0x08\n      swap1\n      swap3\n      add\n      dup1\n      sload\n      swap1\n      swap4\n      and\n      swap2\n      and\n      or\n      swap1\n      sstore\n      pop\n      pop\n      pop\n      pop\n      pop\n      pop\n        /* \"hotel.sol\":3541:4636  function signAgreement(uint _index) public payable notLandLord(_index) enoughAgreementfee(_index) OnlyWhileVacant(_index) {\r... */\n      jump\t// out\n        /* \"hotel.sol\":147:178  uint public no_of_agreement = 0 */\n    tag_31:\n      sload(0x03)\n      dup2\n      jump\t// out\n        /* \"hotel.sol\":5287:5727  function agreementCompleted(uint _index) public payable onlyLandlord(_index) AgreementTimesUp(_index){\r... */\n    tag_34:\n        /* \"hotel.sol\":1391:1409  Room_by_No[_index] */\n      0x00\n      dup2\n      dup2\n      mstore\n        /* \"hotel.sol\":1391:1401  Room_by_No */\n      0x05\n        /* \"hotel.sol\":1391:1409  Room_by_No[_index] */\n      0x20\n      mstore\n      0x40\n      swap1\n      keccak256\n        /* \"hotel.sol\":1391:1418  Room_by_No[_index].landlord */\n      0x07\n      add\n      sload\n        /* \"hotel.sol\":1391:1409  Room_by_No[_index] */\n      dup2\n      swap1\n        /* \"hotel.sol\":1391:1418  Room_by_No[_index].landlord */\n      0x0100\n      swap1\n      div\n      sub(shl(0xa0, 0x01), 0x01)\n      and\n        /* \"hotel.sol\":1377:1387  msg.sender */\n      caller\n        /* \"hotel.sol\":1377:1418  msg.sender == Room_by_No[_index].landlord */\n      eq\n        /* \"hotel.sol\":1369:1452  require(msg.sender == Room_by_No[_index].landlord, \"Only landlord can access this\") */\n      tag_115\n      jumpi\n      0x40\n      dup1\n      mload\n      shl(0xe5, 0x461bcd)\n      dup2\n      mstore\n      0x20\n      0x04\n      dup3\n      add\n      mstore\n      0x1d\n      0x24\n      dup3\n      add\n      mstore\n      0x4f6e6c79206c616e646c6f72642063616e206163636573732074686973000000\n      0x44\n      dup3\n      add\n      mstore\n      swap1\n      mload\n      swap1\n      dup2\n      swap1\n      sub\n      0x64\n      add\n      swap1\n      revert\n    tag_115:\n        /* \"hotel.sol\":2717:2734  uint _AgreementNo */\n      0x00\n        /* \"hotel.sol\":2737:2755  Room_by_No[_index] */\n      dup3\n      dup2\n      mstore\n        /* \"hotel.sol\":2737:2747  Room_by_No */\n      0x05\n        /* \"hotel.sol\":2737:2755  Room_by_No[_index] */\n      0x20\n      swap1\n      dup2\n      mstore\n      0x40\n      dup1\n      dup4\n      keccak256\n        /* \"hotel.sol\":2737:2767  Room_by_No[_index].agreementid */\n      0x01\n      add\n      sload\n        /* \"hotel.sol\":2836:2869  RoomAgreement_by_No[_AgreementNo] */\n      dup1\n      dup5\n      mstore\n        /* \"hotel.sol\":2836:2855  RoomAgreement_by_No */\n      0x06\n        /* \"hotel.sol\":2836:2869  RoomAgreement_by_No[_AgreementNo] */\n      swap3\n      dup4\n      swap1\n      mstore\n      swap3\n      keccak256\n        /* \"hotel.sol\":2836:2882  RoomAgreement_by_No[_AgreementNo].lockInPeriod */\n      swap1\n      dup2\n      add\n      sload\n        /* \"hotel.sol\":2790:2833  RoomAgreement_by_No[_AgreementNo].timestamp */\n      0x07\n      swap1\n      swap2\n      add\n      sload\n        /* \"hotel.sol\":5381:5387  _index */\n      dup5\n      swap3\n        /* \"hotel.sol\":2737:2767  Room_by_No[_index].agreementid */\n      swap2\n        /* \"hotel.sol\":2790:2882  RoomAgreement_by_No[_AgreementNo].timestamp + RoomAgreement_by_No[_AgreementNo].lockInPeriod */\n      add\n        /* \"hotel.sol\":2901:2904  now */\n      timestamp\n        /* \"hotel.sol\":2901:2911  now < time */\n      dup2\n      gt\n        /* \"hotel.sol\":2893:2948  require(now < time, \"Time is left for contract to end\") */\n      tag_117\n      jumpi\n      0x40\n      dup1\n      mload\n      shl(0xe5, 0x461bcd)\n      dup2\n      mstore\n      0x20\n      0x04\n      dup3\n      add\n      dup2\n      swap1\n      mstore\n      0x24\n      dup3\n      add\n      mstore\n      0x54696d65206973206c65667420666f7220636f6e747261637420746f20656e64\n      0x44\n      dup3\n      add\n      mstore\n      swap1\n      mload\n      swap1\n      dup2\n      swap1\n      sub\n      0x64\n      add\n      swap1\n      revert\n    tag_117:\n        /* \"hotel.sol\":5403:5413  msg.sender */\n      caller\n        /* \"hotel.sol\":5395:5428  require(msg.sender != address(0)) */\n      tag_119\n      jumpi\n      0x00\n      dup1\n      revert\n    tag_119:\n        /* \"hotel.sol\":5443:5461  Room_by_No[_index] */\n      0x00\n      dup6\n      dup2\n      mstore\n        /* \"hotel.sol\":5443:5453  Room_by_No */\n      0x05\n        /* \"hotel.sol\":5443:5461  Room_by_No[_index] */\n      0x20\n      mstore\n      0x40\n      swap1\n      keccak256\n        /* \"hotel.sol\":5443:5468  Room_by_No[_index].vacant */\n      0x07\n      add\n      sload\n      0xff\n      and\n        /* \"hotel.sol\":5443:5477  Room_by_No[_index].vacant == false */\n      iszero\n        /* \"hotel.sol\":5435:5509  require(Room_by_No[_index].vacant == false, \"Room is currently Occupied.\") */\n      tag_120\n      jumpi\n      0x40\n      dup1\n      mload\n      shl(0xe5, 0x461bcd)\n      dup2\n      mstore\n      0x20\n      0x04\n      dup3\n      add\n      mstore\n      0x1b\n      0x24\n      dup3\n      add\n      mstore\n      0x526f6f6d2069732063757272656e746c79204f636375706965642e0000000000\n      0x44\n      dup3\n      add\n      mstore\n      swap1\n      mload\n      swap1\n      dup2\n      swap1\n      sub\n      0x64\n      add\n      swap1\n      revert\n    tag_120:\n        /* \"hotel.sol\":5516:5534  Room_by_No[_index] */\n      0x00\n      dup6\n      dup2\n      mstore\n        /* \"hotel.sol\":5516:5526  Room_by_No */\n      0x05\n        /* \"hotel.sol\":5516:5534  Room_by_No[_index] */\n      0x20\n      dup2\n      swap1\n      mstore\n      0x40\n      dup1\n      dup4\n      keccak256\n        /* \"hotel.sol\":5516:5541  Room_by_No[_index].vacant */\n      0x07\n      dup2\n      add\n        /* \"hotel.sol\":5516:5548  Room_by_No[_index].vacant = true */\n      dup1\n      sload\n      not(0xff)\n      and\n        /* \"hotel.sol\":5544:5548  true */\n      0x01\n        /* \"hotel.sol\":5516:5548  Room_by_No[_index].vacant = true */\n      or\n      swap1\n      sstore\n        /* \"hotel.sol\":5581:5613  Room_by_No[_index].currentTenant */\n      0x08\n      dup2\n      add\n      sload\n        /* \"hotel.sol\":5644:5678  Room_by_No[_index].securityDeposit */\n      swap3\n      add\n      sload\n        /* \"hotel.sol\":5685:5719  _Tenant.transfer(_securitydeposit) */\n      swap1\n      mload\n      sub(shl(0xa0, 0x01), 0x01)\n        /* \"hotel.sol\":5581:5613  Room_by_No[_index].currentTenant */\n      swap1\n      swap3\n      and\n      swap3\n        /* \"hotel.sol\":5644:5678  Room_by_No[_index].securityDeposit */\n      swap1\n      swap2\n        /* \"hotel.sol\":5581:5613  Room_by_No[_index].currentTenant */\n      dup4\n      swap2\n        /* \"hotel.sol\":5685:5719  _Tenant.transfer(_securitydeposit) */\n      dup4\n      iszero\n      0x08fc\n      mul\n      swap2\n        /* \"hotel.sol\":5644:5678  Room_by_No[_index].securityDeposit */\n      dup5\n      swap2\n        /* \"hotel.sol\":5685:5719  _Tenant.transfer(_securitydeposit) */\n      dup2\n        /* \"hotel.sol\":5516:5534  Room_by_No[_index] */\n      dup2\n        /* \"hotel.sol\":5685:5719  _Tenant.transfer(_securitydeposit) */\n      dup2\n        /* \"hotel.sol\":5644:5678  Room_by_No[_index].securityDeposit */\n      dup6\n        /* \"hotel.sol\":5581:5613  Room_by_No[_index].currentTenant */\n      dup9\n        /* \"hotel.sol\":5685:5719  _Tenant.transfer(_securitydeposit) */\n      dup9\n      call\n      swap4\n      pop\n      pop\n      pop\n      pop\n      iszero\n        /* \"--CODEGEN--\":8:17   */\n      dup1\n        /* \"--CODEGEN--\":5:7   */\n      iszero\n      tag_121\n      jumpi\n        /* \"--CODEGEN--\":45:61   */\n      returndatasize\n        /* \"--CODEGEN--\":42:43   */\n      0x00\n        /* \"--CODEGEN--\":39:40   */\n      dup1\n        /* \"--CODEGEN--\":24:62   */\n      returndatacopy\n        /* \"--CODEGEN--\":77:93   */\n      returndatasize\n        /* \"--CODEGEN--\":74:75   */\n      0x00\n        /* \"--CODEGEN--\":67:94   */\n      revert\n        /* \"--CODEGEN--\":5:7   */\n    tag_121:\n        /* \"hotel.sol\":5685:5719  _Tenant.transfer(_securitydeposit) */\n      pop\n        /* \"hotel.sol\":2959:2960  _ */\n      pop\n      pop\n        /* \"hotel.sol\":1463:1464  _ */\n      pop\n      pop\n      pop\n        /* \"hotel.sol\":5287:5727  function agreementCompleted(uint _index) public payable onlyLandlord(_index) AgreementTimesUp(_index){\r... */\n      pop\n      pop\n      jump\t// out\n        /* \"hotel.sol\":534:573  mapping(uint => Room) public Room_by_No */\n    tag_38:\n      0x05\n      0x20\n      swap1\n      dup2\n      mstore\n      0x00\n      swap2\n      dup3\n      mstore\n      0x40\n      swap2\n      dup3\n      swap1\n      keccak256\n      dup1\n      sload\n      0x01\n      dup1\n      dup4\n      add\n      sload\n      0x02\n      dup1\n      dup6\n      add\n      dup1\n      sload\n      dup9\n      mload\n      swap5\n      dup2\n      and\n      iszero\n      0x0100\n      mul\n      not(0x00)\n      add\n      and\n      swap2\n      swap1\n      swap2\n      div\n      0x1f\n      dup2\n      add\n      dup8\n      swap1\n      div\n      dup8\n      mul\n      dup5\n      add\n      dup8\n      add\n      swap1\n      swap8\n      mstore\n      dup7\n      dup4\n      mstore\n      swap3\n      swap6\n      swap1\n      swap5\n      swap2\n      swap3\n      swap2\n      dup4\n      add\n      dup3\n      dup3\n      dup1\n      iszero\n      tag_122\n      jumpi\n      dup1\n      0x1f\n      lt\n      tag_123\n      jumpi\n      0x0100\n      dup1\n      dup4\n      sload\n      div\n      mul\n      dup4\n      mstore\n      swap2\n      0x20\n      add\n      swap2\n      jump(tag_122)\n    tag_123:\n      dup3\n      add\n      swap2\n      swap1\n      0x00\n      mstore\n      keccak256(0x00, 0x20)\n      swap1\n    tag_124:\n      dup2\n      sload\n      dup2\n      mstore\n      swap1\n      0x01\n      add\n      swap1\n      0x20\n      add\n      dup1\n      dup4\n      gt\n      tag_124\n      jumpi\n      dup3\n      swap1\n      sub\n      0x1f\n      and\n      dup3\n      add\n      swap2\n    tag_122:\n      pop\n      pop\n      pop\n      pop\n      0x03\n      dup4\n      add\n      dup1\n      sload\n      0x40\n      dup1\n      mload\n      0x20\n      0x02\n      0x01\n      dup6\n      and\n      iszero\n      0x0100\n      mul\n      not(0x00)\n      add\n      swap1\n      swap5\n      and\n      swap4\n      swap1\n      swap4\n      div\n      0x1f\n      dup2\n      add\n      dup5\n      swap1\n      div\n      dup5\n      mul\n      dup3\n      add\n      dup5\n      add\n      swap1\n      swap3\n      mstore\n      dup2\n      dup2\n      mstore\n      swap5\n      swap6\n      swap5\n      swap4\n      pop\n      swap1\n      dup4\n      add\n      dup3\n      dup3\n      dup1\n      iszero\n      tag_125\n      jumpi\n      dup1\n      0x1f\n      lt\n      tag_126\n      jumpi\n      0x0100\n      dup1\n      dup4\n      sload\n      div\n      mul\n      dup4\n      mstore\n      swap2\n      0x20\n      add\n      swap2\n      jump(tag_125)\n    tag_126:\n      dup3\n      add\n      swap2\n      swap1\n      0x00\n      mstore\n      keccak256(0x00, 0x20)\n      swap1\n    tag_127:\n      dup2\n      sload\n      dup2\n      mstore\n      swap1\n      0x01\n      add\n      swap1\n      0x20\n      add\n      dup1\n      dup4\n      gt\n      tag_127\n      jumpi\n      dup3\n      swap1\n      sub\n      0x1f\n      and\n      dup3\n      add\n      swap2\n    tag_125:\n      pop\n      pop\n      pop\n      0x04\n      dup5\n      add\n      sload\n      0x05\n      dup6\n      add\n      sload\n      0x06\n      dup7\n      add\n      sload\n      0x07\n      dup8\n      add\n      sload\n      0x08\n      swap1\n      swap8\n      add\n      sload\n      swap6\n      swap7\n      swap3\n      swap6\n      swap2\n      swap5\n      pop\n      swap3\n      pop\n      0xff\n      dup3\n      and\n      swap2\n      sub(shl(0xa0, 0x01), 0x01)\n      0x0100\n      swap1\n      swap2\n      div\n      dup2\n      and\n      swap2\n      and\n      dup11\n      jump\t// out\n        /* \"hotel.sol\":5735:5926  function agreementTerminated(uint _index) public onlyLandlord(_index) AgreementTimesLeft(_index){\r... */\n    tag_50:\n        /* \"hotel.sol\":1391:1409  Room_by_No[_index] */\n      0x00\n      dup2\n      dup2\n      mstore\n        /* \"hotel.sol\":1391:1401  Room_by_No */\n      0x05\n        /* \"hotel.sol\":1391:1409  Room_by_No[_index] */\n      0x20\n      mstore\n      0x40\n      swap1\n      keccak256\n        /* \"hotel.sol\":1391:1418  Room_by_No[_index].landlord */\n      0x07\n      add\n      sload\n        /* \"hotel.sol\":1391:1409  Room_by_No[_index] */\n      dup2\n      swap1\n        /* \"hotel.sol\":1391:1418  Room_by_No[_index].landlord */\n      0x0100\n      swap1\n      div\n      sub(shl(0xa0, 0x01), 0x01)\n      and\n        /* \"hotel.sol\":1377:1387  msg.sender */\n      caller\n        /* \"hotel.sol\":1377:1418  msg.sender == Room_by_No[_index].landlord */\n      eq\n        /* \"hotel.sol\":1369:1452  require(msg.sender == Room_by_No[_index].landlord, \"Only landlord can access this\") */\n      tag_129\n      jumpi\n      0x40\n      dup1\n      mload\n      shl(0xe5, 0x461bcd)\n      dup2\n      mstore\n      0x20\n      0x04\n      dup3\n      add\n      mstore\n      0x1d\n      0x24\n      dup3\n      add\n      mstore\n      0x4f6e6c79206c616e646c6f72642063616e206163636573732074686973000000\n      0x44\n      dup3\n      add\n      mstore\n      swap1\n      mload\n      swap1\n      dup2\n      swap1\n      sub\n      0x64\n      add\n      swap1\n      revert\n    tag_129:\n        /* \"hotel.sol\":2415:2432  uint _AgreementNo */\n      0x00\n        /* \"hotel.sol\":2435:2453  Room_by_No[_index] */\n      dup3\n      dup2\n      mstore\n        /* \"hotel.sol\":2435:2445  Room_by_No */\n      0x05\n        /* \"hotel.sol\":2435:2453  Room_by_No[_index] */\n      0x20\n      swap1\n      dup2\n      mstore\n      0x40\n      dup1\n      dup4\n      keccak256\n        /* \"hotel.sol\":2435:2465  Room_by_No[_index].agreementid */\n      0x01\n      add\n      sload\n        /* \"hotel.sol\":2534:2567  RoomAgreement_by_No[_AgreementNo] */\n      dup1\n      dup5\n      mstore\n        /* \"hotel.sol\":2534:2553  RoomAgreement_by_No */\n      0x06\n        /* \"hotel.sol\":2534:2567  RoomAgreement_by_No[_AgreementNo] */\n      swap3\n      dup4\n      swap1\n      mstore\n      swap3\n      keccak256\n        /* \"hotel.sol\":2534:2580  RoomAgreement_by_No[_AgreementNo].lockInPeriod */\n      swap1\n      dup2\n      add\n      sload\n        /* \"hotel.sol\":2488:2531  RoomAgreement_by_No[_AgreementNo].timestamp */\n      0x07\n      swap1\n      swap2\n      add\n      sload\n        /* \"hotel.sol\":5824:5830  _index */\n      dup5\n      swap3\n        /* \"hotel.sol\":2435:2465  Room_by_No[_index].agreementid */\n      swap2\n        /* \"hotel.sol\":2488:2580  RoomAgreement_by_No[_AgreementNo].timestamp + RoomAgreement_by_No[_AgreementNo].lockInPeriod */\n      add\n        /* \"hotel.sol\":2599:2602  now */\n      timestamp\n        /* \"hotel.sol\":2599:2609  now < time */\n      dup2\n      gt\n        /* \"hotel.sol\":2591:2637  require(now < time, \"Agreement already Ended\") */\n      tag_131\n      jumpi\n      0x40\n      dup1\n      mload\n      shl(0xe5, 0x461bcd)\n      dup2\n      mstore\n      0x20\n      0x04\n      dup3\n      add\n      mstore\n      0x17\n      0x24\n      dup3\n      add\n      mstore\n      0x41677265656d656e7420616c726561647920456e646564000000000000000000\n      0x44\n      dup3\n      add\n      mstore\n      swap1\n      mload\n      swap1\n      dup2\n      swap1\n      sub\n      0x64\n      add\n      swap1\n      revert\n    tag_131:\n        /* \"hotel.sol\":5850:5860  msg.sender */\n      caller\n        /* \"hotel.sol\":5842:5875  require(msg.sender != address(0)) */\n      tag_133\n      jumpi\n      0x00\n      dup1\n      revert\n    tag_133:\n      pop\n      pop\n      pop\n        /* \"hotel.sol\":5886:5904  Room_by_No[_index] */\n      0x00\n      swap2\n      dup3\n      mstore\n      pop\n        /* \"hotel.sol\":5886:5896  Room_by_No */\n      0x05\n        /* \"hotel.sol\":5886:5904  Room_by_No[_index] */\n      0x20\n      mstore\n      0x40\n      swap1\n      keccak256\n        /* \"hotel.sol\":5886:5911  Room_by_No[_index].vacant */\n      0x07\n      add\n        /* \"hotel.sol\":5886:5918  Room_by_No[_index].vacant = true */\n      dup1\n      sload\n      not(0xff)\n      and\n        /* \"hotel.sol\":5914:5918  true */\n      0x01\n        /* \"hotel.sol\":5886:5918  Room_by_No[_index].vacant = true */\n      or\n      swap1\n      sstore\n        /* \"hotel.sol\":5735:5926  function agreementTerminated(uint _index) public onlyLandlord(_index) AgreementTimesLeft(_index){\r... */\n      jump\t// out\n        /* \"hotel.sol\":113:140  uint public no_of_rooms = 0 */\n    tag_53:\n      sload(0x02)\n      dup2\n      jump\t// out\n        /* \"hotel.sol\":3155:3533  function addRoom(string memory _roomname, string memory _roomaddress, uint _rentcost, uint  _securitydeposit) public {\r... */\n    tag_63:\n        /* \"hotel.sol\":3291:3301  msg.sender */\n      caller\n        /* \"hotel.sol\":3283:3316  require(msg.sender != address(0)) */\n      tag_135\n      jumpi\n      0x00\n      dup1\n      revert\n    tag_135:\n        /* \"hotel.sol\":3327:3338  no_of_rooms */\n      0x02\n        /* \"hotel.sol\":3327:3341  no_of_rooms ++ */\n      dup1\n      sload\n      0x01\n      swap1\n      dup2\n      add\n      dup1\n      dup4\n      sstore\n        /* \"hotel.sol\":3409:3514  Room(no_of_rooms,0,_roomname,_roomaddress, _rentcost,_securitydeposit,0,_vacancy, msg.sender, address(0)) */\n      0x40\n      dup1\n      mload\n      0x0140\n      dup2\n      add\n      dup3\n      mstore\n      dup3\n      dup2\n      mstore\n        /* \"hotel.sol\":3327:3338  no_of_rooms */\n      0x00\n        /* \"hotel.sol\":3409:3514  Room(no_of_rooms,0,_roomname,_roomaddress, _rentcost,_securitydeposit,0,_vacancy, msg.sender, address(0)) */\n      0x20\n      dup1\n      dup4\n      add\n      dup3\n      dup2\n      mstore\n      dup4\n      dup6\n      add\n      dup13\n      dup2\n      mstore\n      0x60\n      dup6\n      add\n      dup13\n      swap1\n      mstore\n      0x80\n      dup6\n      add\n      dup12\n      swap1\n      mstore\n      0xa0\n      dup6\n      add\n      dup11\n      swap1\n      mstore\n      0xc0\n      dup6\n      add\n      dup5\n      swap1\n      mstore\n      0xe0\n      dup6\n      add\n      dup9\n      swap1\n      mstore\n        /* \"hotel.sol\":3491:3501  msg.sender */\n      caller\n        /* \"hotel.sol\":3409:3514  Room(no_of_rooms,0,_roomname,_roomaddress, _rentcost,_securitydeposit,0,_vacancy, msg.sender, address(0)) */\n      0x0100\n      dup7\n      add\n      mstore\n      0x0120\n      dup6\n      add\n      dup5\n      swap1\n      mstore\n        /* \"hotel.sol\":3383:3406  Room_by_No[no_of_rooms] */\n      swap6\n      dup4\n      mstore\n        /* \"hotel.sol\":3383:3393  Room_by_No */\n      0x05\n        /* \"hotel.sol\":3383:3406  Room_by_No[no_of_rooms] */\n      dup3\n      mstore\n      swap4\n      swap1\n      swap2\n      keccak256\n        /* \"hotel.sol\":3383:3514  Room_by_No[no_of_rooms] = Room(no_of_rooms,0,_roomname,_roomaddress, _rentcost,_securitydeposit,0,_vacancy, msg.sender, address(0)) */\n      dup3\n      mload\n      dup2\n      sstore\n      swap3\n      mload\n      dup4\n      dup7\n      add\n      sstore\n      swap3\n      mload\n      dup1\n      mload\n        /* \"hotel.sol\":3327:3341  no_of_rooms ++ */\n      swap5\n      swap6\n        /* \"hotel.sol\":3409:3514  Room(no_of_rooms,0,_roomname,_roomaddress, _rentcost,_securitydeposit,0,_vacancy, msg.sender, address(0)) */\n      swap2\n      swap5\n        /* \"hotel.sol\":3383:3406  Room_by_No[no_of_rooms] */\n      swap3\n      swap4\n        /* \"hotel.sol\":3383:3514  Room_by_No[no_of_rooms] = Room(no_of_rooms,0,_roomname,_roomaddress, _rentcost,_securitydeposit,0,_vacancy, msg.sender, address(0)) */\n      tag_136\n      swap4\n      swap3\n      dup6\n      add\n      swap3\n      swap2\n      add\n      swap1\n      tag_104\n      jump\t// in\n    tag_136:\n      pop\n      0x60\n      dup3\n      add\n      mload\n      dup1\n      mload\n      tag_137\n      swap2\n      0x03\n      dup5\n      add\n      swap2\n      0x20\n      swap1\n      swap2\n      add\n      swap1\n      tag_104\n      jump\t// in\n    tag_137:\n      pop\n      0x80\n      dup3\n      add\n      mload\n      0x04\n      dup3\n      add\n      sstore\n      0xa0\n      dup3\n      add\n      mload\n      0x05\n      dup3\n      add\n      sstore\n      0xc0\n      dup3\n      add\n      mload\n      0x06\n      dup3\n      add\n      sstore\n      0xe0\n      dup3\n      add\n      mload\n      0x07\n      dup3\n      add\n      dup1\n      sload\n      0x0100\n      dup1\n      dup7\n      add\n      mload\n      not(0xff)\n      swap1\n      swap3\n      and\n      swap4\n      iszero\n      iszero\n      swap4\n      swap1\n      swap4\n      or\n      not(sub(shl(0xa8, 0x01), 0x0100))\n      and\n      sub(shl(0xa0, 0x01), 0x01)\n      swap2\n      dup3\n      and\n      swap1\n      swap4\n      mul\n      swap3\n      swap1\n      swap3\n      or\n      swap1\n      sstore\n      0x0120\n      swap1\n      swap3\n      add\n      mload\n      0x08\n      swap1\n      swap2\n      add\n      dup1\n      sload\n      not(sub(shl(0xa0, 0x01), 0x01))\n      and\n      swap2\n      swap1\n      swap3\n      and\n      or\n      swap1\n      sstore\n      pop\n      pop\n      pop\n      pop\n      pop\n        /* \"hotel.sol\":3155:3533  function addRoom(string memory _roomname, string memory _roomaddress, uint _rentcost, uint  _securitydeposit) public {\r... */\n      jump\t// out\n        /* \"hotel.sol\":185:211  uint public no_of_rent = 0 */\n    tag_66:\n      sload(0x04)\n      dup2\n      jump\t// out\n        /* \"hotel.sol\":1275:1314  mapping(uint => Rent) public Rent_by_No */\n    tag_70:\n      mstore(0x20, 0x07)\n      dup1\n      0x00\n      mstore\n      keccak256(0x00, 0x40)\n      0x00\n      swap2\n      pop\n      swap1\n      pop\n      dup1\n      0x00\n      add\n      sload\n      swap1\n      dup1\n      0x01\n      add\n      sload\n      swap1\n      dup1\n      0x02\n      add\n      sload\n      swap1\n      dup1\n      0x03\n      add\n      dup1\n      sload\n      0x01\n      dup2\n      0x01\n      and\n      iszero\n      0x0100\n      mul\n      sub\n      and\n      0x02\n      swap1\n      div\n      dup1\n      0x1f\n      add\n      0x20\n      dup1\n      swap2\n      div\n      mul\n      0x20\n      add\n      mload(0x40)\n      swap1\n      dup2\n      add\n      0x40\n      mstore\n      dup1\n      swap3\n      swap2\n      swap1\n      dup2\n      dup2\n      mstore\n      0x20\n      add\n      dup3\n      dup1\n      sload\n      0x01\n      dup2\n      0x01\n      and\n      iszero\n      0x0100\n      mul\n      sub\n      and\n      0x02\n      swap1\n      div\n      dup1\n      iszero\n      tag_138\n      jumpi\n      dup1\n      0x1f\n      lt\n      tag_139\n      jumpi\n      0x0100\n      dup1\n      dup4\n      sload\n      div\n      mul\n      dup4\n      mstore\n      swap2\n      0x20\n      add\n      swap2\n      jump(tag_138)\n    tag_139:\n      dup3\n      add\n      swap2\n      swap1\n      0x00\n      mstore\n      keccak256(0x00, 0x20)\n      swap1\n    tag_140:\n      dup2\n      sload\n      dup2\n      mstore\n      swap1\n      0x01\n      add\n      swap1\n      0x20\n      add\n      dup1\n      dup4\n      gt\n      tag_140\n      jumpi\n      dup3\n      swap1\n      sub\n      0x1f\n      and\n      dup3\n      add\n      swap2\n    tag_138:\n      pop\n      pop\n      pop\n      pop\n      0x04\n      dup4\n      add\n      dup1\n      sload\n      0x40\n      dup1\n      mload\n      0x20\n      0x02\n      0x01\n      dup6\n      and\n      iszero\n      0x0100\n      mul\n      not(0x00)\n      add\n      swap1\n      swap5\n      and\n      swap4\n      swap1\n      swap4\n      div\n      0x1f\n      dup2\n      add\n      dup5\n      swap1\n      div\n      dup5\n      mul\n      dup3\n      add\n      dup5\n      add\n      swap1\n      swap3\n      mstore\n      dup2\n      dup2\n      mstore\n      swap5\n      swap6\n      swap5\n      swap4\n      pop\n      swap1\n      dup4\n      add\n      dup3\n      dup3\n      dup1\n      iszero\n      tag_141\n      jumpi\n      dup1\n      0x1f\n      lt\n      tag_142\n      jumpi\n      0x0100\n      dup1\n      dup4\n      sload\n      div\n      mul\n      dup4\n      mstore\n      swap2\n      0x20\n      add\n      swap2\n      jump(tag_141)\n    tag_142:\n      dup3\n      add\n      swap2\n      swap1\n      0x00\n      mstore\n      keccak256(0x00, 0x20)\n      swap1\n    tag_143:\n      dup2\n      sload\n      dup2\n      mstore\n      swap1\n      0x01\n      add\n      swap1\n      0x20\n      add\n      dup1\n      dup4\n      gt\n      tag_143\n      jumpi\n      dup3\n      swap1\n      sub\n      0x1f\n      and\n      dup3\n      add\n      swap2\n    tag_141:\n      pop\n      pop\n      pop\n      0x05\n      dup5\n      add\n      sload\n      0x06\n      dup6\n      add\n      sload\n      0x07\n      dup7\n      add\n      sload\n      0x08\n      swap1\n      swap7\n      add\n      sload\n      swap5\n      swap6\n      swap2\n      swap5\n      swap1\n      swap4\n      pop\n      sub(shl(0xa0, 0x01), 0x01)\n      swap2\n      dup3\n      and\n      swap3\n      pop\n      and\n      dup10\n      jump\t// out\n        /* \"hotel.sol\":4645:5279  function payRent(uint _index) public payable sameTenant(_index) RentTimesUp(_index) enoughRent(_index){\r... */\n    tag_81:\n        /* \"hotel.sol\":2261:2279  Room_by_No[_index] */\n      0x00\n      dup2\n      dup2\n      mstore\n        /* \"hotel.sol\":2261:2271  Room_by_No */\n      0x05\n        /* \"hotel.sol\":2261:2279  Room_by_No[_index] */\n      0x20\n      mstore\n      0x40\n      swap1\n      keccak256\n        /* \"hotel.sol\":2261:2293  Room_by_No[_index].currentTenant */\n      0x08\n      add\n      sload\n        /* \"hotel.sol\":2261:2279  Room_by_No[_index] */\n      dup2\n      swap1\n      sub(shl(0xa0, 0x01), 0x01)\n        /* \"hotel.sol\":2261:2293  Room_by_No[_index].currentTenant */\n      and\n        /* \"hotel.sol\":2247:2257  msg.sender */\n      caller\n        /* \"hotel.sol\":2247:2293  msg.sender == Room_by_No[_index].currentTenant */\n      eq\n        /* \"hotel.sol\":2239:2333  require(msg.sender == Room_by_No[_index].currentTenant, \"No prevous agreement found with you\") */\n      tag_145\n      jumpi\n      mload(0x40)\n      shl(0xe5, 0x461bcd)\n      dup2\n      mstore\n      0x04\n      add\n      dup1\n      dup1\n      0x20\n      add\n      dup3\n      dup2\n      sub\n      dup3\n      mstore\n      0x23\n      dup2\n      mstore\n      0x20\n      add\n      dup1\n      data_f80808684c65a350e02bfd3a101f4502011302fccf7d5eec9dfdf55c969bd994\n      0x23\n      swap2\n      codecopy\n      0x40\n      add\n      swap2\n      pop\n      pop\n      mload(0x40)\n      dup1\n      swap2\n      sub\n      swap1\n      revert\n    tag_145:\n        /* \"hotel.sol\":3021:3030  uint time */\n      0x00\n        /* \"hotel.sol\":3033:3051  Room_by_No[_index] */\n      dup3\n      dup2\n      mstore\n        /* \"hotel.sol\":3033:3043  Room_by_No */\n      0x05\n        /* \"hotel.sol\":3033:3051  Room_by_No[_index] */\n      0x20\n      mstore\n      0x40\n      swap1\n      keccak256\n        /* \"hotel.sol\":3033:3061  Room_by_No[_index].timestamp */\n      0x06\n      add\n      sload\n        /* \"hotel.sol\":4721:4727  _index */\n      dup3\n      swap1\n        /* \"hotel.sol\":3064:3071  30 days */\n      0x278d00\n        /* \"hotel.sol\":3033:3071  Room_by_No[_index].timestamp + 30 days */\n      add\n        /* \"hotel.sol\":3090:3093  now */\n      timestamp\n        /* \"hotel.sol\":3090:3101  now >= time */\n      dup2\n      gt\n      iszero\n        /* \"hotel.sol\":3082:3127  require(now >= time, \"TIme left to pay Rent\") */\n      tag_147\n      jumpi\n      0x40\n      dup1\n      mload\n      shl(0xe5, 0x461bcd)\n      dup2\n      mstore\n      0x20\n      0x04\n      dup3\n      add\n      mstore\n      0x15\n      0x24\n      dup3\n      add\n      mstore\n      shl(0x5a, 0x15125b59481b19599d081d1bc81c185e4814995b9d)\n      0x44\n      dup3\n      add\n      mstore\n      swap1\n      mload\n      swap1\n      dup2\n      swap1\n      sub\n      0x64\n      add\n      swap1\n      revert\n    tag_147:\n        /* \"hotel.sol\":1870:1888  Room_by_No[_index] */\n      0x00\n      dup5\n      dup2\n      mstore\n        /* \"hotel.sol\":1870:1880  Room_by_No */\n      0x05\n        /* \"hotel.sol\":1870:1888  Room_by_No[_index] */\n      0x20\n      mstore\n      0x40\n      swap1\n      keccak256\n        /* \"hotel.sol\":1870:1903  Room_by_No[_index].rent_per_month */\n      0x04\n      add\n      sload\n        /* \"hotel.sol\":4740:4746  _index */\n      dup5\n      swap1\n        /* \"hotel.sol\":1852:1861  msg.value */\n      callvalue\n        /* \"hotel.sol\":1852:1904  msg.value >= uint(Room_by_No[_index].rent_per_month) */\n      lt\n      iszero\n        /* \"hotel.sol\":1844:1940  require(msg.value >= uint(Room_by_No[_index].rent_per_month), \"Not enough Ether in your wallet\") */\n      tag_149\n      jumpi\n      0x40\n      dup1\n      mload\n      shl(0xe5, 0x461bcd)\n      dup2\n      mstore\n      0x20\n      0x04\n      dup3\n      add\n      mstore\n      0x1f\n      0x24\n      dup3\n      add\n      mstore\n      0x4e6f7420656e6f75676820457468657220696e20796f75722077616c6c657400\n      0x44\n      dup3\n      add\n      mstore\n      swap1\n      mload\n      swap1\n      dup2\n      swap1\n      sub\n      0x64\n      add\n      swap1\n      revert\n    tag_149:\n        /* \"hotel.sol\":4766:4776  msg.sender */\n      caller\n        /* \"hotel.sol\":4758:4791  require(msg.sender != address(0)) */\n      tag_151\n      jumpi\n      0x00\n      dup1\n      revert\n    tag_151:\n        /* \"hotel.sol\":4802:4827  address payable _landlord */\n      0x00\n        /* \"hotel.sol\":4830:4848  Room_by_No[_index] */\n      dup6\n      dup2\n      mstore\n        /* \"hotel.sol\":4830:4840  Room_by_No */\n      0x05\n        /* \"hotel.sol\":4830:4848  Room_by_No[_index] */\n      0x20\n      mstore\n      0x40\n      dup1\n      dup3\n      keccak256\n        /* \"hotel.sol\":4830:4857  Room_by_No[_index].landlord */\n      0x07\n      dup2\n      add\n      sload\n        /* \"hotel.sol\":4881:4914  Room_by_No[_index].rent_per_month */\n      0x04\n      swap1\n      swap2\n      add\n      sload\n        /* \"hotel.sol\":4925:4950  _landlord.transfer(_rent) */\n      swap2\n      mload\n        /* \"hotel.sol\":4830:4857  Room_by_No[_index].landlord */\n      0x0100\n      swap1\n      swap2\n      div\n      sub(shl(0xa0, 0x01), 0x01)\n      and\n      swap3\n      dup4\n      swap2\n        /* \"hotel.sol\":4925:4950  _landlord.transfer(_rent) */\n      0x08fc\n      dup5\n      iszero\n      mul\n      swap2\n        /* \"hotel.sol\":4881:4914  Room_by_No[_index].rent_per_month */\n      dup5\n      swap2\n        /* \"hotel.sol\":4925:4950  _landlord.transfer(_rent) */\n      swap1\n      dup2\n        /* \"hotel.sol\":4802:4827  address payable _landlord */\n      dup2\n        /* \"hotel.sol\":4925:4950  _landlord.transfer(_rent) */\n      dup2\n        /* \"hotel.sol\":4881:4914  Room_by_No[_index].rent_per_month */\n      dup6\n        /* \"hotel.sol\":4830:4857  Room_by_No[_index].landlord */\n      dup9\n        /* \"hotel.sol\":4925:4950  _landlord.transfer(_rent) */\n      dup9\n      call\n      swap4\n      pop\n      pop\n      pop\n      pop\n      iszero\n        /* \"--CODEGEN--\":8:17   */\n      dup1\n        /* \"--CODEGEN--\":5:7   */\n      iszero\n      tag_152\n      jumpi\n        /* \"--CODEGEN--\":45:61   */\n      returndatasize\n        /* \"--CODEGEN--\":42:43   */\n      0x00\n        /* \"--CODEGEN--\":39:40   */\n      dup1\n        /* \"--CODEGEN--\":24:62   */\n      returndatacopy\n        /* \"--CODEGEN--\":77:93   */\n      returndatasize\n        /* \"--CODEGEN--\":74:75   */\n      0x00\n        /* \"--CODEGEN--\":67:94   */\n      revert\n        /* \"--CODEGEN--\":5:7   */\n    tag_152:\n      pop\n        /* \"hotel.sol\":4961:4979  Room_by_No[_index] */\n      0x00\n      dup8\n      dup2\n      mstore\n        /* \"hotel.sol\":4961:4971  Room_by_No */\n      0x05\n        /* \"hotel.sol\":4961:4979  Room_by_No[_index] */\n      0x20\n      dup2\n      dup2\n      mstore\n      0x40\n      dup1\n      dup5\n      keccak256\n        /* \"hotel.sol\":4961:4993  Room_by_No[_index].currentTenant */\n      0x08\n      dup2\n      add\n        /* \"hotel.sol\":4961:5006  Room_by_No[_index].currentTenant = msg.sender */\n      dup1\n      sload\n      not(sub(shl(0xa0, 0x01), 0x01))\n      and\n        /* \"hotel.sol\":4996:5006  msg.sender */\n      caller\n        /* \"hotel.sol\":4961:5006  Room_by_No[_index].currentTenant = msg.sender */\n      or\n      swap1\n      sstore\n        /* \"hotel.sol\":5017:5042  Room_by_No[_index].vacant */\n      0x07\n      dup2\n      add\n        /* \"hotel.sol\":5017:5050  Room_by_No[_index].vacant = false */\n      dup1\n      sload\n      not(0xff)\n      and\n      swap1\n      sstore\n        /* \"hotel.sol\":5061:5071  no_of_rent */\n      0x04\n        /* \"hotel.sol\":5061:5073  no_of_rent++ */\n      dup1\n      sload\n        /* \"hotel.sol\":4961:5006  Room_by_No[_index].currentTenant = msg.sender */\n      0x01\n        /* \"hotel.sol\":5061:5073  no_of_rent++ */\n      swap1\n      dup2\n      add\n      swap2\n      dup3\n      swap1\n      sstore\n        /* \"hotel.sol\":5109:5271  Rent(no_of_rent,_index,Room_by_No[_index].agreementid,Room_by_No[_index].roomname,Room_by_No[_index].roomaddress,_rent,now,msg.sender,Room_by_No[_index].landlord) */\n      dup4\n      mload\n      0x0120\n      dup2\n      add\n      dup6\n      mstore\n      swap2\n      dup3\n      mstore\n      dup2\n      dup6\n      add\n      dup15\n      swap1\n      mstore\n        /* \"hotel.sol\":5132:5162  Room_by_No[_index].agreementid */\n      dup1\n      dup4\n      add\n      sload\n        /* \"hotel.sol\":5109:5271  Rent(no_of_rent,_index,Room_by_No[_index].agreementid,Room_by_No[_index].roomname,Room_by_No[_index].roomaddress,_rent,now,msg.sender,Room_by_No[_index].landlord) */\n      dup3\n      dup6\n      add\n      mstore\n        /* \"hotel.sol\":5163:5181  Room_by_No[_index] */\n      swap6\n      dup14\n      swap1\n      mstore\n      swap4\n      dup4\n      mstore\n        /* \"hotel.sol\":5163:5190  Room_by_No[_index].roomname */\n      0x02\n      swap1\n      dup2\n      add\n        /* \"hotel.sol\":5109:5271  Rent(no_of_rent,_index,Room_by_No[_index].agreementid,Room_by_No[_index].roomname,Room_by_No[_index].roomaddress,_rent,now,msg.sender,Room_by_No[_index].landlord) */\n      dup1\n      sload\n      dup4\n      mload\n      0x1f\n      not(0x00)\n      swap9\n      dup4\n      and\n      iszero\n        /* \"hotel.sol\":4961:5006  Room_by_No[_index].currentTenant = msg.sender */\n      0x0100\n        /* \"hotel.sol\":5109:5271  Rent(no_of_rent,_index,Room_by_No[_index].agreementid,Room_by_No[_index].roomname,Room_by_No[_index].roomaddress,_rent,now,msg.sender,Room_by_No[_index].landlord) */\n      mul\n      swap9\n      swap1\n      swap9\n      add\n      swap1\n      swap2\n      and\n      swap3\n      swap1\n      swap3\n      div\n      swap6\n      dup7\n      add\n      dup5\n      swap1\n      div\n      dup5\n      mul\n      dup3\n      add\n      dup5\n      add\n      swap1\n      swap3\n      mstore\n      dup5\n      dup2\n      mstore\n      swap3\n      swap4\n      0x60\n      dup6\n      add\n      swap4\n      swap3\n      dup4\n      add\n        /* \"hotel.sol\":5163:5190  Room_by_No[_index].roomname */\n      dup3\n        /* \"hotel.sol\":5109:5271  Rent(no_of_rent,_index,Room_by_No[_index].agreementid,Room_by_No[_index].roomname,Room_by_No[_index].roomaddress,_rent,now,msg.sender,Room_by_No[_index].landlord) */\n      dup3\n      dup1\n      iszero\n      tag_153\n      jumpi\n      dup1\n      0x1f\n      lt\n      tag_154\n      jumpi\n      0x0100\n      dup1\n      dup4\n      sload\n      div\n      mul\n      dup4\n      mstore\n      swap2\n      0x20\n      add\n      swap2\n      jump(tag_153)\n    tag_154:\n      dup3\n      add\n      swap2\n      swap1\n      0x00\n      mstore\n      keccak256(0x00, 0x20)\n      swap1\n    tag_155:\n      dup2\n      sload\n      dup2\n      mstore\n      swap1\n      0x01\n      add\n      swap1\n      0x20\n      add\n      dup1\n      dup4\n      gt\n      tag_155\n      jumpi\n      dup3\n      swap1\n      sub\n      0x1f\n      and\n      dup3\n      add\n      swap2\n    tag_153:\n      pop\n      pop\n      pop\n      swap2\n      dup4\n      mstore\n      pop\n      pop\n        /* \"hotel.sol\":5191:5209  Room_by_No[_index] */\n      0x00\n      dup10\n      dup2\n      mstore\n        /* \"hotel.sol\":5191:5201  Room_by_No */\n      0x05\n        /* \"hotel.sol\":5109:5271  Rent(no_of_rent,_index,Room_by_No[_index].agreementid,Room_by_No[_index].roomname,Room_by_No[_index].roomaddress,_rent,now,msg.sender,Room_by_No[_index].landlord) */\n      0x20\n        /* \"hotel.sol\":5191:5209  Room_by_No[_index] */\n      swap1\n      dup2\n      mstore\n      0x40\n      swap2\n      dup3\n      swap1\n      keccak256\n        /* \"hotel.sol\":5191:5221  Room_by_No[_index].roomaddress */\n      0x03\n      add\n        /* \"hotel.sol\":5109:5271  Rent(no_of_rent,_index,Room_by_No[_index].agreementid,Room_by_No[_index].roomname,Room_by_No[_index].roomaddress,_rent,now,msg.sender,Room_by_No[_index].landlord) */\n      dup1\n      sload\n      dup4\n      mload\n      0x1f\n      0x02\n      not(0x00)\n      0x0100\n      0x01\n      dup7\n      and\n      iszero\n      mul\n      add\n      swap1\n      swap4\n      and\n      swap3\n      swap1\n      swap3\n      div\n      swap2\n      dup3\n      add\n      dup5\n      swap1\n      div\n      dup5\n      mul\n      dup2\n      add\n      dup5\n      add\n      swap1\n      swap5\n      mstore\n      dup1\n      dup5\n      mstore\n      swap4\n      dup3\n      add\n      swap4\n        /* \"hotel.sol\":5191:5221  Room_by_No[_index].roomaddress */\n      swap1\n      swap2\n        /* \"hotel.sol\":5109:5271  Rent(no_of_rent,_index,Room_by_No[_index].agreementid,Room_by_No[_index].roomname,Room_by_No[_index].roomaddress,_rent,now,msg.sender,Room_by_No[_index].landlord) */\n      dup4\n      add\n        /* \"hotel.sol\":5191:5221  Room_by_No[_index].roomaddress */\n      dup3\n        /* \"hotel.sol\":5109:5271  Rent(no_of_rent,_index,Room_by_No[_index].agreementid,Room_by_No[_index].roomname,Room_by_No[_index].roomaddress,_rent,now,msg.sender,Room_by_No[_index].landlord) */\n      dup3\n      dup1\n      iszero\n      tag_156\n      jumpi\n      dup1\n      0x1f\n      lt\n      tag_157\n      jumpi\n      0x0100\n      dup1\n      dup4\n      sload\n      div\n      mul\n      dup4\n      mstore\n      swap2\n      0x20\n      add\n      swap2\n      jump(tag_156)\n    tag_157:\n      dup3\n      add\n      swap2\n      swap1\n      0x00\n      mstore\n      keccak256(0x00, 0x20)\n      swap1\n    tag_158:\n      dup2\n      sload\n      dup2\n      mstore\n      swap1\n      0x01\n      add\n      swap1\n      0x20\n      add\n      dup1\n      dup4\n      gt\n      tag_158\n      jumpi\n      dup3\n      swap1\n      sub\n      0x1f\n      and\n      dup3\n      add\n      swap2\n    tag_156:\n      pop\n      pop\n      pop\n      swap2\n      dup4\n      mstore\n      pop\n      pop\n      0x20\n      dup1\n      dup3\n      add\n      dup5\n      swap1\n      mstore\n        /* \"hotel.sol\":5228:5231  now */\n      timestamp\n        /* \"hotel.sol\":5109:5271  Rent(no_of_rent,_index,Room_by_No[_index].agreementid,Room_by_No[_index].roomname,Room_by_No[_index].roomaddress,_rent,now,msg.sender,Room_by_No[_index].landlord) */\n      0x40\n      dup1\n      dup5\n      add\n      swap2\n      swap1\n      swap2\n      mstore\n        /* \"hotel.sol\":5232:5242  msg.sender */\n      caller\n        /* \"hotel.sol\":5109:5271  Rent(no_of_rent,_index,Room_by_No[_index].agreementid,Room_by_No[_index].roomname,Room_by_No[_index].roomaddress,_rent,now,msg.sender,Room_by_No[_index].landlord) */\n      0x60\n      dup1\n      dup6\n      add\n      swap2\n      swap1\n      swap2\n      mstore\n      0x00\n        /* \"hotel.sol\":5243:5261  Room_by_No[_index] */\n      dup13\n      dup2\n      mstore\n        /* \"hotel.sol\":5243:5253  Room_by_No */\n      0x05\n        /* \"hotel.sol\":5243:5261  Room_by_No[_index] */\n      dup5\n      mstore\n      dup3\n      dup2\n      keccak256\n        /* \"hotel.sol\":5243:5270  Room_by_No[_index].landlord */\n      0x07\n      swap1\n      dup2\n      add\n      sload\n      0x0100\n      swap1\n      div\n      sub(shl(0xa0, 0x01), 0x01)\n      and\n        /* \"hotel.sol\":5109:5271  Rent(no_of_rent,_index,Room_by_No[_index].agreementid,Room_by_No[_index].roomname,Room_by_No[_index].roomaddress,_rent,now,msg.sender,Room_by_No[_index].landlord) */\n      0x80\n      swap1\n      swap7\n      add\n      swap6\n      swap1\n      swap6\n      mstore\n        /* \"hotel.sol\":5095:5105  no_of_rent */\n      sload(0x04)\n        /* \"hotel.sol\":5084:5106  Rent_by_No[no_of_rent] */\n      dup2\n      mstore\n      swap4\n      dup4\n      mstore\n      swap3\n      dup2\n      swap1\n      keccak256\n        /* \"hotel.sol\":5084:5271  Rent_by_No[no_of_rent] = Rent(no_of_rent,_index,Room_by_No[_index].agreementid,Room_by_No[_index].roomname,Room_by_No[_index].roomaddress,_rent,now,msg.sender,Room_by_No[_index].landlord) */\n      dup5\n      mload\n      dup2\n      sstore\n      dup5\n      dup4\n      add\n      mload\n        /* \"hotel.sol\":5243:5270  Room_by_No[_index].landlord */\n      0x01\n        /* \"hotel.sol\":5084:5271  Rent_by_No[no_of_rent] = Rent(no_of_rent,_index,Room_by_No[_index].agreementid,Room_by_No[_index].roomname,Room_by_No[_index].roomaddress,_rent,now,msg.sender,Room_by_No[_index].landlord) */\n      dup3\n      add\n      sstore\n      swap1\n      dup5\n      add\n      mload\n      0x02\n      dup3\n      add\n      sstore\n      swap2\n      dup4\n      add\n      mload\n      dup1\n      mload\n      tag_159\n      swap3\n      0x03\n      dup6\n      add\n      swap3\n      add\n      swap1\n      tag_104\n      jump\t// in\n    tag_159:\n      pop\n      0x80\n      dup3\n      add\n      mload\n      dup1\n      mload\n      tag_160\n      swap2\n      0x04\n      dup5\n      add\n      swap2\n      0x20\n      swap1\n      swap2\n      add\n      swap1\n      tag_104\n      jump\t// in\n    tag_160:\n      pop\n      0xa0\n      dup3\n      add\n      mload\n      0x05\n      dup3\n      add\n      sstore\n      0xc0\n      dup3\n      add\n      mload\n      0x06\n      dup3\n      add\n      sstore\n      0xe0\n      dup3\n      add\n      mload\n      0x07\n      dup3\n      add\n      dup1\n      sload\n      not(sub(shl(0xa0, 0x01), 0x01))\n      swap1\n      dup2\n      and\n      sub(shl(0xa0, 0x01), 0x01)\n      swap4\n      dup5\n      and\n      or\n      swap1\n      swap2\n      sstore\n      0x0100\n      swap1\n      swap4\n      add\n      mload\n      0x08\n      swap1\n      swap3\n      add\n      dup1\n      sload\n      swap1\n      swap4\n      and\n      swap2\n      and\n      or\n      swap1\n      sstore\n      pop\n      pop\n      pop\n      pop\n      pop\n      pop\n      pop\n        /* \"hotel.sol\":4645:5279  function payRent(uint _index) public payable sameTenant(_index) RentTimesUp(_index) enoughRent(_index){\r... */\n      jump\t// out\n        /* \"hotel.sol\":28:5929  contract Hotel{\r... */\n    tag_104:\n      dup3\n      dup1\n      sload\n      0x01\n      dup2\n      0x01\n      and\n      iszero\n      0x0100\n      mul\n      sub\n      and\n      0x02\n      swap1\n      div\n      swap1\n      0x00\n      mstore\n      keccak256(0x00, 0x20)\n      swap1\n      0x1f\n      add\n      0x20\n      swap1\n      div\n      dup2\n      add\n      swap3\n      dup3\n      0x1f\n      lt\n      tag_162\n      jumpi\n      dup1\n      mload\n      not(0xff)\n      and\n      dup4\n      dup1\n      add\n      or\n      dup6\n      sstore\n      jump(tag_164)\n    tag_162:\n      dup3\n      dup1\n      add\n      0x01\n      add\n      dup6\n      sstore\n      dup3\n      iszero\n      tag_164\n      jumpi\n      swap2\n      dup3\n      add\n    tag_163:\n      dup3\n      dup2\n      gt\n      iszero\n      tag_164\n      jumpi\n      dup3\n      mload\n      dup3\n      sstore\n      swap2\n      0x20\n      add\n      swap2\n      swap1\n      0x01\n      add\n      swap1\n      jump(tag_163)\n    tag_164:\n      pop\n      tag_165\n      swap3\n      swap2\n      pop\n      tag_166\n      jump\t// in\n    tag_165:\n      pop\n      swap1\n      jump\t// out\n    tag_166:\n      tag_167\n      swap2\n      swap1\n    tag_168:\n      dup1\n      dup3\n      gt\n      iszero\n      tag_165\n      jumpi\n      0x00\n      dup2\n      sstore\n      0x01\n      add\n      jump(tag_168)\n    tag_167:\n      swap1\n      jump\t// out\n    stop\n    data_f80808684c65a350e02bfd3a101f4502011302fccf7d5eec9dfdf55c969bd994 4e6f20707265766f75732061677265656d656e7420666f756e64207769746820796f75\n\n    auxdata: 0xa265627a7a723158208067567d47457138274f1229439da4fac9eeee02bf1c7cad52648ac330942afa64736f6c63430005110032\n}\n",
				"bytecode": {
					"linkReferences": {},
					"object": "608060405260006002556000600355600060045534801561001f57600080fd5b50611a808061002f6000396000f3fe60806040526004361061009c5760003560e01c80634f5e4428116100645780634f5e44281461032a57806359e2cbec1461035457806363e475bd1461036957806375eb9ef6146104a8578063d0d205b7146104bd578063d9e8843f1461061a5761009c565b806302bb2725146100a157806303742de0146102055780630ff2a8061461022457806316abb8a11461024b5780634695958714610268575b600080fd5b3480156100ad57600080fd5b506100cb600480360360208110156100c457600080fd5b5035610637565b604051808b81526020018a81526020018060200180602001898152602001888152602001878152602001868152602001856001600160a01b03166001600160a01b03168152602001846001600160a01b03166001600160a01b0316815260200183810383528b818151815260200191508051906020019080838360005b83811015610160578181015183820152602001610148565b50505050905090810190601f16801561018d5780820380516001836020036101000a031916815260200191505b5083810382528a5181528a516020918201918c019080838360005b838110156101c05781810151838201526020016101a8565b50505050905090810190601f1680156101ed5780820380516001836020036101000a031916815260200191505b509c5050505050505050505050505060405180910390f35b6102226004803603602081101561021b57600080fd5b50356107a3565b005b34801561023057600080fd5b50610239610e55565b60408051918252519081900360200190f35b6102226004803603602081101561026157600080fd5b5035610e5b565b34801561027457600080fd5b506102926004803603602081101561028b57600080fd5b503561102d565b604051808b81526020018a8152602001806020018060200189815260200188815260200187815260200186151515158152602001856001600160a01b03166001600160a01b03168152602001846001600160a01b03166001600160a01b0316815260200183810383528b8181518152602001915080519060200190808383600083811015610160578181015183820152602001610148565b34801561033657600080fd5b506102226004803603602081101561034d57600080fd5b503561119c565b34801561036057600080fd5b506102396112bf565b34801561037557600080fd5b506102226004803603608081101561038c57600080fd5b8101906020810181356401000000008111156103a757600080fd5b8201836020820111156103b957600080fd5b803590602001918460018302840111640100000000831117156103db57600080fd5b91908080601f016020809104026020016040519081016040528093929190818152602001838380828437600092019190915250929594936020810193503591505064010000000081111561042e57600080fd5b82018360208201111561044057600080fd5b8035906020019184600183028401116401000000008311171561046257600080fd5b91908080601f01602080910402602001604051908101604052809392919081815260200183838082843760009201919091525092955050823593505050602001356112c5565b3480156104b457600080fd5b506102396113f9565b3480156104c957600080fd5b506104e7600480360360208110156104e057600080fd5b50356113ff565b604051808a81526020018981526020018881526020018060200180602001878152602001868152602001856001600160a01b03166001600160a01b03168152602001846001600160a01b03166001600160a01b03168152602001838103835289818151815260200191508051906020019080838360005b8381101561057657818101518382015260200161055e565b50505050905090810190601f1680156105a35780820380516001836020036101000a031916815260200191505b5083810382528851815288516020918201918a019080838360005b838110156105d65781810151838201526020016105be565b50505050905090810190601f1680156106035780820380516001836020036101000a031916815260200191505b509b50505050505050505050505060405180910390f35b6102226004803603602081101561063057600080fd5b503561157d565b60066020908152600091825260409182902080546001808301546002808501805488519481161561010002600019011691909104601f8101879004870284018701909752868352929590949192918301828280156106d65780601f106106ab576101008083540402835291602001916106d6565b820191906000526020600020905b8154815290600101906020018083116106b957829003601f168201915b5050505060038301805460408051602060026001851615610100026000190190941693909304601f81018490048402820184019092528181529495949350908301828280156107665780601f1061073b57610100808354040283529160200191610766565b820191906000526020600020905b81548152906001019060200180831161074957829003601f168201915b5050506004840154600585015460068601546007870154600888015460099098015496979396929550909350916001600160a01b0390811691168a565b600081815260056020526040902060070154819061010090046001600160a01b0316331415610819576040805162461bcd60e51b815260206004820152601d60248201527f4f6e6c79206c616e646c6f72642063616e206163636573732074686973000000604482015290519081900360640190fd5b60008281526005602081905260409091209081015460049091015483910134101561088b576040805162461bcd60e51b815260206004820152601f60248201527f4e6f7420656e6f75676820457468657220696e20796f75722077616c6c657400604482015290519081900360640190fd5b600083815260056020526040902060070154839060ff1615156001146108f8576040805162461bcd60e51b815260206004820152601b60248201527f526f6f6d2069732063757272656e746c79204f636375706965642e0000000000604482015290519081900360640190fd5b3361090257600080fd5b600084815260056020819052604080832060078101549281015460049091015491516101009093046001600160a01b03169391019183916108fc841502918491818181858888f1935050505015801561095f573d6000803e3d6000fd5b50600380546001908101825560008881526005602081815260408084206008810180546001600160a01b0319163317905560078101805460ff1916905542600682015595548686018190558151610140810183528d815280840191909152938c9052918152600294850180548351601f96821615610100026000190190911696909604948501829004820286018201835284865292949185019391929190830182828015610a4e5780601f10610a2357610100808354040283529160200191610a4e565b820191906000526020600020905b815481529060010190602001808311610a3157829003601f168201915b505050918352505060008881526005602090815260409182902060030180548351601f60026000196101006001861615020190931692909204918201849004840281018401909452808452938201939091830182828015610af05780601f10610ac557610100808354040283529160200191610af0565b820191906000526020600020905b815481529060010190602001808311610ad357829003601f168201915b5050509183525050600088815260056020818152604080842060048101548387015290920154828501526301e1338060608501524260808501523360a08501526001600160a01b03871660c09094019390935260035482526006835290819020835181558383015160018201559083015180519192610b779260028501929091019061198d565b5060608201518051610b9391600384019160209091019061198d565b50608082015160048083019190915560a083015160058084019190915560c0840151600684015560e08401516007840155610100808501516008850180546001600160a01b039283166001600160a01b031991821617909155610120968701516009909601805496909216951694909417909355815460019081019283905560408051958601815292855260208086018c90526003548685015260008c815292815291839020600290810180548551601f9482161590970260001901169190910491820183900483028501830190935280845260608501939291830182828015610cbe5780601f10610c9357610100808354040283529160200191610cbe565b820191906000526020600020905b815481529060010190602001808311610ca157829003601f168201915b505050918352505060008881526005602090815260409182902060030180548351601f60026000196101006001861615020190931692909204918201849004840281018401909452808452938201939091830182828015610d605780601f10610d3557610100808354040283529160200191610d60565b820191906000526020600020905b815481529060010190602001808311610d4357829003601f168201915b50505091835250506000888152600560209081526040808320600490810154838601524282860152336060808701919091526001600160a01b0389166080909601959095525483526007825291829020845181558482015160018201559184015160028301559183015180519192610de09260038501929091019061198d565b5060808201518051610dfc91600484019160209091019061198d565b5060a0820151600582015560c0820151600682015560e08201516007820180546001600160a01b03199081166001600160a01b039384161790915561010090930151600890920180549093169116179055505050505050565b60035481565b600081815260056020526040902060070154819061010090046001600160a01b03163314610ed0576040805162461bcd60e51b815260206004820152601d60248201527f4f6e6c79206c616e646c6f72642063616e206163636573732074686973000000604482015290519081900360640190fd5b60008281526005602090815260408083206001015480845260069283905292209081015460079091015484929101428111610f52576040805162461bcd60e51b815260206004820181905260248201527f54696d65206973206c65667420666f7220636f6e747261637420746f20656e64604482015290519081900360640190fd5b33610f5c57600080fd5b60008581526005602052604090206007015460ff1615610fc3576040805162461bcd60e51b815260206004820152601b60248201527f526f6f6d2069732063757272656e746c79204f636375706965642e0000000000604482015290519081900360640190fd5b600085815260056020819052604080832060078101805460ff19166001179055600881015492015490516001600160a01b03909216929091839183156108fc02918491818181858888f19350505050158015611023573d6000803e3d6000fd5b5050505050505050565b60056020908152600091825260409182902080546001808301546002808501805488519481161561010002600019011691909104601f8101879004870284018701909752868352929590949192918301828280156110cc5780601f106110a1576101008083540402835291602001916110cc565b820191906000526020600020905b8154815290600101906020018083116110af57829003601f168201915b5050505060038301805460408051602060026001851615610100026000190190941693909304601f810184900484028201840190925281815294959493509083018282801561115c5780601f106111315761010080835404028352916020019161115c565b820191906000526020600020905b81548152906001019060200180831161113f57829003601f168201915b505050600484015460058501546006860154600787015460089097015495969295919450925060ff8216916001600160a01b03610100909104811691168a565b600081815260056020526040902060070154819061010090046001600160a01b03163314611211576040805162461bcd60e51b815260206004820152601d60248201527f4f6e6c79206c616e646c6f72642063616e206163636573732074686973000000604482015290519081900360640190fd5b60008281526005602090815260408083206001015480845260069283905292209081015460079091015484929101428111611293576040805162461bcd60e51b815260206004820152601760248201527f41677265656d656e7420616c726561647920456e646564000000000000000000604482015290519081900360640190fd5b3361129d57600080fd5b505050600091825250600560205260409020600701805460ff19166001179055565b60025481565b336112cf57600080fd5b6002805460019081018083556040805161014081018252828152600060208083018281528385018c8152606085018c9052608085018b905260a085018a905260c0850184905260e085018890523361010086015261012085018490529583526005825293909120825181559251838601559251805194959194929361135a939285019291019061198d565b506060820151805161137691600384019160209091019061198d565b506080820151600482015560a0820151600582015560c0820151600682015560e08201516007820180546101008086015160ff1990921693151593909317610100600160a81b0319166001600160a01b0391821690930292909217905561012090920151600890910180546001600160a01b031916919092161790555050505050565b60045481565b6007602052806000526040600020600091509050806000015490806001015490806002015490806003018054600181600116156101000203166002900480601f0160208091040260200160405190810160405280929190818152602001828054600181600116156101000203166002900480156114bd5780601f10611492576101008083540402835291602001916114bd565b820191906000526020600020905b8154815290600101906020018083116114a057829003601f168201915b5050505060048301805460408051602060026001851615610100026000190190941693909304601f810184900484028201840190925281815294959493509083018282801561154d5780601f106115225761010080835404028352916020019161154d565b820191906000526020600020905b81548152906001019060200180831161153057829003601f168201915b505050600584015460068501546007860154600890960154949591949093506001600160a01b0391821692501689565b60008181526005602052604090206008015481906001600160a01b031633146115d75760405162461bcd60e51b8152600401808060200182810382526023815260200180611a296023913960400191505060405180910390fd5b600082815260056020526040902060060154829062278d00014281111561163d576040805162461bcd60e51b815260206004820152601560248201527415125b59481b19599d081d1bc81c185e4814995b9d605a1b604482015290519081900360640190fd5b60008481526005602052604090206004015484903410156116a5576040805162461bcd60e51b815260206004820152601f60248201527f4e6f7420656e6f75676820457468657220696e20796f75722077616c6c657400604482015290519081900360640190fd5b336116af57600080fd5b600085815260056020526040808220600781015460049091015491516101009091046001600160a01b03169283916108fc84150291849190818181858888f19350505050158015611704573d6000803e3d6000fd5b5060008781526005602081815260408084206008810180546001600160a01b0319163317905560078101805460ff19169055600480546001908101918290558351610120810185529182528185018e90528083015482850152958d9052938352600290810180548351601f6000199883161561010002989098019091169290920495860184900484028201840190925284815292936060850193928301828280156117f05780601f106117c5576101008083540402835291602001916117f0565b820191906000526020600020905b8154815290600101906020018083116117d357829003601f168201915b505050918352505060008981526005602090815260409182902060030180548351601f600260001961010060018616150201909316929092049182018490048402810184019094528084529382019390918301828280156118925780601f1061186757610100808354040283529160200191611892565b820191906000526020600020905b81548152906001019060200180831161187557829003601f168201915b50505091835250506020808201849052426040808401919091523360608085019190915260008c81526005845282812060079081015461010090046001600160a01b031660809096019590955260045481529383529281902084518155848301516001820155908401516002820155918301518051611917926003850192019061198d565b506080820151805161193391600484019160209091019061198d565b5060a0820151600582015560c0820151600682015560e08201516007820180546001600160a01b03199081166001600160a01b03938416179091556101009093015160089092018054909316911617905550505050505050565b828054600181600116156101000203166002900490600052602060002090601f016020900481019282601f106119ce57805160ff19168380011785556119fb565b828001600101855582156119fb579182015b828111156119fb5782518255916020019190600101906119e0565b50611a07929150611a0b565b5090565b611a2591905b80821115611a075760008155600101611a11565b9056fe4e6f20707265766f75732061677265656d656e7420666f756e64207769746820796f75a265627a7a723158208067567d47457138274f1229439da4fac9eeee02bf1c7cad52648ac330942afa64736f6c63430005110032",
					"opcodes": "PUSH1 0x80 PUSH1 0x40 MSTORE PUSH1 0x0 PUSH1 0x2 SSTORE PUSH1 0x0 PUSH1 0x3 SSTORE PUSH1 0x0 PUSH1 0x4 SSTORE CALLVALUE DUP1 ISZERO PUSH2 0x1F JUMPI PUSH1 0x0 DUP1 REVERT JUMPDEST POP PUSH2 0x1A80 DUP1 PUSH2 0x2F PUSH1 0x0 CODECOPY PUSH1 0x0 RETURN INVALID PUSH1 0x80 PUSH1 0x40 MSTORE PUSH1 0x4 CALLDATASIZE LT PUSH2 0x9C JUMPI PUSH1 0x0 CALLDATALOAD PUSH1 0xE0 SHR DUP1 PUSH4 0x4F5E4428 GT PUSH2 0x64 JUMPI DUP1 PUSH4 0x4F5E4428 EQ PUSH2 0x32A JUMPI DUP1 PUSH4 0x59E2CBEC EQ PUSH2 0x354 JUMPI DUP1 PUSH4 0x63E475BD EQ PUSH2 0x369 JUMPI DUP1 PUSH4 0x75EB9EF6 EQ PUSH2 0x4A8 JUMPI DUP1 PUSH4 0xD0D205B7 EQ PUSH2 0x4BD JUMPI DUP1 PUSH4 0xD9E8843F EQ PUSH2 0x61A JUMPI PUSH2 0x9C JUMP JUMPDEST DUP1 PUSH4 0x2BB2725 EQ PUSH2 0xA1 JUMPI DUP1 PUSH4 0x3742DE0 EQ PUSH2 0x205 JUMPI DUP1 PUSH4 0xFF2A806 EQ PUSH2 0x224 JUMPI DUP1 PUSH4 0x16ABB8A1 EQ PUSH2 0x24B JUMPI DUP1 PUSH4 0x46959587 EQ PUSH2 0x268 JUMPI JUMPDEST PUSH1 0x0 DUP1 REVERT JUMPDEST CALLVALUE DUP1 ISZERO PUSH2 0xAD JUMPI PUSH1 0x0 DUP1 REVERT JUMPDEST POP PUSH2 0xCB PUSH1 0x4 DUP1 CALLDATASIZE SUB PUSH1 0x20 DUP2 LT ISZERO PUSH2 0xC4 JUMPI PUSH1 0x0 DUP1 REVERT JUMPDEST POP CALLDATALOAD PUSH2 0x637 JUMP JUMPDEST PUSH1 0x40 MLOAD DUP1 DUP12 DUP2 MSTORE PUSH1 0x20 ADD DUP11 DUP2 MSTORE PUSH1 0x20 ADD DUP1 PUSH1 0x20 ADD DUP1 PUSH1 0x20 ADD DUP10 DUP2 MSTORE PUSH1 0x20 ADD DUP9 DUP2 MSTORE PUSH1 0x20 ADD DUP8 DUP2 MSTORE PUSH1 0x20 ADD DUP7 DUP2 MSTORE PUSH1 0x20 ADD DUP6 PUSH1 0x1 PUSH1 0x1 PUSH1 0xA0 SHL SUB AND PUSH1 0x1 PUSH1 0x1 PUSH1 0xA0 SHL SUB AND DUP2 MSTORE PUSH1 0x20 ADD DUP5 PUSH1 0x1 PUSH1 0x1 PUSH1 0xA0 SHL SUB AND PUSH1 0x1 PUSH1 0x1 PUSH1 0xA0 SHL SUB AND DUP2 MSTORE PUSH1 0x20 ADD DUP4 DUP2 SUB DUP4 MSTORE DUP12 DUP2 DUP2 MLOAD DUP2 MSTORE PUSH1 0x20 ADD SWAP2 POP DUP1 MLOAD SWAP1 PUSH1 0x20 ADD SWAP1 DUP1 DUP4 DUP4 PUSH1 0x0 JUMPDEST DUP4 DUP2 LT ISZERO PUSH2 0x160 JUMPI DUP2 DUP2 ADD MLOAD DUP4 DUP3 ADD MSTORE PUSH1 0x20 ADD PUSH2 0x148 JUMP JUMPDEST POP POP POP POP SWAP1 POP SWAP1 DUP2 ADD SWAP1 PUSH1 0x1F AND DUP1 ISZERO PUSH2 0x18D JUMPI DUP1 DUP3 SUB DUP1 MLOAD PUSH1 0x1 DUP4 PUSH1 0x20 SUB PUSH2 0x100 EXP SUB NOT AND DUP2 MSTORE PUSH1 0x20 ADD SWAP2 POP JUMPDEST POP DUP4 DUP2 SUB DUP3 MSTORE DUP11 MLOAD DUP2 MSTORE DUP11 MLOAD PUSH1 0x20 SWAP2 DUP3 ADD SWAP2 DUP13 ADD SWAP1 DUP1 DUP4 DUP4 PUSH1 0x0 JUMPDEST DUP4 DUP2 LT ISZERO PUSH2 0x1C0 JUMPI DUP2 DUP2 ADD MLOAD DUP4 DUP3 ADD MSTORE PUSH1 0x20 ADD PUSH2 0x1A8 JUMP JUMPDEST POP POP POP POP SWAP1 POP SWAP1 DUP2 ADD SWAP1 PUSH1 0x1F AND DUP1 ISZERO PUSH2 0x1ED JUMPI DUP1 DUP3 SUB DUP1 MLOAD PUSH1 0x1 DUP4 PUSH1 0x20 SUB PUSH2 0x100 EXP SUB NOT AND DUP2 MSTORE PUSH1 0x20 ADD SWAP2 POP JUMPDEST POP SWAP13 POP POP POP POP POP POP POP POP POP POP POP POP POP PUSH1 0x40 MLOAD DUP1 SWAP2 SUB SWAP1 RETURN JUMPDEST PUSH2 0x222 PUSH1 0x4 DUP1 CALLDATASIZE SUB PUSH1 0x20 DUP2 LT ISZERO PUSH2 0x21B JUMPI PUSH1 0x0 DUP1 REVERT JUMPDEST POP CALLDATALOAD PUSH2 0x7A3 JUMP JUMPDEST STOP JUMPDEST CALLVALUE DUP1 ISZERO PUSH2 0x230 JUMPI PUSH1 0x0 DUP1 REVERT JUMPDEST POP PUSH2 0x239 PUSH2 0xE55 JUMP JUMPDEST PUSH1 0x40 DUP1 MLOAD SWAP2 DUP3 MSTORE MLOAD SWAP1 DUP2 SWAP1 SUB PUSH1 0x20 ADD SWAP1 RETURN JUMPDEST PUSH2 0x222 PUSH1 0x4 DUP1 CALLDATASIZE SUB PUSH1 0x20 DUP2 LT ISZERO PUSH2 0x261 JUMPI PUSH1 0x0 DUP1 REVERT JUMPDEST POP CALLDATALOAD PUSH2 0xE5B JUMP JUMPDEST CALLVALUE DUP1 ISZERO PUSH2 0x274 JUMPI PUSH1 0x0 DUP1 REVERT JUMPDEST POP PUSH2 0x292 PUSH1 0x4 DUP1 CALLDATASIZE SUB PUSH1 0x20 DUP2 LT ISZERO PUSH2 0x28B JUMPI PUSH1 0x0 DUP1 REVERT JUMPDEST POP CALLDATALOAD PUSH2 0x102D JUMP JUMPDEST PUSH1 0x40 MLOAD DUP1 DUP12 DUP2 MSTORE PUSH1 0x20 ADD DUP11 DUP2 MSTORE PUSH1 0x20 ADD DUP1 PUSH1 0x20 ADD DUP1 PUSH1 0x20 ADD DUP10 DUP2 MSTORE PUSH1 0x20 ADD DUP9 DUP2 MSTORE PUSH1 0x20 ADD DUP8 DUP2 MSTORE PUSH1 0x20 ADD DUP7 ISZERO ISZERO ISZERO ISZERO DUP2 MSTORE PUSH1 0x20 ADD DUP6 PUSH1 0x1 PUSH1 0x1 PUSH1 0xA0 SHL SUB AND PUSH1 0x1 PUSH1 0x1 PUSH1 0xA0 SHL SUB AND DUP2 MSTORE PUSH1 0x20 ADD DUP5 PUSH1 0x1 PUSH1 0x1 PUSH1 0xA0 SHL SUB AND PUSH1 0x1 PUSH1 0x1 PUSH1 0xA0 SHL SUB AND DUP2 MSTORE PUSH1 0x20 ADD DUP4 DUP2 SUB DUP4 MSTORE DUP12 DUP2 DUP2 MLOAD DUP2 MSTORE PUSH1 0x20 ADD SWAP2 POP DUP1 MLOAD SWAP1 PUSH1 0x20 ADD SWAP1 DUP1 DUP4 DUP4 PUSH1 0x0 DUP4 DUP2 LT ISZERO PUSH2 0x160 JUMPI DUP2 DUP2 ADD MLOAD DUP4 DUP3 ADD MSTORE PUSH1 0x20 ADD PUSH2 0x148 JUMP JUMPDEST CALLVALUE DUP1 ISZERO PUSH2 0x336 JUMPI PUSH1 0x0 DUP1 REVERT JUMPDEST POP PUSH2 0x222 PUSH1 0x4 DUP1 CALLDATASIZE SUB PUSH1 0x20 DUP2 LT ISZERO PUSH2 0x34D JUMPI PUSH1 0x0 DUP1 REVERT JUMPDEST POP CALLDATALOAD PUSH2 0x119C JUMP JUMPDEST CALLVALUE DUP1 ISZERO PUSH2 0x360 JUMPI PUSH1 0x0 DUP1 REVERT JUMPDEST POP PUSH2 0x239 PUSH2 0x12BF JUMP JUMPDEST CALLVALUE DUP1 ISZERO PUSH2 0x375 JUMPI PUSH1 0x0 DUP1 REVERT JUMPDEST POP PUSH2 0x222 PUSH1 0x4 DUP1 CALLDATASIZE SUB PUSH1 0x80 DUP2 LT ISZERO PUSH2 0x38C JUMPI PUSH1 0x0 DUP1 REVERT JUMPDEST DUP2 ADD SWAP1 PUSH1 0x20 DUP2 ADD DUP2 CALLDATALOAD PUSH5 0x100000000 DUP2 GT ISZERO PUSH2 0x3A7 JUMPI PUSH1 0x0 DUP1 REVERT JUMPDEST DUP3 ADD DUP4 PUSH1 0x20 DUP3 ADD GT ISZERO PUSH2 0x3B9 JUMPI PUSH1 0x0 DUP1 REVERT JUMPDEST DUP1 CALLDATALOAD SWAP1 PUSH1 0x20 ADD SWAP2 DUP5 PUSH1 0x1 DUP4 MUL DUP5 ADD GT PUSH5 0x100000000 DUP4 GT OR ISZERO PUSH2 0x3DB JUMPI PUSH1 0x0 DUP1 REVERT JUMPDEST SWAP2 SWAP1 DUP1 DUP1 PUSH1 0x1F ADD PUSH1 0x20 DUP1 SWAP2 DIV MUL PUSH1 0x20 ADD PUSH1 0x40 MLOAD SWAP1 DUP2 ADD PUSH1 0x40 MSTORE DUP1 SWAP4 SWAP3 SWAP2 SWAP1 DUP2 DUP2 MSTORE PUSH1 0x20 ADD DUP4 DUP4 DUP1 DUP3 DUP5 CALLDATACOPY PUSH1 0x0 SWAP3 ADD SWAP2 SWAP1 SWAP2 MSTORE POP SWAP3 SWAP6 SWAP5 SWAP4 PUSH1 0x20 DUP2 ADD SWAP4 POP CALLDATALOAD SWAP2 POP POP PUSH5 0x100000000 DUP2 GT ISZERO PUSH2 0x42E JUMPI PUSH1 0x0 DUP1 REVERT JUMPDEST DUP3 ADD DUP4 PUSH1 0x20 DUP3 ADD GT ISZERO PUSH2 0x440 JUMPI PUSH1 0x0 DUP1 REVERT JUMPDEST DUP1 CALLDATALOAD SWAP1 PUSH1 0x20 ADD SWAP2 DUP5 PUSH1 0x1 DUP4 MUL DUP5 ADD GT PUSH5 0x100000000 DUP4 GT OR ISZERO PUSH2 0x462 JUMPI PUSH1 0x0 DUP1 REVERT JUMPDEST SWAP2 SWAP1 DUP1 DUP1 PUSH1 0x1F ADD PUSH1 0x20 DUP1 SWAP2 DIV MUL PUSH1 0x20 ADD PUSH1 0x40 MLOAD SWAP1 DUP2 ADD PUSH1 0x40 MSTORE DUP1 SWAP4 SWAP3 SWAP2 SWAP1 DUP2 DUP2 MSTORE PUSH1 0x20 ADD DUP4 DUP4 DUP1 DUP3 DUP5 CALLDATACOPY PUSH1 0x0 SWAP3 ADD SWAP2 SWAP1 SWAP2 MSTORE POP SWAP3 SWAP6 POP POP DUP3 CALLDATALOAD SWAP4 POP POP POP PUSH1 0x20 ADD CALLDATALOAD PUSH2 0x12C5 JUMP JUMPDEST CALLVALUE DUP1 ISZERO PUSH2 0x4B4 JUMPI PUSH1 0x0 DUP1 REVERT JUMPDEST POP PUSH2 0x239 PUSH2 0x13F9 JUMP JUMPDEST CALLVALUE DUP1 ISZERO PUSH2 0x4C9 JUMPI PUSH1 0x0 DUP1 REVERT JUMPDEST POP PUSH2 0x4E7 PUSH1 0x4 DUP1 CALLDATASIZE SUB PUSH1 0x20 DUP2 LT ISZERO PUSH2 0x4E0 JUMPI PUSH1 0x0 DUP1 REVERT JUMPDEST POP CALLDATALOAD PUSH2 0x13FF JUMP JUMPDEST PUSH1 0x40 MLOAD DUP1 DUP11 DUP2 MSTORE PUSH1 0x20 ADD DUP10 DUP2 MSTORE PUSH1 0x20 ADD DUP9 DUP2 MSTORE PUSH1 0x20 ADD DUP1 PUSH1 0x20 ADD DUP1 PUSH1 0x20 ADD DUP8 DUP2 MSTORE PUSH1 0x20 ADD DUP7 DUP2 MSTORE PUSH1 0x20 ADD DUP6 PUSH1 0x1 PUSH1 0x1 PUSH1 0xA0 SHL SUB AND PUSH1 0x1 PUSH1 0x1 PUSH1 0xA0 SHL SUB AND DUP2 MSTORE PUSH1 0x20 ADD DUP5 PUSH1 0x1 PUSH1 0x1 PUSH1 0xA0 SHL SUB AND PUSH1 0x1 PUSH1 0x1 PUSH1 0xA0 SHL SUB AND DUP2 MSTORE PUSH1 0x20 ADD DUP4 DUP2 SUB DUP4 MSTORE DUP10 DUP2 DUP2 MLOAD DUP2 MSTORE PUSH1 0x20 ADD SWAP2 POP DUP1 MLOAD SWAP1 PUSH1 0x20 ADD SWAP1 DUP1 DUP4 DUP4 PUSH1 0x0 JUMPDEST DUP4 DUP2 LT ISZERO PUSH2 0x576 JUMPI DUP2 DUP2 ADD MLOAD DUP4 DUP3 ADD MSTORE PUSH1 0x20 ADD PUSH2 0x55E JUMP JUMPDEST POP POP POP POP SWAP1 POP SWAP1 DUP2 ADD SWAP1 PUSH1 0x1F AND DUP1 ISZERO PUSH2 0x5A3 JUMPI DUP1 DUP3 SUB DUP1 MLOAD PUSH1 0x1 DUP4 PUSH1 0x20 SUB PUSH2 0x100 EXP SUB NOT AND DUP2 MSTORE PUSH1 0x20 ADD SWAP2 POP JUMPDEST POP DUP4 DUP2 SUB DUP3 MSTORE DUP9 MLOAD DUP2 MSTORE DUP9 MLOAD PUSH1 0x20 SWAP2 DUP3 ADD SWAP2 DUP11 ADD SWAP1 DUP1 DUP4 DUP4 PUSH1 0x0 JUMPDEST DUP4 DUP2 LT ISZERO PUSH2 0x5D6 JUMPI DUP2 DUP2 ADD MLOAD DUP4 DUP3 ADD MSTORE PUSH1 0x20 ADD PUSH2 0x5BE JUMP JUMPDEST POP POP POP POP SWAP1 POP SWAP1 DUP2 ADD SWAP1 PUSH1 0x1F AND DUP1 ISZERO PUSH2 0x603 JUMPI DUP1 DUP3 SUB DUP1 MLOAD PUSH1 0x1 DUP4 PUSH1 0x20 SUB PUSH2 0x100 EXP SUB NOT AND DUP2 MSTORE PUSH1 0x20 ADD SWAP2 POP JUMPDEST POP SWAP12 POP POP POP POP POP POP POP POP POP POP POP POP PUSH1 0x40 MLOAD DUP1 SWAP2 SUB SWAP1 RETURN JUMPDEST PUSH2 0x222 PUSH1 0x4 DUP1 CALLDATASIZE SUB PUSH1 0x20 DUP2 LT ISZERO PUSH2 0x630 JUMPI PUSH1 0x0 DUP1 REVERT JUMPDEST POP CALLDATALOAD PUSH2 0x157D JUMP JUMPDEST PUSH1 0x6 PUSH1 0x20 SWAP1 DUP2 MSTORE PUSH1 0x0 SWAP2 DUP3 MSTORE PUSH1 0x40 SWAP2 DUP3 SWAP1 KECCAK256 DUP1 SLOAD PUSH1 0x1 DUP1 DUP4 ADD SLOAD PUSH1 0x2 DUP1 DUP6 ADD DUP1 SLOAD DUP9 MLOAD SWAP5 DUP2 AND ISZERO PUSH2 0x100 MUL PUSH1 0x0 NOT ADD AND SWAP2 SWAP1 SWAP2 DIV PUSH1 0x1F DUP2 ADD DUP8 SWAP1 DIV DUP8 MUL DUP5 ADD DUP8 ADD SWAP1 SWAP8 MSTORE DUP7 DUP4 MSTORE SWAP3 SWAP6 SWAP1 SWAP5 SWAP2 SWAP3 SWAP2 DUP4 ADD DUP3 DUP3 DUP1 ISZERO PUSH2 0x6D6 JUMPI DUP1 PUSH1 0x1F LT PUSH2 0x6AB JUMPI PUSH2 0x100 DUP1 DUP4 SLOAD DIV MUL DUP4 MSTORE SWAP2 PUSH1 0x20 ADD SWAP2 PUSH2 0x6D6 JUMP JUMPDEST DUP3 ADD SWAP2 SWAP1 PUSH1 0x0 MSTORE PUSH1 0x20 PUSH1 0x0 KECCAK256 SWAP1 JUMPDEST DUP2 SLOAD DUP2 MSTORE SWAP1 PUSH1 0x1 ADD SWAP1 PUSH1 0x20 ADD DUP1 DUP4 GT PUSH2 0x6B9 JUMPI DUP3 SWAP1 SUB PUSH1 0x1F AND DUP3 ADD SWAP2 JUMPDEST POP POP POP POP PUSH1 0x3 DUP4 ADD DUP1 SLOAD PUSH1 0x40 DUP1 MLOAD PUSH1 0x20 PUSH1 0x2 PUSH1 0x1 DUP6 AND ISZERO PUSH2 0x100 MUL PUSH1 0x0 NOT ADD SWAP1 SWAP5 AND SWAP4 SWAP1 SWAP4 DIV PUSH1 0x1F DUP2 ADD DUP5 SWAP1 DIV DUP5 MUL DUP3 ADD DUP5 ADD SWAP1 SWAP3 MSTORE DUP2 DUP2 MSTORE SWAP5 SWAP6 SWAP5 SWAP4 POP SWAP1 DUP4 ADD DUP3 DUP3 DUP1 ISZERO PUSH2 0x766 JUMPI DUP1 PUSH1 0x1F LT PUSH2 0x73B JUMPI PUSH2 0x100 DUP1 DUP4 SLOAD DIV MUL DUP4 MSTORE SWAP2 PUSH1 0x20 ADD SWAP2 PUSH2 0x766 JUMP JUMPDEST DUP3 ADD SWAP2 SWAP1 PUSH1 0x0 MSTORE PUSH1 0x20 PUSH1 0x0 KECCAK256 SWAP1 JUMPDEST DUP2 SLOAD DUP2 MSTORE SWAP1 PUSH1 0x1 ADD SWAP1 PUSH1 0x20 ADD DUP1 DUP4 GT PUSH2 0x749 JUMPI DUP3 SWAP1 SUB PUSH1 0x1F AND DUP3 ADD SWAP2 JUMPDEST POP POP POP PUSH1 0x4 DUP5 ADD SLOAD PUSH1 0x5 DUP6 ADD SLOAD PUSH1 0x6 DUP7 ADD SLOAD PUSH1 0x7 DUP8 ADD SLOAD PUSH1 0x8 DUP9 ADD SLOAD PUSH1 0x9 SWAP1 SWAP9 ADD SLOAD SWAP7 SWAP8 SWAP4 SWAP7 SWAP3 SWAP6 POP SWAP1 SWAP4 POP SWAP2 PUSH1 0x1 PUSH1 0x1 PUSH1 0xA0 SHL SUB SWAP1 DUP2 AND SWAP2 AND DUP11 JUMP JUMPDEST PUSH1 0x0 DUP2 DUP2 MSTORE PUSH1 0x5 PUSH1 0x20 MSTORE PUSH1 0x40 SWAP1 KECCAK256 PUSH1 0x7 ADD SLOAD DUP2 SWAP1 PUSH2 0x100 SWAP1 DIV PUSH1 0x1 PUSH1 0x1 PUSH1 0xA0 SHL SUB AND CALLER EQ ISZERO PUSH2 0x819 JUMPI PUSH1 0x40 DUP1 MLOAD PUSH3 0x461BCD PUSH1 0xE5 SHL DUP2 MSTORE PUSH1 0x20 PUSH1 0x4 DUP3 ADD MSTORE PUSH1 0x1D PUSH1 0x24 DUP3 ADD MSTORE PUSH32 0x4F6E6C79206C616E646C6F72642063616E206163636573732074686973000000 PUSH1 0x44 DUP3 ADD MSTORE SWAP1 MLOAD SWAP1 DUP2 SWAP1 SUB PUSH1 0x64 ADD SWAP1 REVERT JUMPDEST PUSH1 0x0 DUP3 DUP2 MSTORE PUSH1 0x5 PUSH1 0x20 DUP2 SWAP1 MSTORE PUSH1 0x40 SWAP1 SWAP2 KECCAK256 SWAP1 DUP2 ADD SLOAD PUSH1 0x4 SWAP1 SWAP2 ADD SLOAD DUP4 SWAP2 ADD CALLVALUE LT ISZERO PUSH2 0x88B JUMPI PUSH1 0x40 DUP1 MLOAD PUSH3 0x461BCD PUSH1 0xE5 SHL DUP2 MSTORE PUSH1 0x20 PUSH1 0x4 DUP3 ADD MSTORE PUSH1 0x1F PUSH1 0x24 DUP3 ADD MSTORE PUSH32 0x4E6F7420656E6F75676820457468657220696E20796F75722077616C6C657400 PUSH1 0x44 DUP3 ADD MSTORE SWAP1 MLOAD SWAP1 DUP2 SWAP1 SUB PUSH1 0x64 ADD SWAP1 REVERT JUMPDEST PUSH1 0x0 DUP4 DUP2 MSTORE PUSH1 0x5 PUSH1 0x20 MSTORE PUSH1 0x40 SWAP1 KECCAK256 PUSH1 0x7 ADD SLOAD DUP4 SWAP1 PUSH1 0xFF AND ISZERO ISZERO PUSH1 0x1 EQ PUSH2 0x8F8 JUMPI PUSH1 0x40 DUP1 MLOAD PUSH3 0x461BCD PUSH1 0xE5 SHL DUP2 MSTORE PUSH1 0x20 PUSH1 0x4 DUP3 ADD MSTORE PUSH1 0x1B PUSH1 0x24 DUP3 ADD MSTORE PUSH32 0x526F6F6D2069732063757272656E746C79204F636375706965642E0000000000 PUSH1 0x44 DUP3 ADD MSTORE SWAP1 MLOAD SWAP1 DUP2 SWAP1 SUB PUSH1 0x64 ADD SWAP1 REVERT JUMPDEST CALLER PUSH2 0x902 JUMPI PUSH1 0x0 DUP1 REVERT JUMPDEST PUSH1 0x0 DUP5 DUP2 MSTORE PUSH1 0x5 PUSH1 0x20 DUP2 SWAP1 MSTORE PUSH1 0x40 DUP1 DUP4 KECCAK256 PUSH1 0x7 DUP2 ADD SLOAD SWAP3 DUP2 ADD SLOAD PUSH1 0x4 SWAP1 SWAP2 ADD SLOAD SWAP2 MLOAD PUSH2 0x100 SWAP1 SWAP4 DIV PUSH1 0x1 PUSH1 0x1 PUSH1 0xA0 SHL SUB AND SWAP4 SWAP2 ADD SWAP2 DUP4 SWAP2 PUSH2 0x8FC DUP5 ISZERO MUL SWAP2 DUP5 SWAP2 DUP2 DUP2 DUP2 DUP6 DUP9 DUP9 CALL SWAP4 POP POP POP POP ISZERO DUP1 ISZERO PUSH2 0x95F JUMPI RETURNDATASIZE PUSH1 0x0 DUP1 RETURNDATACOPY RETURNDATASIZE PUSH1 0x0 REVERT JUMPDEST POP PUSH1 0x3 DUP1 SLOAD PUSH1 0x1 SWAP1 DUP2 ADD DUP3 SSTORE PUSH1 0x0 DUP9 DUP2 MSTORE PUSH1 0x5 PUSH1 0x20 DUP2 DUP2 MSTORE PUSH1 0x40 DUP1 DUP5 KECCAK256 PUSH1 0x8 DUP2 ADD DUP1 SLOAD PUSH1 0x1 PUSH1 0x1 PUSH1 0xA0 SHL SUB NOT AND CALLER OR SWAP1 SSTORE PUSH1 0x7 DUP2 ADD DUP1 SLOAD PUSH1 0xFF NOT AND SWAP1 SSTORE TIMESTAMP PUSH1 0x6 DUP3 ADD SSTORE SWAP6 SLOAD DUP7 DUP7 ADD DUP2 SWAP1 SSTORE DUP2 MLOAD PUSH2 0x140 DUP2 ADD DUP4 MSTORE DUP14 DUP2 MSTORE DUP1 DUP5 ADD SWAP2 SWAP1 SWAP2 MSTORE SWAP4 DUP13 SWAP1 MSTORE SWAP2 DUP2 MSTORE PUSH1 0x2 SWAP5 DUP6 ADD DUP1 SLOAD DUP4 MLOAD PUSH1 0x1F SWAP7 DUP3 AND ISZERO PUSH2 0x100 MUL PUSH1 0x0 NOT ADD SWAP1 SWAP2 AND SWAP7 SWAP1 SWAP7 DIV SWAP5 DUP6 ADD DUP3 SWAP1 DIV DUP3 MUL DUP7 ADD DUP3 ADD DUP4 MSTORE DUP5 DUP7 MSTORE SWAP3 SWAP5 SWAP2 DUP6 ADD SWAP4 SWAP2 SWAP3 SWAP2 SWAP1 DUP4 ADD DUP3 DUP3 DUP1 ISZERO PUSH2 0xA4E JUMPI DUP1 PUSH1 0x1F LT PUSH2 0xA23 JUMPI PUSH2 0x100 DUP1 DUP4 SLOAD DIV MUL DUP4 MSTORE SWAP2 PUSH1 0x20 ADD SWAP2 PUSH2 0xA4E JUMP JUMPDEST DUP3 ADD SWAP2 SWAP1 PUSH1 0x0 MSTORE PUSH1 0x20 PUSH1 0x0 KECCAK256 SWAP1 JUMPDEST DUP2 SLOAD DUP2 MSTORE SWAP1 PUSH1 0x1 ADD SWAP1 PUSH1 0x20 ADD DUP1 DUP4 GT PUSH2 0xA31 JUMPI DUP3 SWAP1 SUB PUSH1 0x1F AND DUP3 ADD SWAP2 JUMPDEST POP POP POP SWAP2 DUP4 MSTORE POP POP PUSH1 0x0 DUP9 DUP2 MSTORE PUSH1 0x5 PUSH1 0x20 SWAP1 DUP2 MSTORE PUSH1 0x40 SWAP2 DUP3 SWAP1 KECCAK256 PUSH1 0x3 ADD DUP1 SLOAD DUP4 MLOAD PUSH1 0x1F PUSH1 0x2 PUSH1 0x0 NOT PUSH2 0x100 PUSH1 0x1 DUP7 AND ISZERO MUL ADD SWAP1 SWAP4 AND SWAP3 SWAP1 SWAP3 DIV SWAP2 DUP3 ADD DUP5 SWAP1 DIV DUP5 MUL DUP2 ADD DUP5 ADD SWAP1 SWAP5 MSTORE DUP1 DUP5 MSTORE SWAP4 DUP3 ADD SWAP4 SWAP1 SWAP2 DUP4 ADD DUP3 DUP3 DUP1 ISZERO PUSH2 0xAF0 JUMPI DUP1 PUSH1 0x1F LT PUSH2 0xAC5 JUMPI PUSH2 0x100 DUP1 DUP4 SLOAD DIV MUL DUP4 MSTORE SWAP2 PUSH1 0x20 ADD SWAP2 PUSH2 0xAF0 JUMP JUMPDEST DUP3 ADD SWAP2 SWAP1 PUSH1 0x0 MSTORE PUSH1 0x20 PUSH1 0x0 KECCAK256 SWAP1 JUMPDEST DUP2 SLOAD DUP2 MSTORE SWAP1 PUSH1 0x1 ADD SWAP1 PUSH1 0x20 ADD DUP1 DUP4 GT PUSH2 0xAD3 JUMPI DUP3 SWAP1 SUB PUSH1 0x1F AND DUP3 ADD SWAP2 JUMPDEST POP POP POP SWAP2 DUP4 MSTORE POP POP PUSH1 0x0 DUP9 DUP2 MSTORE PUSH1 0x5 PUSH1 0x20 DUP2 DUP2 MSTORE PUSH1 0x40 DUP1 DUP5 KECCAK256 PUSH1 0x4 DUP2 ADD SLOAD DUP4 DUP8 ADD MSTORE SWAP1 SWAP3 ADD SLOAD DUP3 DUP6 ADD MSTORE PUSH4 0x1E13380 PUSH1 0x60 DUP6 ADD MSTORE TIMESTAMP PUSH1 0x80 DUP6 ADD MSTORE CALLER PUSH1 0xA0 DUP6 ADD MSTORE PUSH1 0x1 PUSH1 0x1 PUSH1 0xA0 SHL SUB DUP8 AND PUSH1 0xC0 SWAP1 SWAP5 ADD SWAP4 SWAP1 SWAP4 MSTORE PUSH1 0x3 SLOAD DUP3 MSTORE PUSH1 0x6 DUP4 MSTORE SWAP1 DUP2 SWAP1 KECCAK256 DUP4 MLOAD DUP2 SSTORE DUP4 DUP4 ADD MLOAD PUSH1 0x1 DUP3 ADD SSTORE SWAP1 DUP4 ADD MLOAD DUP1 MLOAD SWAP2 SWAP3 PUSH2 0xB77 SWAP3 PUSH1 0x2 DUP6 ADD SWAP3 SWAP1 SWAP2 ADD SWAP1 PUSH2 0x198D JUMP JUMPDEST POP PUSH1 0x60 DUP3 ADD MLOAD DUP1 MLOAD PUSH2 0xB93 SWAP2 PUSH1 0x3 DUP5 ADD SWAP2 PUSH1 0x20 SWAP1 SWAP2 ADD SWAP1 PUSH2 0x198D JUMP JUMPDEST POP PUSH1 0x80 DUP3 ADD MLOAD PUSH1 0x4 DUP1 DUP4 ADD SWAP2 SWAP1 SWAP2 SSTORE PUSH1 0xA0 DUP4 ADD MLOAD PUSH1 0x5 DUP1 DUP5 ADD SWAP2 SWAP1 SWAP2 SSTORE PUSH1 0xC0 DUP5 ADD MLOAD PUSH1 0x6 DUP5 ADD SSTORE PUSH1 0xE0 DUP5 ADD MLOAD PUSH1 0x7 DUP5 ADD SSTORE PUSH2 0x100 DUP1 DUP6 ADD MLOAD PUSH1 0x8 DUP6 ADD DUP1 SLOAD PUSH1 0x1 PUSH1 0x1 PUSH1 0xA0 SHL SUB SWAP3 DUP4 AND PUSH1 0x1 PUSH1 0x1 PUSH1 0xA0 SHL SUB NOT SWAP2 DUP3 AND OR SWAP1 SWAP2 SSTORE PUSH2 0x120 SWAP7 DUP8 ADD MLOAD PUSH1 0x9 SWAP1 SWAP7 ADD DUP1 SLOAD SWAP7 SWAP1 SWAP3 AND SWAP6 AND SWAP5 SWAP1 SWAP5 OR SWAP1 SWAP4 SSTORE DUP2 SLOAD PUSH1 0x1 SWAP1 DUP2 ADD SWAP3 DUP4 SWAP1 SSTORE PUSH1 0x40 DUP1 MLOAD SWAP6 DUP7 ADD DUP2 MSTORE SWAP3 DUP6 MSTORE PUSH1 0x20 DUP1 DUP7 ADD DUP13 SWAP1 MSTORE PUSH1 0x3 SLOAD DUP7 DUP6 ADD MSTORE PUSH1 0x0 DUP13 DUP2 MSTORE SWAP3 DUP2 MSTORE SWAP2 DUP4 SWAP1 KECCAK256 PUSH1 0x2 SWAP1 DUP2 ADD DUP1 SLOAD DUP6 MLOAD PUSH1 0x1F SWAP5 DUP3 AND ISZERO SWAP1 SWAP8 MUL PUSH1 0x0 NOT ADD AND SWAP2 SWAP1 SWAP2 DIV SWAP2 DUP3 ADD DUP4 SWAP1 DIV DUP4 MUL DUP6 ADD DUP4 ADD SWAP1 SWAP4 MSTORE DUP1 DUP5 MSTORE PUSH1 0x60 DUP6 ADD SWAP4 SWAP3 SWAP2 DUP4 ADD DUP3 DUP3 DUP1 ISZERO PUSH2 0xCBE JUMPI DUP1 PUSH1 0x1F LT PUSH2 0xC93 JUMPI PUSH2 0x100 DUP1 DUP4 SLOAD DIV MUL DUP4 MSTORE SWAP2 PUSH1 0x20 ADD SWAP2 PUSH2 0xCBE JUMP JUMPDEST DUP3 ADD SWAP2 SWAP1 PUSH1 0x0 MSTORE PUSH1 0x20 PUSH1 0x0 KECCAK256 SWAP1 JUMPDEST DUP2 SLOAD DUP2 MSTORE SWAP1 PUSH1 0x1 ADD SWAP1 PUSH1 0x20 ADD DUP1 DUP4 GT PUSH2 0xCA1 JUMPI DUP3 SWAP1 SUB PUSH1 0x1F AND DUP3 ADD SWAP2 JUMPDEST POP POP POP SWAP2 DUP4 MSTORE POP POP PUSH1 0x0 DUP9 DUP2 MSTORE PUSH1 0x5 PUSH1 0x20 SWAP1 DUP2 MSTORE PUSH1 0x40 SWAP2 DUP3 SWAP1 KECCAK256 PUSH1 0x3 ADD DUP1 SLOAD DUP4 MLOAD PUSH1 0x1F PUSH1 0x2 PUSH1 0x0 NOT PUSH2 0x100 PUSH1 0x1 DUP7 AND ISZERO MUL ADD SWAP1 SWAP4 AND SWAP3 SWAP1 SWAP3 DIV SWAP2 DUP3 ADD DUP5 SWAP1 DIV DUP5 MUL DUP2 ADD DUP5 ADD SWAP1 SWAP5 MSTORE DUP1 DUP5 MSTORE SWAP4 DUP3 ADD SWAP4 SWAP1 SWAP2 DUP4 ADD DUP3 DUP3 DUP1 ISZERO PUSH2 0xD60 JUMPI DUP1 PUSH1 0x1F LT PUSH2 0xD35 JUMPI PUSH2 0x100 DUP1 DUP4 SLOAD DIV MUL DUP4 MSTORE SWAP2 PUSH1 0x20 ADD SWAP2 PUSH2 0xD60 JUMP JUMPDEST DUP3 ADD SWAP2 SWAP1 PUSH1 0x0 MSTORE PUSH1 0x20 PUSH1 0x0 KECCAK256 SWAP1 JUMPDEST DUP2 SLOAD DUP2 MSTORE SWAP1 PUSH1 0x1 ADD SWAP1 PUSH1 0x20 ADD DUP1 DUP4 GT PUSH2 0xD43 JUMPI DUP3 SWAP1 SUB PUSH1 0x1F AND DUP3 ADD SWAP2 JUMPDEST POP POP POP SWAP2 DUP4 MSTORE POP POP PUSH1 0x0 DUP9 DUP2 MSTORE PUSH1 0x5 PUSH1 0x20 SWAP1 DUP2 MSTORE PUSH1 0x40 DUP1 DUP4 KECCAK256 PUSH1 0x4 SWAP1 DUP2 ADD SLOAD DUP4 DUP7 ADD MSTORE TIMESTAMP DUP3 DUP7 ADD MSTORE CALLER PUSH1 0x60 DUP1 DUP8 ADD SWAP2 SWAP1 SWAP2 MSTORE PUSH1 0x1 PUSH1 0x1 PUSH1 0xA0 SHL SUB DUP10 AND PUSH1 0x80 SWAP1 SWAP7 ADD SWAP6 SWAP1 SWAP6 MSTORE SLOAD DUP4 MSTORE PUSH1 0x7 DUP3 MSTORE SWAP2 DUP3 SWAP1 KECCAK256 DUP5 MLOAD DUP2 SSTORE DUP5 DUP3 ADD MLOAD PUSH1 0x1 DUP3 ADD SSTORE SWAP2 DUP5 ADD MLOAD PUSH1 0x2 DUP4 ADD SSTORE SWAP2 DUP4 ADD MLOAD DUP1 MLOAD SWAP2 SWAP3 PUSH2 0xDE0 SWAP3 PUSH1 0x3 DUP6 ADD SWAP3 SWAP1 SWAP2 ADD SWAP1 PUSH2 0x198D JUMP JUMPDEST POP PUSH1 0x80 DUP3 ADD MLOAD DUP1 MLOAD PUSH2 0xDFC SWAP2 PUSH1 0x4 DUP5 ADD SWAP2 PUSH1 0x20 SWAP1 SWAP2 ADD SWAP1 PUSH2 0x198D JUMP JUMPDEST POP PUSH1 0xA0 DUP3 ADD MLOAD PUSH1 0x5 DUP3 ADD SSTORE PUSH1 0xC0 DUP3 ADD MLOAD PUSH1 0x6 DUP3 ADD SSTORE PUSH1 0xE0 DUP3 ADD MLOAD PUSH1 0x7 DUP3 ADD DUP1 SLOAD PUSH1 0x1 PUSH1 0x1 PUSH1 0xA0 SHL SUB NOT SWAP1 DUP2 AND PUSH1 0x1 PUSH1 0x1 PUSH1 0xA0 SHL SUB SWAP4 DUP5 AND OR SWAP1 SWAP2 SSTORE PUSH2 0x100 SWAP1 SWAP4 ADD MLOAD PUSH1 0x8 SWAP1 SWAP3 ADD DUP1 SLOAD SWAP1 SWAP4 AND SWAP2 AND OR SWAP1 SSTORE POP POP POP POP POP POP JUMP JUMPDEST PUSH1 0x3 SLOAD DUP2 JUMP JUMPDEST PUSH1 0x0 DUP2 DUP2 MSTORE PUSH1 0x5 PUSH1 0x20 MSTORE PUSH1 0x40 SWAP1 KECCAK256 PUSH1 0x7 ADD SLOAD DUP2 SWAP1 PUSH2 0x100 SWAP1 DIV PUSH1 0x1 PUSH1 0x1 PUSH1 0xA0 SHL SUB AND CALLER EQ PUSH2 0xED0 JUMPI PUSH1 0x40 DUP1 MLOAD PUSH3 0x461BCD PUSH1 0xE5 SHL DUP2 MSTORE PUSH1 0x20 PUSH1 0x4 DUP3 ADD MSTORE PUSH1 0x1D PUSH1 0x24 DUP3 ADD MSTORE PUSH32 0x4F6E6C79206C616E646C6F72642063616E206163636573732074686973000000 PUSH1 0x44 DUP3 ADD MSTORE SWAP1 MLOAD SWAP1 DUP2 SWAP1 SUB PUSH1 0x64 ADD SWAP1 REVERT JUMPDEST PUSH1 0x0 DUP3 DUP2 MSTORE PUSH1 0x5 PUSH1 0x20 SWAP1 DUP2 MSTORE PUSH1 0x40 DUP1 DUP4 KECCAK256 PUSH1 0x1 ADD SLOAD DUP1 DUP5 MSTORE PUSH1 0x6 SWAP3 DUP4 SWAP1 MSTORE SWAP3 KECCAK256 SWAP1 DUP2 ADD SLOAD PUSH1 0x7 SWAP1 SWAP2 ADD SLOAD DUP5 SWAP3 SWAP2 ADD TIMESTAMP DUP2 GT PUSH2 0xF52 JUMPI PUSH1 0x40 DUP1 MLOAD PUSH3 0x461BCD PUSH1 0xE5 SHL DUP2 MSTORE PUSH1 0x20 PUSH1 0x4 DUP3 ADD DUP2 SWAP1 MSTORE PUSH1 0x24 DUP3 ADD MSTORE PUSH32 0x54696D65206973206C65667420666F7220636F6E747261637420746F20656E64 PUSH1 0x44 DUP3 ADD MSTORE SWAP1 MLOAD SWAP1 DUP2 SWAP1 SUB PUSH1 0x64 ADD SWAP1 REVERT JUMPDEST CALLER PUSH2 0xF5C JUMPI PUSH1 0x0 DUP1 REVERT JUMPDEST PUSH1 0x0 DUP6 DUP2 MSTORE PUSH1 0x5 PUSH1 0x20 MSTORE PUSH1 0x40 SWAP1 KECCAK256 PUSH1 0x7 ADD SLOAD PUSH1 0xFF AND ISZERO PUSH2 0xFC3 JUMPI PUSH1 0x40 DUP1 MLOAD PUSH3 0x461BCD PUSH1 0xE5 SHL DUP2 MSTORE PUSH1 0x20 PUSH1 0x4 DUP3 ADD MSTORE PUSH1 0x1B PUSH1 0x24 DUP3 ADD MSTORE PUSH32 0x526F6F6D2069732063757272656E746C79204F636375706965642E0000000000 PUSH1 0x44 DUP3 ADD MSTORE SWAP1 MLOAD SWAP1 DUP2 SWAP1 SUB PUSH1 0x64 ADD SWAP1 REVERT JUMPDEST PUSH1 0x0 DUP6 DUP2 MSTORE PUSH1 0x5 PUSH1 0x20 DUP2 SWAP1 MSTORE PUSH1 0x40 DUP1 DUP4 KECCAK256 PUSH1 0x7 DUP2 ADD DUP1 SLOAD PUSH1 0xFF NOT AND PUSH1 0x1 OR SWAP1 SSTORE PUSH1 0x8 DUP2 ADD SLOAD SWAP3 ADD SLOAD SWAP1 MLOAD PUSH1 0x1 PUSH1 0x1 PUSH1 0xA0 SHL SUB SWAP1 SWAP3 AND SWAP3 SWAP1 SWAP2 DUP4 SWAP2 DUP4 ISZERO PUSH2 0x8FC MUL SWAP2 DUP5 SWAP2 DUP2 DUP2 DUP2 DUP6 DUP9 DUP9 CALL SWAP4 POP POP POP POP ISZERO DUP1 ISZERO PUSH2 0x1023 JUMPI RETURNDATASIZE PUSH1 0x0 DUP1 RETURNDATACOPY RETURNDATASIZE PUSH1 0x0 REVERT JUMPDEST POP POP POP POP POP POP POP POP JUMP JUMPDEST PUSH1 0x5 PUSH1 0x20 SWAP1 DUP2 MSTORE PUSH1 0x0 SWAP2 DUP3 MSTORE PUSH1 0x40 SWAP2 DUP3 SWAP1 KECCAK256 DUP1 SLOAD PUSH1 0x1 DUP1 DUP4 ADD SLOAD PUSH1 0x2 DUP1 DUP6 ADD DUP1 SLOAD DUP9 MLOAD SWAP5 DUP2 AND ISZERO PUSH2 0x100 MUL PUSH1 0x0 NOT ADD AND SWAP2 SWAP1 SWAP2 DIV PUSH1 0x1F DUP2 ADD DUP8 SWAP1 DIV DUP8 MUL DUP5 ADD DUP8 ADD SWAP1 SWAP8 MSTORE DUP7 DUP4 MSTORE SWAP3 SWAP6 SWAP1 SWAP5 SWAP2 SWAP3 SWAP2 DUP4 ADD DUP3 DUP3 DUP1 ISZERO PUSH2 0x10CC JUMPI DUP1 PUSH1 0x1F LT PUSH2 0x10A1 JUMPI PUSH2 0x100 DUP1 DUP4 SLOAD DIV MUL DUP4 MSTORE SWAP2 PUSH1 0x20 ADD SWAP2 PUSH2 0x10CC JUMP JUMPDEST DUP3 ADD SWAP2 SWAP1 PUSH1 0x0 MSTORE PUSH1 0x20 PUSH1 0x0 KECCAK256 SWAP1 JUMPDEST DUP2 SLOAD DUP2 MSTORE SWAP1 PUSH1 0x1 ADD SWAP1 PUSH1 0x20 ADD DUP1 DUP4 GT PUSH2 0x10AF JUMPI DUP3 SWAP1 SUB PUSH1 0x1F AND DUP3 ADD SWAP2 JUMPDEST POP POP POP POP PUSH1 0x3 DUP4 ADD DUP1 SLOAD PUSH1 0x40 DUP1 MLOAD PUSH1 0x20 PUSH1 0x2 PUSH1 0x1 DUP6 AND ISZERO PUSH2 0x100 MUL PUSH1 0x0 NOT ADD SWAP1 SWAP5 AND SWAP4 SWAP1 SWAP4 DIV PUSH1 0x1F DUP2 ADD DUP5 SWAP1 DIV DUP5 MUL DUP3 ADD DUP5 ADD SWAP1 SWAP3 MSTORE DUP2 DUP2 MSTORE SWAP5 SWAP6 SWAP5 SWAP4 POP SWAP1 DUP4 ADD DUP3 DUP3 DUP1 ISZERO PUSH2 0x115C JUMPI DUP1 PUSH1 0x1F LT PUSH2 0x1131 JUMPI PUSH2 0x100 DUP1 DUP4 SLOAD DIV MUL DUP4 MSTORE SWAP2 PUSH1 0x20 ADD SWAP2 PUSH2 0x115C JUMP JUMPDEST DUP3 ADD SWAP2 SWAP1 PUSH1 0x0 MSTORE PUSH1 0x20 PUSH1 0x0 KECCAK256 SWAP1 JUMPDEST DUP2 SLOAD DUP2 MSTORE SWAP1 PUSH1 0x1 ADD SWAP1 PUSH1 0x20 ADD DUP1 DUP4 GT PUSH2 0x113F JUMPI DUP3 SWAP1 SUB PUSH1 0x1F AND DUP3 ADD SWAP2 JUMPDEST POP POP POP PUSH1 0x4 DUP5 ADD SLOAD PUSH1 0x5 DUP6 ADD SLOAD PUSH1 0x6 DUP7 ADD SLOAD PUSH1 0x7 DUP8 ADD SLOAD PUSH1 0x8 SWAP1 SWAP8 ADD SLOAD SWAP6 SWAP7 SWAP3 SWAP6 SWAP2 SWAP5 POP SWAP3 POP PUSH1 0xFF DUP3 AND SWAP2 PUSH1 0x1 PUSH1 0x1 PUSH1 0xA0 SHL SUB PUSH2 0x100 SWAP1 SWAP2 DIV DUP2 AND SWAP2 AND DUP11 JUMP JUMPDEST PUSH1 0x0 DUP2 DUP2 MSTORE PUSH1 0x5 PUSH1 0x20 MSTORE PUSH1 0x40 SWAP1 KECCAK256 PUSH1 0x7 ADD SLOAD DUP2 SWAP1 PUSH2 0x100 SWAP1 DIV PUSH1 0x1 PUSH1 0x1 PUSH1 0xA0 SHL SUB AND CALLER EQ PUSH2 0x1211 JUMPI PUSH1 0x40 DUP1 MLOAD PUSH3 0x461BCD PUSH1 0xE5 SHL DUP2 MSTORE PUSH1 0x20 PUSH1 0x4 DUP3 ADD MSTORE PUSH1 0x1D PUSH1 0x24 DUP3 ADD MSTORE PUSH32 0x4F6E6C79206C616E646C6F72642063616E206163636573732074686973000000 PUSH1 0x44 DUP3 ADD MSTORE SWAP1 MLOAD SWAP1 DUP2 SWAP1 SUB PUSH1 0x64 ADD SWAP1 REVERT JUMPDEST PUSH1 0x0 DUP3 DUP2 MSTORE PUSH1 0x5 PUSH1 0x20 SWAP1 DUP2 MSTORE PUSH1 0x40 DUP1 DUP4 KECCAK256 PUSH1 0x1 ADD SLOAD DUP1 DUP5 MSTORE PUSH1 0x6 SWAP3 DUP4 SWAP1 MSTORE SWAP3 KECCAK256 SWAP1 DUP2 ADD SLOAD PUSH1 0x7 SWAP1 SWAP2 ADD SLOAD DUP5 SWAP3 SWAP2 ADD TIMESTAMP DUP2 GT PUSH2 0x1293 JUMPI PUSH1 0x40 DUP1 MLOAD PUSH3 0x461BCD PUSH1 0xE5 SHL DUP2 MSTORE PUSH1 0x20 PUSH1 0x4 DUP3 ADD MSTORE PUSH1 0x17 PUSH1 0x24 DUP3 ADD MSTORE PUSH32 0x41677265656D656E7420616C726561647920456E646564000000000000000000 PUSH1 0x44 DUP3 ADD MSTORE SWAP1 MLOAD SWAP1 DUP2 SWAP1 SUB PUSH1 0x64 ADD SWAP1 REVERT JUMPDEST CALLER PUSH2 0x129D JUMPI PUSH1 0x0 DUP1 REVERT JUMPDEST POP POP POP PUSH1 0x0 SWAP2 DUP3 MSTORE POP PUSH1 0x5 PUSH1 0x20 MSTORE PUSH1 0x40 SWAP1 KECCAK256 PUSH1 0x7 ADD DUP1 SLOAD PUSH1 0xFF NOT AND PUSH1 0x1 OR SWAP1 SSTORE JUMP JUMPDEST PUSH1 0x2 SLOAD DUP2 JUMP JUMPDEST CALLER PUSH2 0x12CF JUMPI PUSH1 0x0 DUP1 REVERT JUMPDEST PUSH1 0x2 DUP1 SLOAD PUSH1 0x1 SWAP1 DUP2 ADD DUP1 DUP4 SSTORE PUSH1 0x40 DUP1 MLOAD PUSH2 0x140 DUP2 ADD DUP3 MSTORE DUP3 DUP2 MSTORE PUSH1 0x0 PUSH1 0x20 DUP1 DUP4 ADD DUP3 DUP2 MSTORE DUP4 DUP6 ADD DUP13 DUP2 MSTORE PUSH1 0x60 DUP6 ADD DUP13 SWAP1 MSTORE PUSH1 0x80 DUP6 ADD DUP12 SWAP1 MSTORE PUSH1 0xA0 DUP6 ADD DUP11 SWAP1 MSTORE PUSH1 0xC0 DUP6 ADD DUP5 SWAP1 MSTORE PUSH1 0xE0 DUP6 ADD DUP9 SWAP1 MSTORE CALLER PUSH2 0x100 DUP7 ADD MSTORE PUSH2 0x120 DUP6 ADD DUP5 SWAP1 MSTORE SWAP6 DUP4 MSTORE PUSH1 0x5 DUP3 MSTORE SWAP4 SWAP1 SWAP2 KECCAK256 DUP3 MLOAD DUP2 SSTORE SWAP3 MLOAD DUP4 DUP7 ADD SSTORE SWAP3 MLOAD DUP1 MLOAD SWAP5 SWAP6 SWAP2 SWAP5 SWAP3 SWAP4 PUSH2 0x135A SWAP4 SWAP3 DUP6 ADD SWAP3 SWAP2 ADD SWAP1 PUSH2 0x198D JUMP JUMPDEST POP PUSH1 0x60 DUP3 ADD MLOAD DUP1 MLOAD PUSH2 0x1376 SWAP2 PUSH1 0x3 DUP5 ADD SWAP2 PUSH1 0x20 SWAP1 SWAP2 ADD SWAP1 PUSH2 0x198D JUMP JUMPDEST POP PUSH1 0x80 DUP3 ADD MLOAD PUSH1 0x4 DUP3 ADD SSTORE PUSH1 0xA0 DUP3 ADD MLOAD PUSH1 0x5 DUP3 ADD SSTORE PUSH1 0xC0 DUP3 ADD MLOAD PUSH1 0x6 DUP3 ADD SSTORE PUSH1 0xE0 DUP3 ADD MLOAD PUSH1 0x7 DUP3 ADD DUP1 SLOAD PUSH2 0x100 DUP1 DUP7 ADD MLOAD PUSH1 0xFF NOT SWAP1 SWAP3 AND SWAP4 ISZERO ISZERO SWAP4 SWAP1 SWAP4 OR PUSH2 0x100 PUSH1 0x1 PUSH1 0xA8 SHL SUB NOT AND PUSH1 0x1 PUSH1 0x1 PUSH1 0xA0 SHL SUB SWAP2 DUP3 AND SWAP1 SWAP4 MUL SWAP3 SWAP1 SWAP3 OR SWAP1 SSTORE PUSH2 0x120 SWAP1 SWAP3 ADD MLOAD PUSH1 0x8 SWAP1 SWAP2 ADD DUP1 SLOAD PUSH1 0x1 PUSH1 0x1 PUSH1 0xA0 SHL SUB NOT AND SWAP2 SWAP1 SWAP3 AND OR SWAP1 SSTORE POP POP POP POP POP JUMP JUMPDEST PUSH1 0x4 SLOAD DUP2 JUMP JUMPDEST PUSH1 0x7 PUSH1 0x20 MSTORE DUP1 PUSH1 0x0 MSTORE PUSH1 0x40 PUSH1 0x0 KECCAK256 PUSH1 0x0 SWAP2 POP SWAP1 POP DUP1 PUSH1 0x0 ADD SLOAD SWAP1 DUP1 PUSH1 0x1 ADD SLOAD SWAP1 DUP1 PUSH1 0x2 ADD SLOAD SWAP1 DUP1 PUSH1 0x3 ADD DUP1 SLOAD PUSH1 0x1 DUP2 PUSH1 0x1 AND ISZERO PUSH2 0x100 MUL SUB AND PUSH1 0x2 SWAP1 DIV DUP1 PUSH1 0x1F ADD PUSH1 0x20 DUP1 SWAP2 DIV MUL PUSH1 0x20 ADD PUSH1 0x40 MLOAD SWAP1 DUP2 ADD PUSH1 0x40 MSTORE DUP1 SWAP3 SWAP2 SWAP1 DUP2 DUP2 MSTORE PUSH1 0x20 ADD DUP3 DUP1 SLOAD PUSH1 0x1 DUP2 PUSH1 0x1 AND ISZERO PUSH2 0x100 MUL SUB AND PUSH1 0x2 SWAP1 DIV DUP1 ISZERO PUSH2 0x14BD JUMPI DUP1 PUSH1 0x1F LT PUSH2 0x1492 JUMPI PUSH2 0x100 DUP1 DUP4 SLOAD DIV MUL DUP4 MSTORE SWAP2 PUSH1 0x20 ADD SWAP2 PUSH2 0x14BD JUMP JUMPDEST DUP3 ADD SWAP2 SWAP1 PUSH1 0x0 MSTORE PUSH1 0x20 PUSH1 0x0 KECCAK256 SWAP1 JUMPDEST DUP2 SLOAD DUP2 MSTORE SWAP1 PUSH1 0x1 ADD SWAP1 PUSH1 0x20 ADD DUP1 DUP4 GT PUSH2 0x14A0 JUMPI DUP3 SWAP1 SUB PUSH1 0x1F AND DUP3 ADD SWAP2 JUMPDEST POP POP POP POP PUSH1 0x4 DUP4 ADD DUP1 SLOAD PUSH1 0x40 DUP1 MLOAD PUSH1 0x20 PUSH1 0x2 PUSH1 0x1 DUP6 AND ISZERO PUSH2 0x100 MUL PUSH1 0x0 NOT ADD SWAP1 SWAP5 AND SWAP4 SWAP1 SWAP4 DIV PUSH1 0x1F DUP2 ADD DUP5 SWAP1 DIV DUP5 MUL DUP3 ADD DUP5 ADD SWAP1 SWAP3 MSTORE DUP2 DUP2 MSTORE SWAP5 SWAP6 SWAP5 SWAP4 POP SWAP1 DUP4 ADD DUP3 DUP3 DUP1 ISZERO PUSH2 0x154D JUMPI DUP1 PUSH1 0x1F LT PUSH2 0x1522 JUMPI PUSH2 0x100 DUP1 DUP4 SLOAD DIV MUL DUP4 MSTORE SWAP2 PUSH1 0x20 ADD SWAP2 PUSH2 0x154D JUMP JUMPDEST DUP3 ADD SWAP2 SWAP1 PUSH1 0x0 MSTORE PUSH1 0x20 PUSH1 0x0 KECCAK256 SWAP1 JUMPDEST DUP2 SLOAD DUP2 MSTORE SWAP1 PUSH1 0x1 ADD SWAP1 PUSH1 0x20 ADD DUP1 DUP4 GT PUSH2 0x1530 JUMPI DUP3 SWAP1 SUB PUSH1 0x1F AND DUP3 ADD SWAP2 JUMPDEST POP POP POP PUSH1 0x5 DUP5 ADD SLOAD PUSH1 0x6 DUP6 ADD SLOAD PUSH1 0x7 DUP7 ADD SLOAD PUSH1 0x8 SWAP1 SWAP7 ADD SLOAD SWAP5 SWAP6 SWAP2 SWAP5 SWAP1 SWAP4 POP PUSH1 0x1 PUSH1 0x1 PUSH1 0xA0 SHL SUB SWAP2 DUP3 AND SWAP3 POP AND DUP10 JUMP JUMPDEST PUSH1 0x0 DUP2 DUP2 MSTORE PUSH1 0x5 PUSH1 0x20 MSTORE PUSH1 0x40 SWAP1 KECCAK256 PUSH1 0x8 ADD SLOAD DUP2 SWAP1 PUSH1 0x1 PUSH1 0x1 PUSH1 0xA0 SHL SUB AND CALLER EQ PUSH2 0x15D7 JUMPI PUSH1 0x40 MLOAD PUSH3 0x461BCD PUSH1 0xE5 SHL DUP2 MSTORE PUSH1 0x4 ADD DUP1 DUP1 PUSH1 0x20 ADD DUP3 DUP2 SUB DUP3 MSTORE PUSH1 0x23 DUP2 MSTORE PUSH1 0x20 ADD DUP1 PUSH2 0x1A29 PUSH1 0x23 SWAP2 CODECOPY PUSH1 0x40 ADD SWAP2 POP POP PUSH1 0x40 MLOAD DUP1 SWAP2 SUB SWAP1 REVERT JUMPDEST PUSH1 0x0 DUP3 DUP2 MSTORE PUSH1 0x5 PUSH1 0x20 MSTORE PUSH1 0x40 SWAP1 KECCAK256 PUSH1 0x6 ADD SLOAD DUP3 SWAP1 PUSH3 0x278D00 ADD TIMESTAMP DUP2 GT ISZERO PUSH2 0x163D JUMPI PUSH1 0x40 DUP1 MLOAD PUSH3 0x461BCD PUSH1 0xE5 SHL DUP2 MSTORE PUSH1 0x20 PUSH1 0x4 DUP3 ADD MSTORE PUSH1 0x15 PUSH1 0x24 DUP3 ADD MSTORE PUSH21 0x15125B59481B19599D081D1BC81C185E4814995B9D PUSH1 0x5A SHL PUSH1 0x44 DUP3 ADD MSTORE SWAP1 MLOAD SWAP1 DUP2 SWAP1 SUB PUSH1 0x64 ADD SWAP1 REVERT JUMPDEST PUSH1 0x0 DUP5 DUP2 MSTORE PUSH1 0x5 PUSH1 0x20 MSTORE PUSH1 0x40 SWAP1 KECCAK256 PUSH1 0x4 ADD SLOAD DUP5 SWAP1 CALLVALUE LT ISZERO PUSH2 0x16A5 JUMPI PUSH1 0x40 DUP1 MLOAD PUSH3 0x461BCD PUSH1 0xE5 SHL DUP2 MSTORE PUSH1 0x20 PUSH1 0x4 DUP3 ADD MSTORE PUSH1 0x1F PUSH1 0x24 DUP3 ADD MSTORE PUSH32 0x4E6F7420656E6F75676820457468657220696E20796F75722077616C6C657400 PUSH1 0x44 DUP3 ADD MSTORE SWAP1 MLOAD SWAP1 DUP2 SWAP1 SUB PUSH1 0x64 ADD SWAP1 REVERT JUMPDEST CALLER PUSH2 0x16AF JUMPI PUSH1 0x0 DUP1 REVERT JUMPDEST PUSH1 0x0 DUP6 DUP2 MSTORE PUSH1 0x5 PUSH1 0x20 MSTORE PUSH1 0x40 DUP1 DUP3 KECCAK256 PUSH1 0x7 DUP2 ADD SLOAD PUSH1 0x4 SWAP1 SWAP2 ADD SLOAD SWAP2 MLOAD PUSH2 0x100 SWAP1 SWAP2 DIV PUSH1 0x1 PUSH1 0x1 PUSH1 0xA0 SHL SUB AND SWAP3 DUP4 SWAP2 PUSH2 0x8FC DUP5 ISZERO MUL SWAP2 DUP5 SWAP2 SWAP1 DUP2 DUP2 DUP2 DUP6 DUP9 DUP9 CALL SWAP4 POP POP POP POP ISZERO DUP1 ISZERO PUSH2 0x1704 JUMPI RETURNDATASIZE PUSH1 0x0 DUP1 RETURNDATACOPY RETURNDATASIZE PUSH1 0x0 REVERT JUMPDEST POP PUSH1 0x0 DUP8 DUP2 MSTORE PUSH1 0x5 PUSH1 0x20 DUP2 DUP2 MSTORE PUSH1 0x40 DUP1 DUP5 KECCAK256 PUSH1 0x8 DUP2 ADD DUP1 SLOAD PUSH1 0x1 PUSH1 0x1 PUSH1 0xA0 SHL SUB NOT AND CALLER OR SWAP1 SSTORE PUSH1 0x7 DUP2 ADD DUP1 SLOAD PUSH1 0xFF NOT AND SWAP1 SSTORE PUSH1 0x4 DUP1 SLOAD PUSH1 0x1 SWAP1 DUP2 ADD SWAP2 DUP3 SWAP1 SSTORE DUP4 MLOAD PUSH2 0x120 DUP2 ADD DUP6 MSTORE SWAP2 DUP3 MSTORE DUP2 DUP6 ADD DUP15 SWAP1 MSTORE DUP1 DUP4 ADD SLOAD DUP3 DUP6 ADD MSTORE SWAP6 DUP14 SWAP1 MSTORE SWAP4 DUP4 MSTORE PUSH1 0x2 SWAP1 DUP2 ADD DUP1 SLOAD DUP4 MLOAD PUSH1 0x1F PUSH1 0x0 NOT SWAP9 DUP4 AND ISZERO PUSH2 0x100 MUL SWAP9 SWAP1 SWAP9 ADD SWAP1 SWAP2 AND SWAP3 SWAP1 SWAP3 DIV SWAP6 DUP7 ADD DUP5 SWAP1 DIV DUP5 MUL DUP3 ADD DUP5 ADD SWAP1 SWAP3 MSTORE DUP5 DUP2 MSTORE SWAP3 SWAP4 PUSH1 0x60 DUP6 ADD SWAP4 SWAP3 DUP4 ADD DUP3 DUP3 DUP1 ISZERO PUSH2 0x17F0 JUMPI DUP1 PUSH1 0x1F LT PUSH2 0x17C5 JUMPI PUSH2 0x100 DUP1 DUP4 SLOAD DIV MUL DUP4 MSTORE SWAP2 PUSH1 0x20 ADD SWAP2 PUSH2 0x17F0 JUMP JUMPDEST DUP3 ADD SWAP2 SWAP1 PUSH1 0x0 MSTORE PUSH1 0x20 PUSH1 0x0 KECCAK256 SWAP1 JUMPDEST DUP2 SLOAD DUP2 MSTORE SWAP1 PUSH1 0x1 ADD SWAP1 PUSH1 0x20 ADD DUP1 DUP4 GT PUSH2 0x17D3 JUMPI DUP3 SWAP1 SUB PUSH1 0x1F AND DUP3 ADD SWAP2 JUMPDEST POP POP POP SWAP2 DUP4 MSTORE POP POP PUSH1 0x0 DUP10 DUP2 MSTORE PUSH1 0x5 PUSH1 0x20 SWAP1 DUP2 MSTORE PUSH1 0x40 SWAP2 DUP3 SWAP1 KECCAK256 PUSH1 0x3 ADD DUP1 SLOAD DUP4 MLOAD PUSH1 0x1F PUSH1 0x2 PUSH1 0x0 NOT PUSH2 0x100 PUSH1 0x1 DUP7 AND ISZERO MUL ADD SWAP1 SWAP4 AND SWAP3 SWAP1 SWAP3 DIV SWAP2 DUP3 ADD DUP5 SWAP1 DIV DUP5 MUL DUP2 ADD DUP5 ADD SWAP1 SWAP5 MSTORE DUP1 DUP5 MSTORE SWAP4 DUP3 ADD SWAP4 SWAP1 SWAP2 DUP4 ADD DUP3 DUP3 DUP1 ISZERO PUSH2 0x1892 JUMPI DUP1 PUSH1 0x1F LT PUSH2 0x1867 JUMPI PUSH2 0x100 DUP1 DUP4 SLOAD DIV MUL DUP4 MSTORE SWAP2 PUSH1 0x20 ADD SWAP2 PUSH2 0x1892 JUMP JUMPDEST DUP3 ADD SWAP2 SWAP1 PUSH1 0x0 MSTORE PUSH1 0x20 PUSH1 0x0 KECCAK256 SWAP1 JUMPDEST DUP2 SLOAD DUP2 MSTORE SWAP1 PUSH1 0x1 ADD SWAP1 PUSH1 0x20 ADD DUP1 DUP4 GT PUSH2 0x1875 JUMPI DUP3 SWAP1 SUB PUSH1 0x1F AND DUP3 ADD SWAP2 JUMPDEST POP POP POP SWAP2 DUP4 MSTORE POP POP PUSH1 0x20 DUP1 DUP3 ADD DUP5 SWAP1 MSTORE TIMESTAMP PUSH1 0x40 DUP1 DUP5 ADD SWAP2 SWAP1 SWAP2 MSTORE CALLER PUSH1 0x60 DUP1 DUP6 ADD SWAP2 SWAP1 SWAP2 MSTORE PUSH1 0x0 DUP13 DUP2 MSTORE PUSH1 0x5 DUP5 MSTORE DUP3 DUP2 KECCAK256 PUSH1 0x7 SWAP1 DUP2 ADD SLOAD PUSH2 0x100 SWAP1 DIV PUSH1 0x1 PUSH1 0x1 PUSH1 0xA0 SHL SUB AND PUSH1 0x80 SWAP1 SWAP7 ADD SWAP6 SWAP1 SWAP6 MSTORE PUSH1 0x4 SLOAD DUP2 MSTORE SWAP4 DUP4 MSTORE SWAP3 DUP2 SWAP1 KECCAK256 DUP5 MLOAD DUP2 SSTORE DUP5 DUP4 ADD MLOAD PUSH1 0x1 DUP3 ADD SSTORE SWAP1 DUP5 ADD MLOAD PUSH1 0x2 DUP3 ADD SSTORE SWAP2 DUP4 ADD MLOAD DUP1 MLOAD PUSH2 0x1917 SWAP3 PUSH1 0x3 DUP6 ADD SWAP3 ADD SWAP1 PUSH2 0x198D JUMP JUMPDEST POP PUSH1 0x80 DUP3 ADD MLOAD DUP1 MLOAD PUSH2 0x1933 SWAP2 PUSH1 0x4 DUP5 ADD SWAP2 PUSH1 0x20 SWAP1 SWAP2 ADD SWAP1 PUSH2 0x198D JUMP JUMPDEST POP PUSH1 0xA0 DUP3 ADD MLOAD PUSH1 0x5 DUP3 ADD SSTORE PUSH1 0xC0 DUP3 ADD MLOAD PUSH1 0x6 DUP3 ADD SSTORE PUSH1 0xE0 DUP3 ADD MLOAD PUSH1 0x7 DUP3 ADD DUP1 SLOAD PUSH1 0x1 PUSH1 0x1 PUSH1 0xA0 SHL SUB NOT SWAP1 DUP2 AND PUSH1 0x1 PUSH1 0x1 PUSH1 0xA0 SHL SUB SWAP4 DUP5 AND OR SWAP1 SWAP2 SSTORE PUSH2 0x100 SWAP1 SWAP4 ADD MLOAD PUSH1 0x8 SWAP1 SWAP3 ADD DUP1 SLOAD SWAP1 SWAP4 AND SWAP2 AND OR SWAP1 SSTORE POP POP POP POP POP POP POP JUMP JUMPDEST DUP3 DUP1 SLOAD PUSH1 0x1 DUP2 PUSH1 0x1 AND ISZERO PUSH2 0x100 MUL SUB AND PUSH1 0x2 SWAP1 DIV SWAP1 PUSH1 0x0 MSTORE PUSH1 0x20 PUSH1 0x0 KECCAK256 SWAP1 PUSH1 0x1F ADD PUSH1 0x20 SWAP1 DIV DUP2 ADD SWAP3 DUP3 PUSH1 0x1F LT PUSH2 0x19CE JUMPI DUP1 MLOAD PUSH1 0xFF NOT AND DUP4 DUP1 ADD OR DUP6 SSTORE PUSH2 0x19FB JUMP JUMPDEST DUP3 DUP1 ADD PUSH1 0x1 ADD DUP6 SSTORE DUP3 ISZERO PUSH2 0x19FB JUMPI SWAP2 DUP3 ADD JUMPDEST DUP3 DUP2 GT ISZERO PUSH2 0x19FB JUMPI DUP3 MLOAD DUP3 SSTORE SWAP2 PUSH1 0x20 ADD SWAP2 SWAP1 PUSH1 0x1 ADD SWAP1 PUSH2 0x19E0 JUMP JUMPDEST POP PUSH2 0x1A07 SWAP3 SWAP2 POP PUSH2 0x1A0B JUMP JUMPDEST POP SWAP1 JUMP JUMPDEST PUSH2 0x1A25 SWAP2 SWAP1 JUMPDEST DUP1 DUP3 GT ISZERO PUSH2 0x1A07 JUMPI PUSH1 0x0 DUP2 SSTORE PUSH1 0x1 ADD PUSH2 0x1A11 JUMP JUMPDEST SWAP1 JUMP INVALID 0x4E PUSH16 0x20707265766F75732061677265656D65 PUSH15 0x7420666F756E64207769746820796F PUSH22 0xA265627A7A723158208067567D47457138274F122943 SWAP14 LOG4 STATICCALL 0xC9 0xEE 0xEE MUL 0xBF SHR PUSH29 0xAD52648AC330942AFA64736F6C63430005110032000000000000000000 "
				},
				"gasEstimates": {
					"creation": {
						"codeDepositCost": "1356800",
						"executionCost": "16428",
						"totalCost": "1373228"
					},
					"external": {
						"Rent_by_No(uint256)": "infinite",
						"RoomAgreement_by_No(uint256)": "infinite",
						"Room_by_No(uint256)": "infinite",
						"addRoom(string,string,uint256,uint256)": "infinite",
						"agreementCompleted(uint256)": "infinite",
						"agreementTerminated(uint256)": "24643",
						"no_of_agreement()": "1043",
						"no_of_rent()": "1064",
						"no_of_rooms()": "1020",
						"payRent(uint256)": "infinite",
						"signAgreement(uint256)": "infinite"
					}
				},
				"methodIdentifiers": {
					"Rent_by_No(uint256)": "d0d205b7",
					"RoomAgreement_by_No(uint256)": "02bb2725",
					"Room_by_No(uint256)": "46959587",
					"addRoom(string,string,uint256,uint256)": "63e475bd",
					"agreementCompleted(uint256)": "16abb8a1",
					"agreementTerminated(uint256)": "4f5e4428",
					"no_of_agreement()": "0ff2a806",
					"no_of_rent()": "75eb9ef6",
					"no_of_rooms()": "59e2cbec",
					"payRent(uint256)": "d9e8843f",
					"signAgreement(uint256)": "03742de0"
				}
			},
			"storageLayout": {
				"storage": [
					{
						"astId": 3,
						"contract": "hotel.sol:Hotel",
						"label": "tenant",
						"offset": 0,
						"slot": "0",
						"type": "t_address_payable"
					},
					{
						"astId": 5,
						"contract": "hotel.sol:Hotel",
						"label": "landlord",
						"offset": 0,
						"slot": "1",
						"type": "t_address_payable"
					},
					{
						"astId": 8,
						"contract": "hotel.sol:Hotel",
						"label": "no_of_rooms",
						"offset": 0,
						"slot": "2",
						"type": "t_uint256"
					},
					{
						"astId": 11,
						"contract": "hotel.sol:Hotel",
						"label": "no_of_agreement",
						"offset": 0,
						"slot": "3",
						"type": "t_uint256"
					},
					{
						"astId": 14,
						"contract": "hotel.sol:Hotel",
						"label": "no_of_rent",
						"offset": 0,
						"slot": "4",
						"type": "t_uint256"
					},
					{
						"astId": 39,
						"contract": "hotel.sol:Hotel",
						"label": "Room_by_No",
						"offset": 0,
						"slot": "5",
						"type": "t_mapping(t_uint256,t_struct(Room)35_storage)"
					},
					{
						"astId": 64,
						"contract": "hotel.sol:Hotel",
						"label": "RoomAgreement_by_No",
						"offset": 0,
						"slot": "6",
						"type": "t_mapping(t_uint256,t_struct(RoomAgreement)60_storage)"
					},
					{
						"astId": 87,
						"contract": "hotel.sol:Hotel",
						"label": "Rent_by_No",
						"offset": 0,
						"slot": "7",
						"type": "t_mapping(t_uint256,t_struct(Rent)83_storage)"
					}
				],
				"types": {
					"t_address_payable": {
						"encoding": "inplace",
						"label": "address payable",
						"numberOfBytes": "20"
					},
					"t_bool": {
						"encoding": "inplace",
						"label": "bool",
						"numberOfBytes": "1"
					},
					"t_mapping(t_uint256,t_struct(Rent)83_storage)": {
						"encoding": "mapping",
						"key": "t_uint256",
						"label": "mapping(uint256 => struct Hotel.Rent)",
						"numberOfBytes": "32",
						"value": "t_struct(Rent)83_storage"
					},
					"t_mapping(t_uint256,t_struct(Room)35_storage)": {
						"encoding": "mapping",
						"key": "t_uint256",
						"label": "mapping(uint256 => struct Hotel.Room)",
						"numberOfBytes": "32",
						"value": "t_struct(Room)35_storage"
					},
					"t_mapping(t_uint256,t_struct(RoomAgreement)60_storage)": {
						"encoding": "mapping",
						"key": "t_uint256",
						"label": "mapping(uint256 => struct Hotel.RoomAgreement)",
						"numberOfBytes": "32",
						"value": "t_struct(RoomAgreement)60_storage"
					},
					"t_string_storage": {
						"encoding": "bytes",
						"label": "string",
						"numberOfBytes": "32"
					},
					"t_struct(Rent)83_storage": {
						"encoding": "inplace",
						"label": "struct Hotel.Rent",
						"members": [
							{
								"astId": 66,
								"contract": "hotel.sol:Hotel",
								"label": "rentno",
								"offset": 0,
								"slot": "0",
								"type": "t_uint256"
							},
							{
								"astId": 68,
								"contract": "hotel.sol:Hotel",
								"label": "roomid",
								"offset": 0,
								"slot": "1",
								"type": "t_uint256"
							},
							{
								"astId": 70,
								"contract": "hotel.sol:Hotel",
								"label": "agreementid",
								"offset": 0,
								"slot": "2",
								"type": "t_uint256"
							},
							{
								"astId": 72,
								"contract": "hotel.sol:Hotel",
								"label": "Roomname",
								"offset": 0,
								"slot": "3",
								"type": "t_string_storage"
							},
							{
								"astId": 74,
								"contract": "hotel.sol:Hotel",
								"label": "RoomAddress",
								"offset": 0,
								"slot": "4",
								"type": "t_string_storage"
							},
							{
								"astId": 76,
								"contract": "hotel.sol:Hotel",
								"label": "rent_per_month",
								"offset": 0,
								"slot": "5",
								"type": "t_uint256"
							},
							{
								"astId": 78,
								"contract": "hotel.sol:Hotel",
								"label": "timestamp",
								"offset": 0,
								"slot": "6",
								"type": "t_uint256"
							},
							{
								"astId": 80,
								"contract": "hotel.sol:Hotel",
								"label": "tenantAddress",
								"offset": 0,
								"slot": "7",
								"type": "t_address_payable"
							},
							{
								"astId": 82,
								"contract": "hotel.sol:Hotel",
								"label": "landlordAddress",
								"offset": 0,
								"slot": "8",
								"type": "t_address_payable"
							}
						],
						"numberOfBytes": "288"
					},
					"t_struct(Room)35_storage": {
						"encoding": "inplace",
						"label": "struct Hotel.Room",
						"members": [
							{
								"astId": 16,
								"contract": "hotel.sol:Hotel",
								"label": "roomid",
								"offset": 0,
								"slot": "0",
								"type": "t_uint256"
							},
							{
								"astId": 18,
								"contract": "hotel.sol:Hotel",
								"label": "agreementid",
								"offset": 0,
								"slot": "1",
								"type": "t_uint256"
							},
							{
								"astId": 20,
								"contract": "hotel.sol:Hotel",
								"label": "roomname",
								"offset": 0,
								"slot": "2",
								"type": "t_string_storage"
							},
							{
								"astId": 22,
								"contract": "hotel.sol:Hotel",
								"label": "roomaddress",
								"offset": 0,
								"slot": "3",
								"type": "t_string_storage"
							},
							{
								"astId": 24,
								"contract": "hotel.sol:Hotel",
								"label": "rent_per_month",
								"offset": 0,
								"slot": "4",
								"type": "t_uint256"
							},
							{
								"astId": 26,
								"contract": "hotel.sol:Hotel",
								"label": "securityDeposit",
								"offset": 0,
								"slot": "5",
								"type": "t_uint256"
							},
							{
								"astId": 28,
								"contract": "hotel.sol:Hotel",
								"label": "timestamp",
								"offset": 0,
								"slot": "6",
								"type": "t_uint256"
							},
							{
								"astId": 30,
								"contract": "hotel.sol:Hotel",
								"label": "vacant",
								"offset": 0,
								"slot": "7",
								"type": "t_bool"
							},
							{
								"astId": 32,
								"contract": "hotel.sol:Hotel",
								"label": "landlord",
								"offset": 1,
								"slot": "7",
								"type": "t_address_payable"
							},
							{
								"astId": 34,
								"contract": "hotel.sol:Hotel",
								"label": "currentTenant",
								"offset": 0,
								"slot": "8",
								"type": "t_address_payable"
							}
						],
						"numberOfBytes": "288"
					},
					"t_struct(RoomAgreement)60_storage": {
						"encoding": "inplace",
						"label": "struct Hotel.RoomAgreement",
						"members": [
							{
								"astId": 41,
								"contract": "hotel.sol:Hotel",
								"label": "roomid",
								"offset": 0,
								"slot": "0",
								"type": "t_uint256"
							},
							{
								"astId": 43,
								"contract": "hotel.sol:Hotel",
								"label": "agreementid",
								"offset": 0,
								"slot": "1",
								"type": "t_uint256"
							},
							{
								"astId": 45,
								"contract": "hotel.sol:Hotel",
								"label": "Roomname",
								"offset": 0,
								"slot": "2",
								"type": "t_string_storage"
							},
							{
								"astId": 47,
								"contract": "hotel.sol:Hotel",
								"label": "Roomaddress",
								"offset": 0,
								"slot": "3",
								"type": "t_string_storage"
							},
							{
								"astId": 49,
								"contract": "hotel.sol:Hotel",
								"label": "rent_per_month",
								"offset": 0,
								"slot": "4",
								"type": "t_uint256"
							},
							{
								"astId": 51,
								"contract": "hotel.sol:Hotel",
								"label": "securityDeposit",
								"offset": 0,
								"slot": "5",
								"type": "t_uint256"
							},
							{
								"astId": 53,
								"contract": "hotel.sol:Hotel",
								"label": "lockInPeriod",
								"offset": 0,
								"slot": "6",
								"type": "t_uint256"
							},
							{
								"astId": 55,
								"contract": "hotel.sol:Hotel",
								"label": "timestamp",
								"offset": 0,
								"slot": "7",
								"type": "t_uint256"
							},
							{
								"astId": 57,
								"contract": "hotel.sol:Hotel",
								"label": "tenantdAddress",
								"offset": 0,
								"slot": "8",
								"type": "t_address_payable"
							},
							{
								"astId": 59,
								"contract": "hotel.sol:Hotel",
								"label": "landlordAddress",
								"offset": 0,
								"slot": "9",
								"type": "t_address_payable"
							}
						],
						"numberOfBytes": "320"
					},
					"t_uint256": {
						"encoding": "inplace",
						"label": "uint256",
						"numberOfBytes": "32"
					}
				}
			},
			"userdoc": {
				"methods": {}
			}
		}
	}
}