{
	"data": {
		"bytecode": {
			"linkReferences": {},
			"object": "60806040525f805461ff001916610100179055600180556101c8600255607b600355348015602b575f5ffd5b5060dd806100385f395ff3fe6080604052348015600e575f5ffd5b5060043610604e575f3560e01c8063459b1acf146052578063ab3a58a314606d578063b6c52ae8146075578063bde2b573146094578063c6a898c514609f575b5f5ffd5b605a60025481565b6040519081526020015b60405180910390f35b605a60015481565b5f54608590610100900460ff1681565b60405190151581526020016064565b5f5460859060ff1681565b605a6003548156fea2646970667358221220e89aa6710c448d431b5b369e10b91f29963f62e379061197d09d6afb1e8723cc64736f6c634300081c0033",
			"opcodes": "PUSH1 0x80 PUSH1 0x40 MSTORE PUSH0 DUP1 SLOAD PUSH2 0xFF00 NOT AND PUSH2 0x100 OR SWAP1 SSTORE PUSH1 0x1 DUP1 SSTORE PUSH2 0x1C8 PUSH1 0x2 SSTORE PUSH1 0x7B PUSH1 0x3 SSTORE CALLVALUE DUP1 ISZERO PUSH1 0x2B JUMPI PUSH0 PUSH0 REVERT JUMPDEST POP PUSH1 0xDD DUP1 PUSH2 0x38 PUSH0 CODECOPY PUSH0 RETURN INVALID PUSH1 0x80 PUSH1 0x40 MSTORE CALLVALUE DUP1 ISZERO PUSH1 0xE JUMPI PUSH0 PUSH0 REVERT JUMPDEST POP PUSH1 0x4 CALLDATASIZE LT PUSH1 0x4E JUMPI PUSH0 CALLDATALOAD PUSH1 0xE0 SHR DUP1 PUSH4 0x459B1ACF EQ PUSH1 0x52 JUMPI DUP1 PUSH4 0xAB3A58A3 EQ PUSH1 0x6D JUMPI DUP1 PUSH4 0xB6C52AE8 EQ PUSH1 0x75 JUMPI DUP1 PUSH4 0xBDE2B573 EQ PUSH1 0x94 JUMPI DUP1 PUSH4 0xC6A898C5 EQ PUSH1 0x9F JUMPI JUMPDEST PUSH0 PUSH0 REVERT JUMPDEST PUSH1 0x5A PUSH1 0x2 SLOAD DUP2 JUMP JUMPDEST PUSH1 0x40 MLOAD SWAP1 DUP2 MSTORE PUSH1 0x20 ADD JUMPDEST PUSH1 0x40 MLOAD DUP1 SWAP2 SUB SWAP1 RETURN JUMPDEST PUSH1 0x5A PUSH1 0x1 SLOAD DUP2 JUMP JUMPDEST PUSH0 SLOAD PUSH1 0x85 SWAP1 PUSH2 0x100 SWAP1 DIV PUSH1 0xFF AND DUP2 JUMP JUMPDEST PUSH1 0x40 MLOAD SWAP1 ISZERO ISZERO DUP2 MSTORE PUSH1 0x20 ADD PUSH1 0x64 JUMP JUMPDEST PUSH0 SLOAD PUSH1 0x85 SWAP1 PUSH1 0xFF AND DUP2 JUMP JUMPDEST PUSH1 0x5A PUSH1 0x3 SLOAD DUP2 JUMP INVALID LOG2 PUSH5 0x6970667358 0x22 SLT KECCAK256 0xE8 SWAP11 0xA6 PUSH18 0xC448D431B5B369E10B91F29963F62E37906 GT SWAP8 0xD0 SWAP14 PUSH11 0xFB1E8723CC64736F6C6343 STOP ADDMOD SHR STOP CALLER "
		},
		"gasEstimates": {
			"creation": {
				"codeDepositCost": "44200",
				"executionCost": "90632",
				"totalCost": "134832"
			},
			"external": {
				"hey()": "2352",
				"no()": "2341",
				"u()": "2349",
				"u256()": "2261",
				"u8()": "2283"
			}
		},
		"methodIdentifiers": {
			"hey()": "bde2b573",
			"no()": "b6c52ae8",
			"u()": "c6a898c5",
			"u256()": "459b1acf",
			"u8()": "ab3a58a3"
		}
	},
	"abi": [
		{
			"inputs": [],
			"name": "hey",
			"outputs": [
				{
					"internalType": "bool",
					"name": "",
					"type": "bool"
				}
			],
			"stateMutability": "view",
			"type": "function"
		},
		{
			"inputs": [],
			"name": "no",
			"outputs": [
				{
					"internalType": "bool",
					"name": "",
					"type": "bool"
				}
			],
			"stateMutability": "view",
			"type": "function"
		},
		{
			"inputs": [],
			"name": "u",
			"outputs": [
				{
					"internalType": "uint256",
					"name": "",
					"type": "uint256"
				}
			],
			"stateMutability": "view",
			"type": "function"
		},
		{
			"inputs": [],
			"name": "u256",
			"outputs": [
				{
					"internalType": "uint256",
					"name": "",
					"type": "uint256"
				}
			],
			"stateMutability": "view",
			"type": "function"
		},
		{
			"inputs": [],
			"name": "u8",
			"outputs": [
				{
					"internalType": "uint256",
					"name": "",
					"type": "uint256"
				}
			],
			"stateMutability": "view",
			"type": "function"
		}
	]
}