{
	"data": {
		"bytecode": {
			"linkReferences": {},
			"object": "6080604052348015600e575f5ffd5b5061010a8061001c5f395ff3fe6080604052348015600e575f5ffd5b50600436106044575f3560e01c80633748a5c21460485780633d82faf0146061578063751f5f7e1460675780638acc7b4714606f575b5f5ffd5b604f5f5481565b60405190815260200160405180910390f35b5f54604f565b606d6075565b005b606d608b565b60015f5f8282546084919060ae565b9091555050565b60015f5f8282546084919060c4565b634e487b7160e01b5f52601160045260245ffd5b8181038181111560be5760be609a565b92915050565b8082018082111560be5760be609a56fea26469706673582212209b8688ba8a205f779b70aa44d381c706f1137e0819bb3ca66daffbff678583c664736f6c634300081c0033",
			"opcodes": "PUSH1 0x80 PUSH1 0x40 MSTORE CALLVALUE DUP1 ISZERO PUSH1 0xE JUMPI PUSH0 PUSH0 REVERT JUMPDEST POP PUSH2 0x10A DUP1 PUSH2 0x1C PUSH0 CODECOPY PUSH0 RETURN INVALID PUSH1 0x80 PUSH1 0x40 MSTORE CALLVALUE DUP1 ISZERO PUSH1 0xE JUMPI PUSH0 PUSH0 REVERT JUMPDEST POP PUSH1 0x4 CALLDATASIZE LT PUSH1 0x44 JUMPI PUSH0 CALLDATALOAD PUSH1 0xE0 SHR DUP1 PUSH4 0x3748A5C2 EQ PUSH1 0x48 JUMPI DUP1 PUSH4 0x3D82FAF0 EQ PUSH1 0x61 JUMPI DUP1 PUSH4 0x751F5F7E EQ PUSH1 0x67 JUMPI DUP1 PUSH4 0x8ACC7B47 EQ PUSH1 0x6F JUMPI JUMPDEST PUSH0 PUSH0 REVERT JUMPDEST PUSH1 0x4F PUSH0 SLOAD DUP2 JUMP JUMPDEST PUSH1 0x40 MLOAD SWAP1 DUP2 MSTORE PUSH1 0x20 ADD PUSH1 0x40 MLOAD DUP1 SWAP2 SUB SWAP1 RETURN JUMPDEST PUSH0 SLOAD PUSH1 0x4F JUMP JUMPDEST PUSH1 0x6D PUSH1 0x75 JUMP JUMPDEST STOP JUMPDEST PUSH1 0x6D PUSH1 0x8B JUMP JUMPDEST PUSH1 0x1 PUSH0 PUSH0 DUP3 DUP3 SLOAD PUSH1 0x84 SWAP2 SWAP1 PUSH1 0xAE JUMP JUMPDEST SWAP1 SWAP2 SSTORE POP POP JUMP JUMPDEST PUSH1 0x1 PUSH0 PUSH0 DUP3 DUP3 SLOAD PUSH1 0x84 SWAP2 SWAP1 PUSH1 0xC4 JUMP JUMPDEST PUSH4 0x4E487B71 PUSH1 0xE0 SHL PUSH0 MSTORE PUSH1 0x11 PUSH1 0x4 MSTORE PUSH1 0x24 PUSH0 REVERT JUMPDEST DUP2 DUP2 SUB DUP2 DUP2 GT ISZERO PUSH1 0xBE JUMPI PUSH1 0xBE PUSH1 0x9A JUMP JUMPDEST SWAP3 SWAP2 POP POP JUMP JUMPDEST DUP1 DUP3 ADD DUP1 DUP3 GT ISZERO PUSH1 0xBE JUMPI PUSH1 0xBE PUSH1 0x9A JUMP INVALID LOG2 PUSH5 0x6970667358 0x22 SLT KECCAK256 SWAP12 DUP7 DUP9 0xBA DUP11 KECCAK256 PUSH0 PUSH24 0x9B70AA44D381C706F1137E0819BB3CA66DAFFBFF678583C6 PUSH5 0x736F6C6343 STOP ADDMOD SHR STOP CALLER "
		},
		"gasEstimates": {
			"creation": {
				"codeDepositCost": "53200",
				"executionCost": "103",
				"totalCost": "53303"
			},
			"external": {
				"addNFT()": "24485",
				"checkTotalNFT()": "2278",
				"deletedNFt()": "24463",
				"numberOfNFT()": "2259"
			}
		},
		"methodIdentifiers": {
			"addNFT()": "8acc7b47",
			"checkTotalNFT()": "3d82faf0",
			"deletedNFt()": "751f5f7e",
			"numberOfNFT()": "3748a5c2"
		}
	},
	"abi": [
		{
			"inputs": [],
			"name": "addNFT",
			"outputs": [],
			"stateMutability": "nonpayable",
			"type": "function"
		},
		{
			"inputs": [],
			"name": "checkTotalNFT",
			"outputs": [
				{
					"internalType": "uint256",
					"name": "",
					"type": "uint256"
				}
			],
			"stateMutability": "view",
			"type": "function"
		},
		{
			"inputs": [],
			"name": "deletedNFt",
			"outputs": [],
			"stateMutability": "nonpayable",
			"type": "function"
		},
		{
			"inputs": [],
			"name": "numberOfNFT",
			"outputs": [
				{
					"internalType": "uint256",
					"name": "",
					"type": "uint256"
				}
			],
			"stateMutability": "view",
			"type": "function"
		}
	]
}